{
	"FreshChain.sol": {
		"FreshChain": {
			"abi": [
				{
					"inputs": [],
					"stateMutability": "nonpayable",
					"type": "constructor"
				},
				{
					"anonymous": false,
					"inputs": [
						{
							"indexed": false,
							"internalType": "uint256",
							"name": "batchId",
							"type": "uint256"
						},
						{
							"indexed": false,
							"internalType": "bool",
							"name": "passed",
							"type": "bool"
						}
					],
					"name": "BatchArrived",
					"type": "event"
				},
				{
					"anonymous": false,
					"inputs": [
						{
							"indexed": false,
							"internalType": "uint256",
							"name": "batchId",
							"type": "uint256"
						},
						{
							"indexed": false,
							"internalType": "string",
							"name": "product",
							"type": "string"
						},
						{
							"indexed": false,
							"internalType": "uint256",
							"name": "quantity",
							"type": "uint256"
						}
					],
					"name": "BatchCreated",
					"type": "event"
				},
				{
					"anonymous": false,
					"inputs": [
						{
							"indexed": false,
							"internalType": "uint256",
							"name": "batchId",
							"type": "uint256"
						},
						{
							"indexed": false,
							"internalType": "address",
							"name": "from",
							"type": "address"
						},
						{
							"indexed": false,
							"internalType": "address",
							"name": "to",
							"type": "address"
						}
					],
					"name": "OwnershipTransferred",
					"type": "event"
				},
				{
					"anonymous": false,
					"inputs": [
						{
							"indexed": false,
							"internalType": "uint256",
							"name": "batchId",
							"type": "uint256"
						},
						{
							"indexed": false,
							"internalType": "int256",
							"name": "temp",
							"type": "int256"
						},
						{
							"indexed": false,
							"internalType": "int256",
							"name": "humidity",
							"type": "int256"
						},
						{
							"indexed": false,
							"internalType": "string",
							"name": "location",
							"type": "string"
						}
					],
					"name": "SensorLogged",
					"type": "event"
				},
				{
					"inputs": [
						{
							"internalType": "uint256",
							"name": "batchId",
							"type": "uint256"
						},
						{
							"internalType": "int256",
							"name": "temperature",
							"type": "int256"
						},
						{
							"internalType": "int256",
							"name": "humidity",
							"type": "int256"
						},
						{
							"internalType": "string",
							"name": "location",
							"type": "string"
						}
					],
					"name": "addSensorData",
					"outputs": [],
					"stateMutability": "nonpayable",
					"type": "function"
				},
				{
					"inputs": [
						{
							"internalType": "uint256",
							"name": "",
							"type": "uint256"
						}
					],
					"name": "batches",
					"outputs": [
						{
							"internalType": "uint256",
							"name": "batchId",
							"type": "uint256"
						},
						{
							"internalType": "string",
							"name": "productName",
							"type": "string"
						},
						{
							"internalType": "uint256",
							"name": "quantity",
							"type": "uint256"
						},
						{
							"internalType": "address",
							"name": "currentOwner",
							"type": "address"
						},
						{
							"internalType": "bool",
							"name": "arrived",
							"type": "bool"
						},
						{
							"internalType": "bool",
							"name": "passedInspection",
							"type": "bool"
						}
					],
					"stateMutability": "view",
					"type": "function"
				},
				{
					"inputs": [
						{
							"internalType": "uint256",
							"name": "batchId",
							"type": "uint256"
						},
						{
							"internalType": "string",
							"name": "productName",
							"type": "string"
						},
						{
							"internalType": "uint256",
							"name": "quantity",
							"type": "uint256"
						}
					],
					"name": "createBatch",
					"outputs": [],
					"stateMutability": "nonpayable",
					"type": "function"
				},
				{
					"inputs": [
						{
							"internalType": "address",
							"name": "",
							"type": "address"
						}
					],
					"name": "distributors",
					"outputs": [
						{
							"internalType": "bool",
							"name": "",
							"type": "bool"
						}
					],
					"stateMutability": "view",
					"type": "function"
				},
				{
					"inputs": [
						{
							"internalType": "uint256",
							"name": "batchId",
							"type": "uint256"
						}
					],
					"name": "getBatchHistory",
					"outputs": [
						{
							"components": [
								{
									"internalType": "uint256",
									"name": "batchId",
									"type": "uint256"
								},
								{
									"internalType": "string",
									"name": "productName",
									"type": "string"
								},
								{
									"internalType": "uint256",
									"name": "quantity",
									"type": "uint256"
								},
								{
									"internalType": "address",
									"name": "currentOwner",
									"type": "address"
								},
								{
									"internalType": "bool",
									"name": "arrived",
									"type": "bool"
								},
								{
									"internalType": "bool",
									"name": "passedInspection",
									"type": "bool"
								}
							],
							"internalType": "struct FreshChain.Batch",
							"name": "",
							"type": "tuple"
						},
						{
							"components": [
								{
									"internalType": "int256",
									"name": "temperature",
									"type": "int256"
								},
								{
									"internalType": "int256",
									"name": "humidity",
									"type": "int256"
								},
								{
									"internalType": "string",
									"name": "location",
									"type": "string"
								},
								{
									"internalType": "uint256",
									"name": "timestamp",
									"type": "uint256"
								}
							],
							"internalType": "struct FreshChain.SensorData[]",
							"name": "",
							"type": "tuple[]"
						},
						{
							"components": [
								{
									"internalType": "address",
									"name": "owner",
									"type": "address"
								},
								{
									"internalType": "uint256",
									"name": "timestamp",
									"type": "uint256"
								}
							],
							"internalType": "struct FreshChain.Ownership[]",
							"name": "",
							"type": "tuple[]"
						}
					],
					"stateMutability": "view",
					"type": "function"
				},
				{
					"inputs": [
						{
							"internalType": "uint256",
							"name": "batchId",
							"type": "uint256"
						},
						{
							"internalType": "bool",
							"name": "passedInspection",
							"type": "bool"
						}
					],
					"name": "markAsArrived",
					"outputs": [],
					"stateMutability": "nonpayable",
					"type": "function"
				},
				{
					"inputs": [],
					"name": "owner",
					"outputs": [
						{
							"internalType": "address",
							"name": "",
							"type": "address"
						}
					],
					"stateMutability": "view",
					"type": "function"
				},
				{
					"inputs": [
						{
							"internalType": "uint256",
							"name": "",
							"type": "uint256"
						},
						{
							"internalType": "uint256",
							"name": "",
							"type": "uint256"
						}
					],
					"name": "ownershipHistory",
					"outputs": [
						{
							"internalType": "address",
							"name": "owner",
							"type": "address"
						},
						{
							"internalType": "uint256",
							"name": "timestamp",
							"type": "uint256"
						}
					],
					"stateMutability": "view",
					"type": "function"
				},
				{
					"inputs": [
						{
							"internalType": "address",
							"name": "",
							"type": "address"
						}
					],
					"name": "producers",
					"outputs": [
						{
							"internalType": "bool",
							"name": "",
							"type": "bool"
						}
					],
					"stateMutability": "view",
					"type": "function"
				},
				{
					"inputs": [
						{
							"internalType": "address",
							"name": "d",
							"type": "address"
						}
					],
					"name": "registerDistributor",
					"outputs": [],
					"stateMutability": "nonpayable",
					"type": "function"
				},
				{
					"inputs": [
						{
							"internalType": "address",
							"name": "p",
							"type": "address"
						}
					],
					"name": "registerProducer",
					"outputs": [],
					"stateMutability": "nonpayable",
					"type": "function"
				},
				{
					"inputs": [
						{
							"internalType": "address",
							"name": "r",
							"type": "address"
						}
					],
					"name": "registerRetailer",
					"outputs": [],
					"stateMutability": "nonpayable",
					"type": "function"
				},
				{
					"inputs": [
						{
							"internalType": "address",
							"name": "t",
							"type": "address"
						}
					],
					"name": "registerTransporter",
					"outputs": [],
					"stateMutability": "nonpayable",
					"type": "function"
				},
				{
					"inputs": [
						{
							"internalType": "address",
							"name": "",
							"type": "address"
						}
					],
					"name": "retailers",
					"outputs": [
						{
							"internalType": "bool",
							"name": "",
							"type": "bool"
						}
					],
					"stateMutability": "view",
					"type": "function"
				},
				{
					"inputs": [
						{
							"internalType": "uint256",
							"name": "",
							"type": "uint256"
						},
						{
							"internalType": "uint256",
							"name": "",
							"type": "uint256"
						}
					],
					"name": "sensorLogs",
					"outputs": [
						{
							"internalType": "int256",
							"name": "temperature",
							"type": "int256"
						},
						{
							"internalType": "int256",
							"name": "humidity",
							"type": "int256"
						},
						{
							"internalType": "string",
							"name": "location",
							"type": "string"
						},
						{
							"internalType": "uint256",
							"name": "timestamp",
							"type": "uint256"
						}
					],
					"stateMutability": "view",
					"type": "function"
				},
				{
					"inputs": [
						{
							"internalType": "uint256",
							"name": "batchId",
							"type": "uint256"
						},
						{
							"internalType": "address",
							"name": "newOwner",
							"type": "address"
						}
					],
					"name": "transferOwnership",
					"outputs": [],
					"stateMutability": "nonpayable",
					"type": "function"
				},
				{
					"inputs": [
						{
							"internalType": "address",
							"name": "",
							"type": "address"
						}
					],
					"name": "transporters",
					"outputs": [
						{
							"internalType": "bool",
							"name": "",
							"type": "bool"
						}
					],
					"stateMutability": "view",
					"type": "function"
				}
			],
			"devdoc": {
				"kind": "dev",
				"methods": {},
				"version": 1
			},
			"evm": {
				"assembly": "    /* \"FreshChain.sol\":61:4444  contract FreshChain {... */\n  mstore(0x40, 0x80)\n    /* \"FreshChain.sol\":119:170  constructor() {... */\n  callvalue\n  dup1\n  iszero\n  tag_1\n  jumpi\n  revert(0x00, 0x00)\ntag_1:\n  pop\n    /* \"FreshChain.sol\":152:162  msg.sender */\n  caller\n    /* \"FreshChain.sol\":144:149  owner */\n  0x00\n  0x00\n    /* \"FreshChain.sol\":144:162  owner = msg.sender */\n  0x0100\n  exp\n  dup2\n  sload\n  dup2\n  0xffffffffffffffffffffffffffffffffffffffff\n  mul\n  not\n  and\n  swap1\n  dup4\n  0xffffffffffffffffffffffffffffffffffffffff\n  and\n  mul\n  or\n  swap1\n  sstore\n  pop\n    /* \"FreshChain.sol\":61:4444  contract FreshChain {... */\n  dataSize(sub_0)\n  dup1\n  dataOffset(sub_0)\n  0x00\n  codecopy\n  0x00\n  return\nstop\n\nsub_0: assembly {\n        /* \"FreshChain.sol\":61:4444  contract FreshChain {... */\n      mstore(0x40, 0x80)\n      callvalue\n      dup1\n      iszero\n      tag_1\n      jumpi\n      revert(0x00, 0x00)\n    tag_1:\n      pop\n      jumpi(tag_2, lt(calldatasize, 0x04))\n      shr(0xe0, calldataload(0x00))\n      dup1\n      0xa83006da\n      gt\n      tag_20\n      jumpi\n      dup1\n      0xc9cf2adc\n      gt\n      tag_21\n      jumpi\n      dup1\n      0xc9cf2adc\n      eq\n      tag_15\n      jumpi\n      dup1\n      0xcc642784\n      eq\n      tag_16\n      jumpi\n      dup1\n      0xe25bd158\n      eq\n      tag_17\n      jumpi\n      dup1\n      0xf33c7bcc\n      eq\n      tag_18\n      jumpi\n      dup1\n      0xfa6d8c5f\n      eq\n      tag_19\n      jumpi\n      jump(tag_2)\n    tag_21:\n      dup1\n      0xa83006da\n      eq\n      tag_11\n      jumpi\n      dup1\n      0xac98d969\n      eq\n      tag_12\n      jumpi\n      dup1\n      0xb32c4d8d\n      eq\n      tag_13\n      jumpi\n      dup1\n      0xc7a8ccb1\n      eq\n      tag_14\n      jumpi\n      jump(tag_2)\n    tag_20:\n      dup1\n      0x3c530ace\n      gt\n      tag_22\n      jumpi\n      dup1\n      0x3c530ace\n      eq\n      tag_7\n      jumpi\n      dup1\n      0x554bb5d4\n      eq\n      tag_8\n      jumpi\n      dup1\n      0x8da5cb5b\n      eq\n      tag_9\n      jumpi\n      dup1\n      0x9a268f35\n      eq\n      tag_10\n      jumpi\n      jump(tag_2)\n    tag_22:\n      dup1\n      0x26324eff\n      eq\n      tag_3\n      jumpi\n      dup1\n      0x29507f73\n      eq\n      tag_4\n      jumpi\n      dup1\n      0x31ab0518\n      eq\n      tag_5\n      jumpi\n      dup1\n      0x386e6ad0\n      eq\n      tag_6\n      jumpi\n    tag_2:\n      revert(0x00, 0x00)\n        /* \"FreshChain.sol\":762:803  mapping(address => bool) public producers */\n    tag_3:\n      tag_23\n      0x04\n      dup1\n      calldatasize\n      sub\n      dup2\n      add\n      swap1\n      tag_24\n      swap2\n      swap1\n      tag_25\n      jump\t// in\n    tag_24:\n      tag_26\n      jump\t// in\n    tag_23:\n      mload(0x40)\n      tag_27\n      swap2\n      swap1\n      tag_28\n      jump\t// in\n    tag_27:\n      mload(0x40)\n      dup1\n      swap2\n      sub\n      swap1\n      return\n        /* \"FreshChain.sol\":3396:3775  function transferOwnership(uint batchId, address newOwner) external {... */\n    tag_4:\n      tag_29\n      0x04\n      dup1\n      calldatasize\n      sub\n      dup2\n      add\n      swap1\n      tag_30\n      swap2\n      swap1\n      tag_31\n      jump\t// in\n    tag_30:\n      tag_32\n      jump\t// in\n    tag_29:\n      stop\n        /* \"FreshChain.sol\":1172:1272  function registerDistributor(address d) external onlyOwner {... */\n    tag_5:\n      tag_33\n      0x04\n      dup1\n      calldatasize\n      sub\n      dup2\n      add\n      swap1\n      tag_34\n      swap2\n      swap1\n      tag_25\n      jump\t// in\n    tag_34:\n      tag_35\n      jump\t// in\n    tag_33:\n      stop\n        /* \"FreshChain.sol\":2869:3388  function addSensorData(... */\n    tag_6:\n      tag_36\n      0x04\n      dup1\n      calldatasize\n      sub\n      dup2\n      add\n      swap1\n      tag_37\n      swap2\n      swap1\n      tag_38\n      jump\t// in\n    tag_37:\n      tag_39\n      jump\t// in\n    tag_36:\n      stop\n        /* \"FreshChain.sol\":962:1056  function registerProducer(address p) external onlyOwner {... */\n    tag_7:\n      tag_40\n      0x04\n      dup1\n      calldatasize\n      sub\n      dup2\n      add\n      swap1\n      tag_41\n      swap2\n      swap1\n      tag_25\n      jump\t// in\n    tag_41:\n      tag_42\n      jump\t// in\n    tag_40:\n      stop\n        /* \"FreshChain.sol\":3783:4058  function markAsArrived(uint batchId, bool passedInspection)... */\n    tag_8:\n      tag_43\n      0x04\n      dup1\n      calldatasize\n      sub\n      dup2\n      add\n      swap1\n      tag_44\n      swap2\n      swap1\n      tag_45\n      jump\t// in\n    tag_44:\n      tag_46\n      jump\t// in\n    tag_43:\n      stop\n        /* \"FreshChain.sol\":90:110  address public owner */\n    tag_9:\n      tag_47\n      tag_48\n      jump\t// in\n    tag_47:\n      mload(0x40)\n      tag_49\n      swap2\n      swap1\n      tag_50\n      jump\t// in\n    tag_49:\n      mload(0x40)\n      dup1\n      swap2\n      sub\n      swap1\n      return\n        /* \"FreshChain.sol\":912:953  mapping(address => bool) public retailers */\n    tag_10:\n      tag_51\n      0x04\n      dup1\n      calldatasize\n      sub\n      dup2\n      add\n      swap1\n      tag_52\n      swap2\n      swap1\n      tag_25\n      jump\t// in\n    tag_52:\n      tag_53\n      jump\t// in\n    tag_51:\n      mload(0x40)\n      tag_54\n      swap2\n      swap1\n      tag_28\n      jump\t// in\n    tag_54:\n      mload(0x40)\n      dup1\n      swap2\n      sub\n      swap1\n      return\n        /* \"FreshChain.sol\":1280:1374  function registerRetailer(address r) external onlyOwner {... */\n    tag_11:\n      tag_55\n      0x04\n      dup1\n      calldatasize\n      sub\n      dup2\n      add\n      swap1\n      tag_56\n      swap2\n      swap1\n      tag_25\n      jump\t// in\n    tag_56:\n      tag_57\n      jump\t// in\n    tag_55:\n      stop\n        /* \"FreshChain.sol\":1862:1909  mapping(uint => SensorData[]) public sensorLogs */\n    tag_12:\n      tag_58\n      0x04\n      dup1\n      calldatasize\n      sub\n      dup2\n      add\n      swap1\n      tag_59\n      swap2\n      swap1\n      tag_60\n      jump\t// in\n    tag_59:\n      tag_61\n      jump\t// in\n    tag_58:\n      mload(0x40)\n      tag_62\n      swap5\n      swap4\n      swap3\n      swap2\n      swap1\n      tag_63\n      jump\t// in\n    tag_62:\n      mload(0x40)\n      dup1\n      swap2\n      sub\n      swap1\n      return\n        /* \"FreshChain.sol\":1818:1855  mapping(uint => Batch) public batches */\n    tag_13:\n      tag_64\n      0x04\n      dup1\n      calldatasize\n      sub\n      dup2\n      add\n      swap1\n      tag_65\n      swap2\n      swap1\n      tag_66\n      jump\t// in\n    tag_65:\n      tag_67\n      jump\t// in\n    tag_64:\n      mload(0x40)\n      tag_68\n      swap7\n      swap6\n      swap5\n      swap4\n      swap3\n      swap2\n      swap1\n      tag_69\n      jump\t// in\n    tag_68:\n      mload(0x40)\n      dup1\n      swap2\n      sub\n      swap1\n      return\n        /* \"FreshChain.sol\":4102:4441  function getBatchHistory(uint batchId)... */\n    tag_14:\n      tag_70\n      0x04\n      dup1\n      calldatasize\n      sub\n      dup2\n      add\n      swap1\n      tag_71\n      swap2\n      swap1\n      tag_66\n      jump\t// in\n    tag_71:\n      tag_72\n      jump\t// in\n    tag_70:\n      mload(0x40)\n      tag_73\n      swap4\n      swap3\n      swap2\n      swap1\n      tag_74\n      jump\t// in\n    tag_73:\n      mload(0x40)\n      dup1\n      swap2\n      sub\n      swap1\n      return\n        /* \"FreshChain.sol\":1916:1968  mapping(uint => Ownership[]) public ownershipHistory */\n    tag_15:\n      tag_75\n      0x04\n      dup1\n      calldatasize\n      sub\n      dup2\n      add\n      swap1\n      tag_76\n      swap2\n      swap1\n      tag_60\n      jump\t// in\n    tag_76:\n      tag_77\n      jump\t// in\n    tag_75:\n      mload(0x40)\n      tag_78\n      swap3\n      swap2\n      swap1\n      tag_79\n      jump\t// in\n    tag_78:\n      mload(0x40)\n      dup1\n      swap2\n      sub\n      swap1\n      return\n        /* \"FreshChain.sol\":861:905  mapping(address => bool) public distributors */\n    tag_16:\n      tag_80\n      0x04\n      dup1\n      calldatasize\n      sub\n      dup2\n      add\n      swap1\n      tag_81\n      swap2\n      swap1\n      tag_25\n      jump\t// in\n    tag_81:\n      tag_82\n      jump\t// in\n    tag_80:\n      mload(0x40)\n      tag_83\n      swap2\n      swap1\n      tag_28\n      jump\t// in\n    tag_83:\n      mload(0x40)\n      dup1\n      swap2\n      sub\n      swap1\n      return\n        /* \"FreshChain.sol\":810:854  mapping(address => bool) public transporters */\n    tag_17:\n      tag_84\n      0x04\n      dup1\n      calldatasize\n      sub\n      dup2\n      add\n      swap1\n      tag_85\n      swap2\n      swap1\n      tag_25\n      jump\t// in\n    tag_85:\n      tag_86\n      jump\t// in\n    tag_84:\n      mload(0x40)\n      tag_87\n      swap2\n      swap1\n      tag_28\n      jump\t// in\n    tag_87:\n      mload(0x40)\n      dup1\n      swap2\n      sub\n      swap1\n      return\n        /* \"FreshChain.sol\":2302:2861  function createBatch(... */\n    tag_18:\n      tag_88\n      0x04\n      dup1\n      calldatasize\n      sub\n      dup2\n      add\n      swap1\n      tag_89\n      swap2\n      swap1\n      tag_90\n      jump\t// in\n    tag_89:\n      tag_91\n      jump\t// in\n    tag_88:\n      stop\n        /* \"FreshChain.sol\":1064:1164  function registerTransporter(address t) external onlyOwner {... */\n    tag_19:\n      tag_92\n      0x04\n      dup1\n      calldatasize\n      sub\n      dup2\n      add\n      swap1\n      tag_93\n      swap2\n      swap1\n      tag_25\n      jump\t// in\n    tag_93:\n      tag_94\n      jump\t// in\n    tag_92:\n      stop\n        /* \"FreshChain.sol\":762:803  mapping(address => bool) public producers */\n    tag_26:\n      mstore(0x20, 0x01)\n      dup1\n      0x00\n      mstore\n      keccak256(0x00, 0x40)\n      0x00\n      swap2\n      pop\n      sload\n      swap1\n      0x0100\n      exp\n      swap1\n      div\n      0xff\n      and\n      dup2\n      jump\t// out\n        /* \"FreshChain.sol\":3396:3775  function transferOwnership(uint batchId, address newOwner) external {... */\n    tag_32:\n        /* \"FreshChain.sol\":3516:3526  msg.sender */\n      caller\n        /* \"FreshChain.sol\":3483:3526  batches[batchId].currentOwner == msg.sender */\n      0xffffffffffffffffffffffffffffffffffffffff\n      and\n        /* \"FreshChain.sol\":3483:3490  batches */\n      0x05\n        /* \"FreshChain.sol\":3483:3499  batches[batchId] */\n      0x00\n        /* \"FreshChain.sol\":3491:3498  batchId */\n      dup5\n        /* \"FreshChain.sol\":3483:3499  batches[batchId] */\n      dup2\n      mstore\n      0x20\n      add\n      swap1\n      dup2\n      mstore\n      0x20\n      add\n      0x00\n      keccak256\n        /* \"FreshChain.sol\":3483:3512  batches[batchId].currentOwner */\n      0x03\n      add\n      0x00\n      swap1\n      sload\n      swap1\n      0x0100\n      exp\n      swap1\n      div\n      0xffffffffffffffffffffffffffffffffffffffff\n      and\n        /* \"FreshChain.sol\":3483:3526  batches[batchId].currentOwner == msg.sender */\n      0xffffffffffffffffffffffffffffffffffffffff\n      and\n      eq\n        /* \"FreshChain.sol\":3475:3540  require(batches[batchId].currentOwner == msg.sender, \"Not owner\") */\n      tag_96\n      jumpi\n      mload(0x40)\n      0x08c379a000000000000000000000000000000000000000000000000000000000\n      dup2\n      mstore\n      0x04\n      add\n      tag_97\n      swap1\n      tag_98\n      jump\t// in\n    tag_97:\n      mload(0x40)\n      dup1\n      swap2\n      sub\n      swap1\n      revert\n    tag_96:\n        /* \"FreshChain.sol\":3585:3593  newOwner */\n      dup1\n        /* \"FreshChain.sol\":3553:3560  batches */\n      0x05\n        /* \"FreshChain.sol\":3553:3569  batches[batchId] */\n      0x00\n        /* \"FreshChain.sol\":3561:3568  batchId */\n      dup5\n        /* \"FreshChain.sol\":3553:3569  batches[batchId] */\n      dup2\n      mstore\n      0x20\n      add\n      swap1\n      dup2\n      mstore\n      0x20\n      add\n      0x00\n      keccak256\n        /* \"FreshChain.sol\":3553:3582  batches[batchId].currentOwner */\n      0x03\n      add\n      0x00\n        /* \"FreshChain.sol\":3553:3593  batches[batchId].currentOwner = newOwner */\n      0x0100\n      exp\n      dup2\n      sload\n      dup2\n      0xffffffffffffffffffffffffffffffffffffffff\n      mul\n      not\n      and\n      swap1\n      dup4\n      0xffffffffffffffffffffffffffffffffffffffff\n      and\n      mul\n      or\n      swap1\n      sstore\n      pop\n        /* \"FreshChain.sol\":3606:3622  ownershipHistory */\n      0x07\n        /* \"FreshChain.sol\":3606:3631  ownershipHistory[batchId] */\n      0x00\n        /* \"FreshChain.sol\":3623:3630  batchId */\n      dup4\n        /* \"FreshChain.sol\":3606:3631  ownershipHistory[batchId] */\n      dup2\n      mstore\n      0x20\n      add\n      swap1\n      dup2\n      mstore\n      0x20\n      add\n      0x00\n      keccak256\n        /* \"FreshChain.sol\":3651:3687  Ownership(newOwner, block.timestamp) */\n      mload(0x40)\n      dup1\n      0x40\n      add\n      0x40\n      mstore\n      dup1\n        /* \"FreshChain.sol\":3661:3669  newOwner */\n      dup4\n        /* \"FreshChain.sol\":3651:3687  Ownership(newOwner, block.timestamp) */\n      0xffffffffffffffffffffffffffffffffffffffff\n      and\n      dup2\n      mstore\n      0x20\n      add\n        /* \"FreshChain.sol\":3671:3686  block.timestamp */\n      timestamp\n        /* \"FreshChain.sol\":3651:3687  Ownership(newOwner, block.timestamp) */\n      dup2\n      mstore\n      pop\n        /* \"FreshChain.sol\":3606:3698  ownershipHistory[batchId].push(... */\n      swap1\n      dup1\n      0x01\n      dup2\n      sload\n      add\n      dup1\n      dup3\n      sstore\n      dup1\n      swap2\n      pop\n      pop\n      0x01\n      swap1\n      sub\n      swap1\n      0x00\n      mstore\n      keccak256(0x00, 0x20)\n      swap1\n      0x02\n      mul\n      add\n      0x00\n      swap1\n      swap2\n      swap1\n      swap2\n      swap1\n      swap2\n      pop\n      0x00\n      dup3\n      add\n      mload\n      dup2\n      0x00\n      add\n      exp(0x0100, 0x00)\n      dup2\n      sload\n      dup2\n      0xffffffffffffffffffffffffffffffffffffffff\n      mul\n      not\n      and\n      swap1\n      dup4\n      0xffffffffffffffffffffffffffffffffffffffff\n      and\n      mul\n      or\n      swap1\n      sstore\n      pop\n      0x20\n      dup3\n      add\n      mload\n      dup2\n      0x01\n      add\n      sstore\n      pop\n      pop\n        /* \"FreshChain.sol\":3716:3767  OwnershipTransferred(batchId, msg.sender, newOwner) */\n      0x16b85f49bf01212961345d3016c9a531894accf62eb7680f2045d79185cc0ec0\n        /* \"FreshChain.sol\":3737:3744  batchId */\n      dup3\n        /* \"FreshChain.sol\":3746:3756  msg.sender */\n      caller\n        /* \"FreshChain.sol\":3758:3766  newOwner */\n      dup4\n        /* \"FreshChain.sol\":3716:3767  OwnershipTransferred(batchId, msg.sender, newOwner) */\n      mload(0x40)\n      tag_100\n      swap4\n      swap3\n      swap2\n      swap1\n      tag_101\n      jump\t// in\n    tag_100:\n      mload(0x40)\n      dup1\n      swap2\n      sub\n      swap1\n      log1\n        /* \"FreshChain.sol\":3396:3775  function transferOwnership(uint batchId, address newOwner) external {... */\n      pop\n      pop\n      jump\t// out\n        /* \"FreshChain.sol\":1172:1272  function registerDistributor(address d) external onlyOwner {... */\n    tag_35:\n        /* \"FreshChain.sol\":232:237  owner */\n      0x00\n      0x00\n      swap1\n      sload\n      swap1\n      0x0100\n      exp\n      swap1\n      div\n      0xffffffffffffffffffffffffffffffffffffffff\n      and\n        /* \"FreshChain.sol\":218:237  msg.sender == owner */\n      0xffffffffffffffffffffffffffffffffffffffff\n      and\n        /* \"FreshChain.sol\":218:228  msg.sender */\n      caller\n        /* \"FreshChain.sol\":218:237  msg.sender == owner */\n      0xffffffffffffffffffffffffffffffffffffffff\n      and\n      eq\n        /* \"FreshChain.sol\":210:251  require(msg.sender == owner, \"Not admin\") */\n      tag_103\n      jumpi\n      mload(0x40)\n      0x08c379a000000000000000000000000000000000000000000000000000000000\n      dup2\n      mstore\n      0x04\n      add\n      tag_104\n      swap1\n      tag_105\n      jump\t// in\n    tag_104:\n      mload(0x40)\n      dup1\n      swap2\n      sub\n      swap1\n      revert\n    tag_103:\n        /* \"FreshChain.sol\":1260:1264  true */\n      0x01\n        /* \"FreshChain.sol\":1242:1254  distributors */\n      0x03\n        /* \"FreshChain.sol\":1242:1257  distributors[d] */\n      0x00\n        /* \"FreshChain.sol\":1255:1256  d */\n      dup4\n        /* \"FreshChain.sol\":1242:1257  distributors[d] */\n      0xffffffffffffffffffffffffffffffffffffffff\n      and\n      0xffffffffffffffffffffffffffffffffffffffff\n      and\n      dup2\n      mstore\n      0x20\n      add\n      swap1\n      dup2\n      mstore\n      0x20\n      add\n      0x00\n      keccak256\n      0x00\n        /* \"FreshChain.sol\":1242:1264  distributors[d] = true */\n      0x0100\n      exp\n      dup2\n      sload\n      dup2\n      0xff\n      mul\n      not\n      and\n      swap1\n      dup4\n      iszero\n      iszero\n      mul\n      or\n      swap1\n      sstore\n      pop\n        /* \"FreshChain.sol\":1172:1272  function registerDistributor(address d) external onlyOwner {... */\n      pop\n      jump\t// out\n        /* \"FreshChain.sol\":2869:3388  function addSensorData(... */\n    tag_39:\n        /* \"FreshChain.sol\":434:446  transporters */\n      0x02\n        /* \"FreshChain.sol\":434:458  transporters[msg.sender] */\n      0x00\n        /* \"FreshChain.sol\":447:457  msg.sender */\n      caller\n        /* \"FreshChain.sol\":434:458  transporters[msg.sender] */\n      0xffffffffffffffffffffffffffffffffffffffff\n      and\n      0xffffffffffffffffffffffffffffffffffffffff\n      and\n      dup2\n      mstore\n      0x20\n      add\n      swap1\n      dup2\n      mstore\n      0x20\n      add\n      0x00\n      keccak256\n      0x00\n      swap1\n      sload\n      swap1\n      0x0100\n      exp\n      swap1\n      div\n      0xff\n      and\n        /* \"FreshChain.sol\":426:478  require(transporters[msg.sender], \"Not transporter\") */\n      tag_108\n      jumpi\n      mload(0x40)\n      0x08c379a000000000000000000000000000000000000000000000000000000000\n      dup2\n      mstore\n      0x04\n      add\n      tag_109\n      swap1\n      tag_110\n      jump\t// in\n    tag_109:\n      mload(0x40)\n      dup1\n      swap2\n      sub\n      swap1\n      revert\n    tag_108:\n        /* \"FreshChain.sol\":3063:3066  -10 */\n      0xfffffffffffffffffffffffffffffffffffffffffffffffffffffffffffffff6\n        /* \"FreshChain.sol\":3048:3059  temperature */\n      dup4\n        /* \"FreshChain.sol\":3048:3066  temperature >= -10 */\n      slt\n      iszero\n        /* \"FreshChain.sol\":3048:3087  temperature >= -10 && temperature <= 40 */\n      dup1\n      iszero\n      tag_112\n      jumpi\n      pop\n        /* \"FreshChain.sol\":3085:3087  40 */\n      0x28\n        /* \"FreshChain.sol\":3070:3081  temperature */\n      dup4\n        /* \"FreshChain.sol\":3070:3087  temperature <= 40 */\n      sgt\n      iszero\n        /* \"FreshChain.sol\":3048:3087  temperature >= -10 && temperature <= 40 */\n    tag_112:\n        /* \"FreshChain.sol\":3040:3109  require(temperature >= -10 && temperature <= 40, \"Temp out of range\") */\n      tag_113\n      jumpi\n      mload(0x40)\n      0x08c379a000000000000000000000000000000000000000000000000000000000\n      dup2\n      mstore\n      0x04\n      add\n      tag_114\n      swap1\n      tag_115\n      jump\t// in\n    tag_114:\n      mload(0x40)\n      dup1\n      swap2\n      sub\n      swap1\n      revert\n    tag_113:\n        /* \"FreshChain.sol\":3140:3141  0 */\n      0x00\n        /* \"FreshChain.sol\":3128:3136  humidity */\n      dup3\n        /* \"FreshChain.sol\":3128:3141  humidity >= 0 */\n      slt\n      iszero\n        /* \"FreshChain.sol\":3128:3159  humidity >= 0 && humidity <= 40 */\n      dup1\n      iszero\n      tag_116\n      jumpi\n      pop\n        /* \"FreshChain.sol\":3157:3159  40 */\n      0x28\n        /* \"FreshChain.sol\":3145:3153  humidity */\n      dup3\n        /* \"FreshChain.sol\":3145:3159  humidity <= 40 */\n      sgt\n      iszero\n        /* \"FreshChain.sol\":3128:3159  humidity >= 0 && humidity <= 40 */\n    tag_116:\n        /* \"FreshChain.sol\":3120:3185  require(humidity >= 0 && humidity <= 40, \"Humidity out of range\") */\n      tag_117\n      jumpi\n      mload(0x40)\n      0x08c379a000000000000000000000000000000000000000000000000000000000\n      dup2\n      mstore\n      0x04\n      add\n      tag_118\n      swap1\n      tag_119\n      jump\t// in\n    tag_118:\n      mload(0x40)\n      dup1\n      swap2\n      sub\n      swap1\n      revert\n    tag_117:\n        /* \"FreshChain.sol\":3198:3208  sensorLogs */\n      0x06\n        /* \"FreshChain.sol\":3198:3217  sensorLogs[batchId] */\n      0x00\n        /* \"FreshChain.sol\":3209:3216  batchId */\n      dup6\n        /* \"FreshChain.sol\":3198:3217  sensorLogs[batchId] */\n      dup2\n      mstore\n      0x20\n      add\n      swap1\n      dup2\n      mstore\n      0x20\n      add\n      0x00\n      keccak256\n        /* \"FreshChain.sol\":3237:3297  SensorData(temperature, humidity, location, block.timestamp) */\n      mload(0x40)\n      dup1\n      0x80\n      add\n      0x40\n      mstore\n      dup1\n        /* \"FreshChain.sol\":3248:3259  temperature */\n      dup6\n        /* \"FreshChain.sol\":3237:3297  SensorData(temperature, humidity, location, block.timestamp) */\n      dup2\n      mstore\n      0x20\n      add\n        /* \"FreshChain.sol\":3261:3269  humidity */\n      dup5\n        /* \"FreshChain.sol\":3237:3297  SensorData(temperature, humidity, location, block.timestamp) */\n      dup2\n      mstore\n      0x20\n      add\n        /* \"FreshChain.sol\":3271:3279  location */\n      dup4\n        /* \"FreshChain.sol\":3237:3297  SensorData(temperature, humidity, location, block.timestamp) */\n      dup2\n      mstore\n      0x20\n      add\n        /* \"FreshChain.sol\":3281:3296  block.timestamp */\n      timestamp\n        /* \"FreshChain.sol\":3237:3297  SensorData(temperature, humidity, location, block.timestamp) */\n      dup2\n      mstore\n      pop\n        /* \"FreshChain.sol\":3198:3308  sensorLogs[batchId].push(... */\n      swap1\n      dup1\n      0x01\n      dup2\n      sload\n      add\n      dup1\n      dup3\n      sstore\n      dup1\n      swap2\n      pop\n      pop\n      0x01\n      swap1\n      sub\n      swap1\n      0x00\n      mstore\n      keccak256(0x00, 0x20)\n      swap1\n      0x04\n      mul\n      add\n      0x00\n      swap1\n      swap2\n      swap1\n      swap2\n      swap1\n      swap2\n      pop\n      0x00\n      dup3\n      add\n      mload\n      dup2\n      0x00\n      add\n      sstore\n      0x20\n      dup3\n      add\n      mload\n      dup2\n      0x01\n      add\n      sstore\n      0x40\n      dup3\n      add\n      mload\n      dup2\n      0x02\n      add\n      swap1\n      dup2\n      tag_121\n      swap2\n      swap1\n      tag_122\n      jump\t// in\n    tag_121:\n      pop\n      0x60\n      dup3\n      add\n      mload\n      dup2\n      0x03\n      add\n      sstore\n      pop\n      pop\n        /* \"FreshChain.sol\":3326:3380  SensorLogged(batchId, temperature, humidity, location) */\n      0x51317e2c1e7f4edde20c7837e1ebc06a6fd0be9034355b939bd4f13484b1c7e5\n        /* \"FreshChain.sol\":3339:3346  batchId */\n      dup5\n        /* \"FreshChain.sol\":3348:3359  temperature */\n      dup5\n        /* \"FreshChain.sol\":3361:3369  humidity */\n      dup5\n        /* \"FreshChain.sol\":3371:3379  location */\n      dup5\n        /* \"FreshChain.sol\":3326:3380  SensorLogged(batchId, temperature, humidity, location) */\n      mload(0x40)\n      tag_123\n      swap5\n      swap4\n      swap3\n      swap2\n      swap1\n      tag_124\n      jump\t// in\n    tag_123:\n      mload(0x40)\n      dup1\n      swap2\n      sub\n      swap1\n      log1\n        /* \"FreshChain.sol\":2869:3388  function addSensorData(... */\n      pop\n      pop\n      pop\n      pop\n      jump\t// out\n        /* \"FreshChain.sol\":962:1056  function registerProducer(address p) external onlyOwner {... */\n    tag_42:\n        /* \"FreshChain.sol\":232:237  owner */\n      0x00\n      0x00\n      swap1\n      sload\n      swap1\n      0x0100\n      exp\n      swap1\n      div\n      0xffffffffffffffffffffffffffffffffffffffff\n      and\n        /* \"FreshChain.sol\":218:237  msg.sender == owner */\n      0xffffffffffffffffffffffffffffffffffffffff\n      and\n        /* \"FreshChain.sol\":218:228  msg.sender */\n      caller\n        /* \"FreshChain.sol\":218:237  msg.sender == owner */\n      0xffffffffffffffffffffffffffffffffffffffff\n      and\n      eq\n        /* \"FreshChain.sol\":210:251  require(msg.sender == owner, \"Not admin\") */\n      tag_126\n      jumpi\n      mload(0x40)\n      0x08c379a000000000000000000000000000000000000000000000000000000000\n      dup2\n      mstore\n      0x04\n      add\n      tag_127\n      swap1\n      tag_105\n      jump\t// in\n    tag_127:\n      mload(0x40)\n      dup1\n      swap2\n      sub\n      swap1\n      revert\n    tag_126:\n        /* \"FreshChain.sol\":1044:1048  true */\n      0x01\n        /* \"FreshChain.sol\":1029:1038  producers */\n      dup1\n        /* \"FreshChain.sol\":1029:1041  producers[p] */\n      0x00\n        /* \"FreshChain.sol\":1039:1040  p */\n      dup4\n        /* \"FreshChain.sol\":1029:1041  producers[p] */\n      0xffffffffffffffffffffffffffffffffffffffff\n      and\n      0xffffffffffffffffffffffffffffffffffffffff\n      and\n      dup2\n      mstore\n      0x20\n      add\n      swap1\n      dup2\n      mstore\n      0x20\n      add\n      0x00\n      keccak256\n      0x00\n        /* \"FreshChain.sol\":1029:1048  producers[p] = true */\n      0x0100\n      exp\n      dup2\n      sload\n      dup2\n      0xff\n      mul\n      not\n      and\n      swap1\n      dup4\n      iszero\n      iszero\n      mul\n      or\n      swap1\n      sstore\n      pop\n        /* \"FreshChain.sol\":962:1056  function registerProducer(address p) external onlyOwner {... */\n      pop\n      jump\t// out\n        /* \"FreshChain.sol\":3783:4058  function markAsArrived(uint batchId, bool passedInspection)... */\n    tag_46:\n        /* \"FreshChain.sol\":667:676  retailers */\n      0x04\n        /* \"FreshChain.sol\":667:688  retailers[msg.sender] */\n      0x00\n        /* \"FreshChain.sol\":677:687  msg.sender */\n      caller\n        /* \"FreshChain.sol\":667:688  retailers[msg.sender] */\n      0xffffffffffffffffffffffffffffffffffffffff\n      and\n      0xffffffffffffffffffffffffffffffffffffffff\n      and\n      dup2\n      mstore\n      0x20\n      add\n      swap1\n      dup2\n      mstore\n      0x20\n      add\n      0x00\n      keccak256\n      0x00\n      swap1\n      sload\n      swap1\n      0x0100\n      exp\n      swap1\n      div\n      0xff\n      and\n        /* \"FreshChain.sol\":659:705  require(retailers[msg.sender], \"Not retailer\") */\n      tag_130\n      jumpi\n      mload(0x40)\n      0x08c379a000000000000000000000000000000000000000000000000000000000\n      dup2\n      mstore\n      0x04\n      add\n      tag_131\n      swap1\n      tag_132\n      jump\t// in\n    tag_131:\n      mload(0x40)\n      dup1\n      swap2\n      sub\n      swap1\n      revert\n    tag_130:\n        /* \"FreshChain.sol\":3926:3930  true */\n      0x01\n        /* \"FreshChain.sol\":3899:3906  batches */\n      0x05\n        /* \"FreshChain.sol\":3899:3915  batches[batchId] */\n      0x00\n        /* \"FreshChain.sol\":3907:3914  batchId */\n      dup5\n        /* \"FreshChain.sol\":3899:3915  batches[batchId] */\n      dup2\n      mstore\n      0x20\n      add\n      swap1\n      dup2\n      mstore\n      0x20\n      add\n      0x00\n      keccak256\n        /* \"FreshChain.sol\":3899:3923  batches[batchId].arrived */\n      0x03\n      add\n      0x14\n        /* \"FreshChain.sol\":3899:3930  batches[batchId].arrived = true */\n      0x0100\n      exp\n      dup2\n      sload\n      dup2\n      0xff\n      mul\n      not\n      and\n      swap1\n      dup4\n      iszero\n      iszero\n      mul\n      or\n      swap1\n      sstore\n      pop\n        /* \"FreshChain.sol\":3977:3993  passedInspection */\n      dup1\n        /* \"FreshChain.sol\":3941:3948  batches */\n      0x05\n        /* \"FreshChain.sol\":3941:3957  batches[batchId] */\n      0x00\n        /* \"FreshChain.sol\":3949:3956  batchId */\n      dup5\n        /* \"FreshChain.sol\":3941:3957  batches[batchId] */\n      dup2\n      mstore\n      0x20\n      add\n      swap1\n      dup2\n      mstore\n      0x20\n      add\n      0x00\n      keccak256\n        /* \"FreshChain.sol\":3941:3974  batches[batchId].passedInspection */\n      0x03\n      add\n      0x15\n        /* \"FreshChain.sol\":3941:3993  batches[batchId].passedInspection = passedInspection */\n      0x0100\n      exp\n      dup2\n      sload\n      dup2\n      0xff\n      mul\n      not\n      and\n      swap1\n      dup4\n      iszero\n      iszero\n      mul\n      or\n      swap1\n      sstore\n      pop\n        /* \"FreshChain.sol\":4011:4050  BatchArrived(batchId, passedInspection) */\n      0x724d0640ccf2a4b2b428dcc054429a8131c2824deb77e5eb5bd21e38454bb0ee\n        /* \"FreshChain.sol\":4024:4031  batchId */\n      dup3\n        /* \"FreshChain.sol\":4033:4049  passedInspection */\n      dup3\n        /* \"FreshChain.sol\":4011:4050  BatchArrived(batchId, passedInspection) */\n      mload(0x40)\n      tag_134\n      swap3\n      swap2\n      swap1\n      tag_135\n      jump\t// in\n    tag_134:\n      mload(0x40)\n      dup1\n      swap2\n      sub\n      swap1\n      log1\n        /* \"FreshChain.sol\":3783:4058  function markAsArrived(uint batchId, bool passedInspection)... */\n      pop\n      pop\n      jump\t// out\n        /* \"FreshChain.sol\":90:110  address public owner */\n    tag_48:\n      0x00\n      0x00\n      swap1\n      sload\n      swap1\n      0x0100\n      exp\n      swap1\n      div\n      0xffffffffffffffffffffffffffffffffffffffff\n      and\n      dup2\n      jump\t// out\n        /* \"FreshChain.sol\":912:953  mapping(address => bool) public retailers */\n    tag_53:\n      mstore(0x20, 0x04)\n      dup1\n      0x00\n      mstore\n      keccak256(0x00, 0x40)\n      0x00\n      swap2\n      pop\n      sload\n      swap1\n      0x0100\n      exp\n      swap1\n      div\n      0xff\n      and\n      dup2\n      jump\t// out\n        /* \"FreshChain.sol\":1280:1374  function registerRetailer(address r) external onlyOwner {... */\n    tag_57:\n        /* \"FreshChain.sol\":232:237  owner */\n      0x00\n      0x00\n      swap1\n      sload\n      swap1\n      0x0100\n      exp\n      swap1\n      div\n      0xffffffffffffffffffffffffffffffffffffffff\n      and\n        /* \"FreshChain.sol\":218:237  msg.sender == owner */\n      0xffffffffffffffffffffffffffffffffffffffff\n      and\n        /* \"FreshChain.sol\":218:228  msg.sender */\n      caller\n        /* \"FreshChain.sol\":218:237  msg.sender == owner */\n      0xffffffffffffffffffffffffffffffffffffffff\n      and\n      eq\n        /* \"FreshChain.sol\":210:251  require(msg.sender == owner, \"Not admin\") */\n      tag_137\n      jumpi\n      mload(0x40)\n      0x08c379a000000000000000000000000000000000000000000000000000000000\n      dup2\n      mstore\n      0x04\n      add\n      tag_138\n      swap1\n      tag_105\n      jump\t// in\n    tag_138:\n      mload(0x40)\n      dup1\n      swap2\n      sub\n      swap1\n      revert\n    tag_137:\n        /* \"FreshChain.sol\":1362:1366  true */\n      0x01\n        /* \"FreshChain.sol\":1347:1356  retailers */\n      0x04\n        /* \"FreshChain.sol\":1347:1359  retailers[r] */\n      0x00\n        /* \"FreshChain.sol\":1357:1358  r */\n      dup4\n        /* \"FreshChain.sol\":1347:1359  retailers[r] */\n      0xffffffffffffffffffffffffffffffffffffffff\n      and\n      0xffffffffffffffffffffffffffffffffffffffff\n      and\n      dup2\n      mstore\n      0x20\n      add\n      swap1\n      dup2\n      mstore\n      0x20\n      add\n      0x00\n      keccak256\n      0x00\n        /* \"FreshChain.sol\":1347:1366  retailers[r] = true */\n      0x0100\n      exp\n      dup2\n      sload\n      dup2\n      0xff\n      mul\n      not\n      and\n      swap1\n      dup4\n      iszero\n      iszero\n      mul\n      or\n      swap1\n      sstore\n      pop\n        /* \"FreshChain.sol\":1280:1374  function registerRetailer(address r) external onlyOwner {... */\n      pop\n      jump\t// out\n        /* \"FreshChain.sol\":1862:1909  mapping(uint => SensorData[]) public sensorLogs */\n    tag_61:\n      mstore(0x20, 0x06)\n      dup2\n      0x00\n      mstore\n      keccak256(0x00, 0x40)\n      dup2\n      dup2\n      sload\n      dup2\n      lt\n      tag_140\n      jumpi\n      0x00\n      dup1\n      revert\n    tag_140:\n      swap1\n      0x00\n      mstore\n      keccak256(0x00, 0x20)\n      swap1\n      0x04\n      mul\n      add\n      0x00\n      swap2\n      pop\n      swap2\n      pop\n      pop\n      dup1\n      0x00\n      add\n      sload\n      swap1\n      dup1\n      0x01\n      add\n      sload\n      swap1\n      dup1\n      0x02\n      add\n      dup1\n      sload\n      tag_142\n      swap1\n      tag_143\n      jump\t// in\n    tag_142:\n      dup1\n      0x1f\n      add\n      0x20\n      dup1\n      swap2\n      div\n      mul\n      0x20\n      add\n      mload(0x40)\n      swap1\n      dup2\n      add\n      0x40\n      mstore\n      dup1\n      swap3\n      swap2\n      swap1\n      dup2\n      dup2\n      mstore\n      0x20\n      add\n      dup3\n      dup1\n      sload\n      tag_144\n      swap1\n      tag_143\n      jump\t// in\n    tag_144:\n      dup1\n      iszero\n      tag_145\n      jumpi\n      dup1\n      0x1f\n      lt\n      tag_146\n      jumpi\n      0x0100\n      dup1\n      dup4\n      sload\n      div\n      mul\n      dup4\n      mstore\n      swap2\n      0x20\n      add\n      swap2\n      jump(tag_145)\n    tag_146:\n      dup3\n      add\n      swap2\n      swap1\n      0x00\n      mstore\n      keccak256(0x00, 0x20)\n      swap1\n    tag_147:\n      dup2\n      sload\n      dup2\n      mstore\n      swap1\n      0x01\n      add\n      swap1\n      0x20\n      add\n      dup1\n      dup4\n      gt\n      tag_147\n      jumpi\n      dup3\n      swap1\n      sub\n      0x1f\n      and\n      dup3\n      add\n      swap2\n    tag_145:\n      pop\n      pop\n      pop\n      pop\n      pop\n      swap1\n      dup1\n      0x03\n      add\n      sload\n      swap1\n      pop\n      dup5\n      jump\t// out\n        /* \"FreshChain.sol\":1818:1855  mapping(uint => Batch) public batches */\n    tag_67:\n      mstore(0x20, 0x05)\n      dup1\n      0x00\n      mstore\n      keccak256(0x00, 0x40)\n      0x00\n      swap2\n      pop\n      swap1\n      pop\n      dup1\n      0x00\n      add\n      sload\n      swap1\n      dup1\n      0x01\n      add\n      dup1\n      sload\n      tag_148\n      swap1\n      tag_143\n      jump\t// in\n    tag_148:\n      dup1\n      0x1f\n      add\n      0x20\n      dup1\n      swap2\n      div\n      mul\n      0x20\n      add\n      mload(0x40)\n      swap1\n      dup2\n      add\n      0x40\n      mstore\n      dup1\n      swap3\n      swap2\n      swap1\n      dup2\n      dup2\n      mstore\n      0x20\n      add\n      dup3\n      dup1\n      sload\n      tag_149\n      swap1\n      tag_143\n      jump\t// in\n    tag_149:\n      dup1\n      iszero\n      tag_150\n      jumpi\n      dup1\n      0x1f\n      lt\n      tag_151\n      jumpi\n      0x0100\n      dup1\n      dup4\n      sload\n      div\n      mul\n      dup4\n      mstore\n      swap2\n      0x20\n      add\n      swap2\n      jump(tag_150)\n    tag_151:\n      dup3\n      add\n      swap2\n      swap1\n      0x00\n      mstore\n      keccak256(0x00, 0x20)\n      swap1\n    tag_152:\n      dup2\n      sload\n      dup2\n      mstore\n      swap1\n      0x01\n      add\n      swap1\n      0x20\n      add\n      dup1\n      dup4\n      gt\n      tag_152\n      jumpi\n      dup3\n      swap1\n      sub\n      0x1f\n      and\n      dup3\n      add\n      swap2\n    tag_150:\n      pop\n      pop\n      pop\n      pop\n      pop\n      swap1\n      dup1\n      0x02\n      add\n      sload\n      swap1\n      dup1\n      0x03\n      add\n      0x00\n      swap1\n      sload\n      swap1\n      0x0100\n      exp\n      swap1\n      div\n      0xffffffffffffffffffffffffffffffffffffffff\n      and\n      swap1\n      dup1\n      0x03\n      add\n      0x14\n      swap1\n      sload\n      swap1\n      0x0100\n      exp\n      swap1\n      div\n      0xff\n      and\n      swap1\n      dup1\n      0x03\n      add\n      0x15\n      swap1\n      sload\n      swap1\n      0x0100\n      exp\n      swap1\n      div\n      0xff\n      and\n      swap1\n      pop\n      dup7\n      jump\t// out\n        /* \"FreshChain.sol\":4102:4441  function getBatchHistory(uint batchId)... */\n    tag_72:\n        /* \"FreshChain.sol\":4203:4215  Batch memory */\n      tag_153\n      tag_154\n      jump\t// in\n    tag_153:\n        /* \"FreshChain.sol\":4230:4249  SensorData[] memory */\n      0x60\n        /* \"FreshChain.sol\":4264:4282  Ownership[] memory */\n      dup1\n        /* \"FreshChain.sol\":4332:4339  batches */\n      0x05\n        /* \"FreshChain.sol\":4332:4348  batches[batchId] */\n      0x00\n        /* \"FreshChain.sol\":4340:4347  batchId */\n      dup6\n        /* \"FreshChain.sol\":4332:4348  batches[batchId] */\n      dup2\n      mstore\n      0x20\n      add\n      swap1\n      dup2\n      mstore\n      0x20\n      add\n      0x00\n      keccak256\n        /* \"FreshChain.sol\":4363:4373  sensorLogs */\n      0x06\n        /* \"FreshChain.sol\":4363:4382  sensorLogs[batchId] */\n      0x00\n        /* \"FreshChain.sol\":4374:4381  batchId */\n      dup7\n        /* \"FreshChain.sol\":4363:4382  sensorLogs[batchId] */\n      dup2\n      mstore\n      0x20\n      add\n      swap1\n      dup2\n      mstore\n      0x20\n      add\n      0x00\n      keccak256\n        /* \"FreshChain.sol\":4397:4413  ownershipHistory */\n      0x07\n        /* \"FreshChain.sol\":4397:4422  ownershipHistory[batchId] */\n      0x00\n        /* \"FreshChain.sol\":4414:4421  batchId */\n      dup8\n        /* \"FreshChain.sol\":4397:4422  ownershipHistory[batchId] */\n      dup2\n      mstore\n      0x20\n      add\n      swap1\n      dup2\n      mstore\n      0x20\n      add\n      0x00\n      keccak256\n        /* \"FreshChain.sol\":4310:4433  return (... */\n      dup3\n      mload(0x40)\n      dup1\n      0xc0\n      add\n      0x40\n      mstore\n      swap1\n      dup2\n      0x00\n      dup3\n      add\n      sload\n      dup2\n      mstore\n      0x20\n      add\n      0x01\n      dup3\n      add\n      dup1\n      sload\n      tag_156\n      swap1\n      tag_143\n      jump\t// in\n    tag_156:\n      dup1\n      0x1f\n      add\n      0x20\n      dup1\n      swap2\n      div\n      mul\n      0x20\n      add\n      mload(0x40)\n      swap1\n      dup2\n      add\n      0x40\n      mstore\n      dup1\n      swap3\n      swap2\n      swap1\n      dup2\n      dup2\n      mstore\n      0x20\n      add\n      dup3\n      dup1\n      sload\n      tag_157\n      swap1\n      tag_143\n      jump\t// in\n    tag_157:\n      dup1\n      iszero\n      tag_158\n      jumpi\n      dup1\n      0x1f\n      lt\n      tag_159\n      jumpi\n      0x0100\n      dup1\n      dup4\n      sload\n      div\n      mul\n      dup4\n      mstore\n      swap2\n      0x20\n      add\n      swap2\n      jump(tag_158)\n    tag_159:\n      dup3\n      add\n      swap2\n      swap1\n      0x00\n      mstore\n      keccak256(0x00, 0x20)\n      swap1\n    tag_160:\n      dup2\n      sload\n      dup2\n      mstore\n      swap1\n      0x01\n      add\n      swap1\n      0x20\n      add\n      dup1\n      dup4\n      gt\n      tag_160\n      jumpi\n      dup3\n      swap1\n      sub\n      0x1f\n      and\n      dup3\n      add\n      swap2\n    tag_158:\n      pop\n      pop\n      pop\n      pop\n      pop\n      dup2\n      mstore\n      0x20\n      add\n      0x02\n      dup3\n      add\n      sload\n      dup2\n      mstore\n      0x20\n      add\n      0x03\n      dup3\n      add\n      0x00\n      swap1\n      sload\n      swap1\n      0x0100\n      exp\n      swap1\n      div\n      0xffffffffffffffffffffffffffffffffffffffff\n      and\n      0xffffffffffffffffffffffffffffffffffffffff\n      and\n      0xffffffffffffffffffffffffffffffffffffffff\n      and\n      dup2\n      mstore\n      0x20\n      add\n      0x03\n      dup3\n      add\n      0x14\n      swap1\n      sload\n      swap1\n      0x0100\n      exp\n      swap1\n      div\n      0xff\n      and\n      iszero\n      iszero\n      iszero\n      iszero\n      dup2\n      mstore\n      0x20\n      add\n      0x03\n      dup3\n      add\n      0x15\n      swap1\n      sload\n      swap1\n      0x0100\n      exp\n      swap1\n      div\n      0xff\n      and\n      iszero\n      iszero\n      iszero\n      iszero\n      dup2\n      mstore\n      pop\n      pop\n      swap3\n      pop\n      dup2\n      dup1\n      sload\n      dup1\n      0x20\n      mul\n      0x20\n      add\n      mload(0x40)\n      swap1\n      dup2\n      add\n      0x40\n      mstore\n      dup1\n      swap3\n      swap2\n      swap1\n      dup2\n      dup2\n      mstore\n      0x20\n      add\n      0x00\n      swap1\n    tag_161:\n      dup3\n      dup3\n      lt\n      iszero\n      tag_162\n      jumpi\n      dup4\n      dup3\n      swap1\n      0x00\n      mstore\n      keccak256(0x00, 0x20)\n      swap1\n      0x04\n      mul\n      add\n      mload(0x40)\n      dup1\n      0x80\n      add\n      0x40\n      mstore\n      swap1\n      dup2\n      0x00\n      dup3\n      add\n      sload\n      dup2\n      mstore\n      0x20\n      add\n      0x01\n      dup3\n      add\n      sload\n      dup2\n      mstore\n      0x20\n      add\n      0x02\n      dup3\n      add\n      dup1\n      sload\n      tag_164\n      swap1\n      tag_143\n      jump\t// in\n    tag_164:\n      dup1\n      0x1f\n      add\n      0x20\n      dup1\n      swap2\n      div\n      mul\n      0x20\n      add\n      mload(0x40)\n      swap1\n      dup2\n      add\n      0x40\n      mstore\n      dup1\n      swap3\n      swap2\n      swap1\n      dup2\n      dup2\n      mstore\n      0x20\n      add\n      dup3\n      dup1\n      sload\n      tag_165\n      swap1\n      tag_143\n      jump\t// in\n    tag_165:\n      dup1\n      iszero\n      tag_166\n      jumpi\n      dup1\n      0x1f\n      lt\n      tag_167\n      jumpi\n      0x0100\n      dup1\n      dup4\n      sload\n      div\n      mul\n      dup4\n      mstore\n      swap2\n      0x20\n      add\n      swap2\n      jump(tag_166)\n    tag_167:\n      dup3\n      add\n      swap2\n      swap1\n      0x00\n      mstore\n      keccak256(0x00, 0x20)\n      swap1\n    tag_168:\n      dup2\n      sload\n      dup2\n      mstore\n      swap1\n      0x01\n      add\n      swap1\n      0x20\n      add\n      dup1\n      dup4\n      gt\n      tag_168\n      jumpi\n      dup3\n      swap1\n      sub\n      0x1f\n      and\n      dup3\n      add\n      swap2\n    tag_166:\n      pop\n      pop\n      pop\n      pop\n      pop\n      dup2\n      mstore\n      0x20\n      add\n      0x03\n      dup3\n      add\n      sload\n      dup2\n      mstore\n      pop\n      pop\n      dup2\n      mstore\n      0x20\n      add\n      swap1\n      0x01\n      add\n      swap1\n      jump(tag_161)\n    tag_162:\n      pop\n      pop\n      pop\n      pop\n      swap2\n      pop\n      dup1\n      dup1\n      sload\n      dup1\n      0x20\n      mul\n      0x20\n      add\n      mload(0x40)\n      swap1\n      dup2\n      add\n      0x40\n      mstore\n      dup1\n      swap3\n      swap2\n      swap1\n      dup2\n      dup2\n      mstore\n      0x20\n      add\n      0x00\n      swap1\n    tag_169:\n      dup3\n      dup3\n      lt\n      iszero\n      tag_170\n      jumpi\n      dup4\n      dup3\n      swap1\n      0x00\n      mstore\n      keccak256(0x00, 0x20)\n      swap1\n      0x02\n      mul\n      add\n      mload(0x40)\n      dup1\n      0x40\n      add\n      0x40\n      mstore\n      swap1\n      dup2\n      0x00\n      dup3\n      add\n      0x00\n      swap1\n      sload\n      swap1\n      0x0100\n      exp\n      swap1\n      div\n      0xffffffffffffffffffffffffffffffffffffffff\n      and\n      0xffffffffffffffffffffffffffffffffffffffff\n      and\n      0xffffffffffffffffffffffffffffffffffffffff\n      and\n      dup2\n      mstore\n      0x20\n      add\n      0x01\n      dup3\n      add\n      sload\n      dup2\n      mstore\n      pop\n      pop\n      dup2\n      mstore\n      0x20\n      add\n      swap1\n      0x01\n      add\n      swap1\n      jump(tag_169)\n    tag_170:\n      pop\n      pop\n      pop\n      pop\n      swap1\n      pop\n      swap3\n      pop\n      swap3\n      pop\n      swap3\n      pop\n        /* \"FreshChain.sol\":4102:4441  function getBatchHistory(uint batchId)... */\n      swap2\n      swap4\n      swap1\n      swap3\n      pop\n      jump\t// out\n        /* \"FreshChain.sol\":1916:1968  mapping(uint => Ownership[]) public ownershipHistory */\n    tag_77:\n      mstore(0x20, 0x07)\n      dup2\n      0x00\n      mstore\n      keccak256(0x00, 0x40)\n      dup2\n      dup2\n      sload\n      dup2\n      lt\n      tag_172\n      jumpi\n      0x00\n      dup1\n      revert\n    tag_172:\n      swap1\n      0x00\n      mstore\n      keccak256(0x00, 0x20)\n      swap1\n      0x02\n      mul\n      add\n      0x00\n      swap2\n      pop\n      swap2\n      pop\n      pop\n      dup1\n      0x00\n      add\n      0x00\n      swap1\n      sload\n      swap1\n      0x0100\n      exp\n      swap1\n      div\n      0xffffffffffffffffffffffffffffffffffffffff\n      and\n      swap1\n      dup1\n      0x01\n      add\n      sload\n      swap1\n      pop\n      dup3\n      jump\t// out\n        /* \"FreshChain.sol\":861:905  mapping(address => bool) public distributors */\n    tag_82:\n      mstore(0x20, 0x03)\n      dup1\n      0x00\n      mstore\n      keccak256(0x00, 0x40)\n      0x00\n      swap2\n      pop\n      sload\n      swap1\n      0x0100\n      exp\n      swap1\n      div\n      0xff\n      and\n      dup2\n      jump\t// out\n        /* \"FreshChain.sol\":810:854  mapping(address => bool) public transporters */\n    tag_86:\n      mstore(0x20, 0x02)\n      dup1\n      0x00\n      mstore\n      keccak256(0x00, 0x40)\n      0x00\n      swap2\n      pop\n      sload\n      swap1\n      0x0100\n      exp\n      swap1\n      div\n      0xff\n      and\n      dup2\n      jump\t// out\n        /* \"FreshChain.sol\":2302:2861  function createBatch(... */\n    tag_91:\n        /* \"FreshChain.sol\":322:331  producers */\n      0x01\n        /* \"FreshChain.sol\":322:343  producers[msg.sender] */\n      0x00\n        /* \"FreshChain.sol\":332:342  msg.sender */\n      caller\n        /* \"FreshChain.sol\":322:343  producers[msg.sender] */\n      0xffffffffffffffffffffffffffffffffffffffff\n      and\n      0xffffffffffffffffffffffffffffffffffffffff\n      and\n      dup2\n      mstore\n      0x20\n      add\n      swap1\n      dup2\n      mstore\n      0x20\n      add\n      0x00\n      keccak256\n      0x00\n      swap1\n      sload\n      swap1\n      0x0100\n      exp\n      swap1\n      div\n      0xff\n      and\n        /* \"FreshChain.sol\":314:360  require(producers[msg.sender], \"Not producer\") */\n      tag_175\n      jumpi\n      mload(0x40)\n      0x08c379a000000000000000000000000000000000000000000000000000000000\n      dup2\n      mstore\n      0x04\n      add\n      tag_176\n      swap1\n      tag_177\n      jump\t// in\n    tag_176:\n      mload(0x40)\n      dup1\n      swap2\n      sub\n      swap1\n      revert\n    tag_175:\n        /* \"FreshChain.sol\":2482:2483  0 */\n      0x00\n        /* \"FreshChain.sol\":2454:2461  batches */\n      0x05\n        /* \"FreshChain.sol\":2454:2470  batches[batchId] */\n      0x00\n        /* \"FreshChain.sol\":2462:2469  batchId */\n      dup6\n        /* \"FreshChain.sol\":2454:2470  batches[batchId] */\n      dup2\n      mstore\n      0x20\n      add\n      swap1\n      dup2\n      mstore\n      0x20\n      add\n      0x00\n      keccak256\n        /* \"FreshChain.sol\":2454:2478  batches[batchId].batchId */\n      0x00\n      add\n      sload\n        /* \"FreshChain.sol\":2454:2483  batches[batchId].batchId == 0 */\n      eq\n        /* \"FreshChain.sol\":2446:2500  require(batches[batchId].batchId == 0, \"Batch exists\") */\n      tag_179\n      jumpi\n      mload(0x40)\n      0x08c379a000000000000000000000000000000000000000000000000000000000\n      dup2\n      mstore\n      0x04\n      add\n      tag_180\n      swap1\n      tag_181\n      jump\t// in\n    tag_180:\n      mload(0x40)\n      dup1\n      swap2\n      sub\n      swap1\n      revert\n    tag_179:\n        /* \"FreshChain.sol\":2532:2684  Batch(... */\n      mload(0x40)\n      dup1\n      0xc0\n      add\n      0x40\n      mstore\n      dup1\n        /* \"FreshChain.sol\":2552:2559  batchId */\n      dup5\n        /* \"FreshChain.sol\":2532:2684  Batch(... */\n      dup2\n      mstore\n      0x20\n      add\n        /* \"FreshChain.sol\":2574:2585  productName */\n      dup4\n        /* \"FreshChain.sol\":2532:2684  Batch(... */\n      dup2\n      mstore\n      0x20\n      add\n        /* \"FreshChain.sol\":2600:2608  quantity */\n      dup3\n        /* \"FreshChain.sol\":2532:2684  Batch(... */\n      dup2\n      mstore\n      0x20\n      add\n        /* \"FreshChain.sol\":2623:2633  msg.sender */\n      caller\n        /* \"FreshChain.sol\":2532:2684  Batch(... */\n      0xffffffffffffffffffffffffffffffffffffffff\n      and\n      dup2\n      mstore\n      0x20\n      add\n        /* \"FreshChain.sol\":2648:2653  false */\n      0x00\n        /* \"FreshChain.sol\":2532:2684  Batch(... */\n      iszero\n      iszero\n      dup2\n      mstore\n      0x20\n      add\n        /* \"FreshChain.sol\":2668:2673  false */\n      0x00\n        /* \"FreshChain.sol\":2532:2684  Batch(... */\n      iszero\n      iszero\n      dup2\n      mstore\n      pop\n        /* \"FreshChain.sol\":2513:2520  batches */\n      0x05\n        /* \"FreshChain.sol\":2513:2529  batches[batchId] */\n      0x00\n        /* \"FreshChain.sol\":2521:2528  batchId */\n      dup6\n        /* \"FreshChain.sol\":2513:2529  batches[batchId] */\n      dup2\n      mstore\n      0x20\n      add\n      swap1\n      dup2\n      mstore\n      0x20\n      add\n      0x00\n      keccak256\n        /* \"FreshChain.sol\":2513:2684  batches[batchId] = Batch(... */\n      0x00\n      dup3\n      add\n      mload\n      dup2\n      0x00\n      add\n      sstore\n      0x20\n      dup3\n      add\n      mload\n      dup2\n      0x01\n      add\n      swap1\n      dup2\n      tag_182\n      swap2\n      swap1\n      tag_122\n      jump\t// in\n    tag_182:\n      pop\n      0x40\n      dup3\n      add\n      mload\n      dup2\n      0x02\n      add\n      sstore\n      0x60\n      dup3\n      add\n      mload\n      dup2\n      0x03\n      add\n      exp(0x0100, 0x00)\n      dup2\n      sload\n      dup2\n      0xffffffffffffffffffffffffffffffffffffffff\n      mul\n      not\n      and\n      swap1\n      dup4\n      0xffffffffffffffffffffffffffffffffffffffff\n      and\n      mul\n      or\n      swap1\n      sstore\n      pop\n      0x80\n      dup3\n      add\n      mload\n      dup2\n      0x03\n      add\n      exp(0x0100, 0x14)\n      dup2\n      sload\n      dup2\n      0xff\n      mul\n      not\n      and\n      swap1\n      dup4\n      iszero\n      iszero\n      mul\n      or\n      swap1\n      sstore\n      pop\n      0xa0\n      dup3\n      add\n      mload\n      dup2\n      0x03\n      add\n      exp(0x0100, 0x15)\n      dup2\n      sload\n      dup2\n      0xff\n      mul\n      not\n      and\n      swap1\n      dup4\n      iszero\n      iszero\n      mul\n      or\n      swap1\n      sstore\n      pop\n      swap1\n      pop\n      pop\n        /* \"FreshChain.sol\":2697:2713  ownershipHistory */\n      0x07\n        /* \"FreshChain.sol\":2697:2722  ownershipHistory[batchId] */\n      0x00\n        /* \"FreshChain.sol\":2714:2721  batchId */\n      dup5\n        /* \"FreshChain.sol\":2697:2722  ownershipHistory[batchId] */\n      dup2\n      mstore\n      0x20\n      add\n      swap1\n      dup2\n      mstore\n      0x20\n      add\n      0x00\n      keccak256\n        /* \"FreshChain.sol\":2742:2780  Ownership(msg.sender, block.timestamp) */\n      mload(0x40)\n      dup1\n      0x40\n      add\n      0x40\n      mstore\n      dup1\n        /* \"FreshChain.sol\":2752:2762  msg.sender */\n      caller\n        /* \"FreshChain.sol\":2742:2780  Ownership(msg.sender, block.timestamp) */\n      0xffffffffffffffffffffffffffffffffffffffff\n      and\n      dup2\n      mstore\n      0x20\n      add\n        /* \"FreshChain.sol\":2764:2779  block.timestamp */\n      timestamp\n        /* \"FreshChain.sol\":2742:2780  Ownership(msg.sender, block.timestamp) */\n      dup2\n      mstore\n      pop\n        /* \"FreshChain.sol\":2697:2791  ownershipHistory[batchId].push(... */\n      swap1\n      dup1\n      0x01\n      dup2\n      sload\n      add\n      dup1\n      dup3\n      sstore\n      dup1\n      swap2\n      pop\n      pop\n      0x01\n      swap1\n      sub\n      swap1\n      0x00\n      mstore\n      keccak256(0x00, 0x20)\n      swap1\n      0x02\n      mul\n      add\n      0x00\n      swap1\n      swap2\n      swap1\n      swap2\n      swap1\n      swap2\n      pop\n      0x00\n      dup3\n      add\n      mload\n      dup2\n      0x00\n      add\n      exp(0x0100, 0x00)\n      dup2\n      sload\n      dup2\n      0xffffffffffffffffffffffffffffffffffffffff\n      mul\n      not\n      and\n      swap1\n      dup4\n      0xffffffffffffffffffffffffffffffffffffffff\n      and\n      mul\n      or\n      swap1\n      sstore\n      pop\n      0x20\n      dup3\n      add\n      mload\n      dup2\n      0x01\n      add\n      sstore\n      pop\n      pop\n        /* \"FreshChain.sol\":2809:2853  BatchCreated(batchId, productName, quantity) */\n      0x58c168780de5fc719a1e7a85c7eca394e664c0e74b7c9ebc621f0b093112d04b\n        /* \"FreshChain.sol\":2822:2829  batchId */\n      dup4\n        /* \"FreshChain.sol\":2831:2842  productName */\n      dup4\n        /* \"FreshChain.sol\":2844:2852  quantity */\n      dup4\n        /* \"FreshChain.sol\":2809:2853  BatchCreated(batchId, productName, quantity) */\n      mload(0x40)\n      tag_184\n      swap4\n      swap3\n      swap2\n      swap1\n      tag_185\n      jump\t// in\n    tag_184:\n      mload(0x40)\n      dup1\n      swap2\n      sub\n      swap1\n      log1\n        /* \"FreshChain.sol\":2302:2861  function createBatch(... */\n      pop\n      pop\n      pop\n      jump\t// out\n        /* \"FreshChain.sol\":1064:1164  function registerTransporter(address t) external onlyOwner {... */\n    tag_94:\n        /* \"FreshChain.sol\":232:237  owner */\n      0x00\n      0x00\n      swap1\n      sload\n      swap1\n      0x0100\n      exp\n      swap1\n      div\n      0xffffffffffffffffffffffffffffffffffffffff\n      and\n        /* \"FreshChain.sol\":218:237  msg.sender == owner */\n      0xffffffffffffffffffffffffffffffffffffffff\n      and\n        /* \"FreshChain.sol\":218:228  msg.sender */\n      caller\n        /* \"FreshChain.sol\":218:237  msg.sender == owner */\n      0xffffffffffffffffffffffffffffffffffffffff\n      and\n      eq\n        /* \"FreshChain.sol\":210:251  require(msg.sender == owner, \"Not admin\") */\n      tag_187\n      jumpi\n      mload(0x40)\n      0x08c379a000000000000000000000000000000000000000000000000000000000\n      dup2\n      mstore\n      0x04\n      add\n      tag_188\n      swap1\n      tag_105\n      jump\t// in\n    tag_188:\n      mload(0x40)\n      dup1\n      swap2\n      sub\n      swap1\n      revert\n    tag_187:\n        /* \"FreshChain.sol\":1152:1156  true */\n      0x01\n        /* \"FreshChain.sol\":1134:1146  transporters */\n      0x02\n        /* \"FreshChain.sol\":1134:1149  transporters[t] */\n      0x00\n        /* \"FreshChain.sol\":1147:1148  t */\n      dup4\n        /* \"FreshChain.sol\":1134:1149  transporters[t] */\n      0xffffffffffffffffffffffffffffffffffffffff\n      and\n      0xffffffffffffffffffffffffffffffffffffffff\n      and\n      dup2\n      mstore\n      0x20\n      add\n      swap1\n      dup2\n      mstore\n      0x20\n      add\n      0x00\n      keccak256\n      0x00\n        /* \"FreshChain.sol\":1134:1156  transporters[t] = true */\n      0x0100\n      exp\n      dup2\n      sload\n      dup2\n      0xff\n      mul\n      not\n      and\n      swap1\n      dup4\n      iszero\n      iszero\n      mul\n      or\n      swap1\n      sstore\n      pop\n        /* \"FreshChain.sol\":1064:1164  function registerTransporter(address t) external onlyOwner {... */\n      pop\n      jump\t// out\n    tag_154:\n      mload(0x40)\n      dup1\n      0xc0\n      add\n      0x40\n      mstore\n      dup1\n      0x00\n      dup2\n      mstore\n      0x20\n      add\n      0x60\n      dup2\n      mstore\n      0x20\n      add\n      0x00\n      dup2\n      mstore\n      0x20\n      add\n      and(0xffffffffffffffffffffffffffffffffffffffff, 0x00)\n      dup2\n      mstore\n      0x20\n      add\n      iszero(iszero(0x00))\n      dup2\n      mstore\n      0x20\n      add\n      iszero(iszero(0x00))\n      dup2\n      mstore\n      pop\n      swap1\n      jump\t// out\n        /* \"#utility.yul\":7:82   */\n    tag_190:\n        /* \"#utility.yul\":40:46   */\n      0x00\n        /* \"#utility.yul\":73:75   */\n      0x40\n        /* \"#utility.yul\":67:76   */\n      mload\n        /* \"#utility.yul\":57:76   */\n      swap1\n      pop\n        /* \"#utility.yul\":7:82   */\n      swap1\n      jump\t// out\n        /* \"#utility.yul\":88:205   */\n    tag_191:\n        /* \"#utility.yul\":197:198   */\n      0x00\n        /* \"#utility.yul\":194:195   */\n      0x00\n        /* \"#utility.yul\":187:199   */\n      revert\n        /* \"#utility.yul\":211:328   */\n    tag_192:\n        /* \"#utility.yul\":320:321   */\n      0x00\n        /* \"#utility.yul\":317:318   */\n      0x00\n        /* \"#utility.yul\":310:322   */\n      revert\n        /* \"#utility.yul\":334:460   */\n    tag_193:\n        /* \"#utility.yul\":371:378   */\n      0x00\n        /* \"#utility.yul\":411:453   */\n      0xffffffffffffffffffffffffffffffffffffffff\n        /* \"#utility.yul\":404:409   */\n      dup3\n        /* \"#utility.yul\":400:454   */\n      and\n        /* \"#utility.yul\":389:454   */\n      swap1\n      pop\n        /* \"#utility.yul\":334:460   */\n      swap2\n      swap1\n      pop\n      jump\t// out\n        /* \"#utility.yul\":466:562   */\n    tag_194:\n        /* \"#utility.yul\":503:510   */\n      0x00\n        /* \"#utility.yul\":532:556   */\n      tag_283\n        /* \"#utility.yul\":550:555   */\n      dup3\n        /* \"#utility.yul\":532:556   */\n      tag_193\n      jump\t// in\n    tag_283:\n        /* \"#utility.yul\":521:556   */\n      swap1\n      pop\n        /* \"#utility.yul\":466:562   */\n      swap2\n      swap1\n      pop\n      jump\t// out\n        /* \"#utility.yul\":568:690   */\n    tag_195:\n        /* \"#utility.yul\":641:665   */\n      tag_285\n        /* \"#utility.yul\":659:664   */\n      dup2\n        /* \"#utility.yul\":641:665   */\n      tag_194\n      jump\t// in\n    tag_285:\n        /* \"#utility.yul\":634:639   */\n      dup2\n        /* \"#utility.yul\":631:666   */\n      eq\n        /* \"#utility.yul\":621:684   */\n      tag_286\n      jumpi\n        /* \"#utility.yul\":680:681   */\n      0x00\n        /* \"#utility.yul\":677:678   */\n      0x00\n        /* \"#utility.yul\":670:682   */\n      revert\n        /* \"#utility.yul\":621:684   */\n    tag_286:\n        /* \"#utility.yul\":568:690   */\n      pop\n      jump\t// out\n        /* \"#utility.yul\":696:835   */\n    tag_196:\n        /* \"#utility.yul\":742:747   */\n      0x00\n        /* \"#utility.yul\":780:786   */\n      dup2\n        /* \"#utility.yul\":767:787   */\n      calldataload\n        /* \"#utility.yul\":758:787   */\n      swap1\n      pop\n        /* \"#utility.yul\":796:829   */\n      tag_288\n        /* \"#utility.yul\":823:828   */\n      dup2\n        /* \"#utility.yul\":796:829   */\n      tag_195\n      jump\t// in\n    tag_288:\n        /* \"#utility.yul\":696:835   */\n      swap3\n      swap2\n      pop\n      pop\n      jump\t// out\n        /* \"#utility.yul\":841:1170   */\n    tag_25:\n        /* \"#utility.yul\":900:906   */\n      0x00\n        /* \"#utility.yul\":949:951   */\n      0x20\n        /* \"#utility.yul\":937:946   */\n      dup3\n        /* \"#utility.yul\":928:935   */\n      dup5\n        /* \"#utility.yul\":924:947   */\n      sub\n        /* \"#utility.yul\":920:952   */\n      slt\n        /* \"#utility.yul\":917:1036   */\n      iszero\n      tag_290\n      jumpi\n        /* \"#utility.yul\":955:1034   */\n      tag_291\n      tag_191\n      jump\t// in\n    tag_291:\n        /* \"#utility.yul\":917:1036   */\n    tag_290:\n        /* \"#utility.yul\":1075:1076   */\n      0x00\n        /* \"#utility.yul\":1100:1153   */\n      tag_292\n        /* \"#utility.yul\":1145:1152   */\n      dup5\n        /* \"#utility.yul\":1136:1142   */\n      dup3\n        /* \"#utility.yul\":1125:1134   */\n      dup6\n        /* \"#utility.yul\":1121:1143   */\n      add\n        /* \"#utility.yul\":1100:1153   */\n      tag_196\n      jump\t// in\n    tag_292:\n        /* \"#utility.yul\":1090:1153   */\n      swap2\n      pop\n        /* \"#utility.yul\":1046:1163   */\n      pop\n        /* \"#utility.yul\":841:1170   */\n      swap3\n      swap2\n      pop\n      pop\n      jump\t// out\n        /* \"#utility.yul\":1176:1266   */\n    tag_197:\n        /* \"#utility.yul\":1210:1217   */\n      0x00\n        /* \"#utility.yul\":1253:1258   */\n      dup2\n        /* \"#utility.yul\":1246:1259   */\n      iszero\n        /* \"#utility.yul\":1239:1260   */\n      iszero\n        /* \"#utility.yul\":1228:1260   */\n      swap1\n      pop\n        /* \"#utility.yul\":1176:1266   */\n      swap2\n      swap1\n      pop\n      jump\t// out\n        /* \"#utility.yul\":1272:1381   */\n    tag_198:\n        /* \"#utility.yul\":1353:1374   */\n      tag_295\n        /* \"#utility.yul\":1368:1373   */\n      dup2\n        /* \"#utility.yul\":1353:1374   */\n      tag_197\n      jump\t// in\n    tag_295:\n        /* \"#utility.yul\":1348:1351   */\n      dup3\n        /* \"#utility.yul\":1341:1375   */\n      mstore\n        /* \"#utility.yul\":1272:1381   */\n      pop\n      pop\n      jump\t// out\n        /* \"#utility.yul\":1387:1597   */\n    tag_28:\n        /* \"#utility.yul\":1474:1478   */\n      0x00\n        /* \"#utility.yul\":1512:1514   */\n      0x20\n        /* \"#utility.yul\":1501:1510   */\n      dup3\n        /* \"#utility.yul\":1497:1515   */\n      add\n        /* \"#utility.yul\":1489:1515   */\n      swap1\n      pop\n        /* \"#utility.yul\":1525:1590   */\n      tag_297\n        /* \"#utility.yul\":1587:1588   */\n      0x00\n        /* \"#utility.yul\":1576:1585   */\n      dup4\n        /* \"#utility.yul\":1572:1589   */\n      add\n        /* \"#utility.yul\":1563:1569   */\n      dup5\n        /* \"#utility.yul\":1525:1590   */\n      tag_198\n      jump\t// in\n    tag_297:\n        /* \"#utility.yul\":1387:1597   */\n      swap3\n      swap2\n      pop\n      pop\n      jump\t// out\n        /* \"#utility.yul\":1603:1680   */\n    tag_199:\n        /* \"#utility.yul\":1640:1647   */\n      0x00\n        /* \"#utility.yul\":1669:1674   */\n      dup2\n        /* \"#utility.yul\":1658:1674   */\n      swap1\n      pop\n        /* \"#utility.yul\":1603:1680   */\n      swap2\n      swap1\n      pop\n      jump\t// out\n        /* \"#utility.yul\":1686:1808   */\n    tag_200:\n        /* \"#utility.yul\":1759:1783   */\n      tag_300\n        /* \"#utility.yul\":1777:1782   */\n      dup2\n        /* \"#utility.yul\":1759:1783   */\n      tag_199\n      jump\t// in\n    tag_300:\n        /* \"#utility.yul\":1752:1757   */\n      dup2\n        /* \"#utility.yul\":1749:1784   */\n      eq\n        /* \"#utility.yul\":1739:1802   */\n      tag_301\n      jumpi\n        /* \"#utility.yul\":1798:1799   */\n      0x00\n        /* \"#utility.yul\":1795:1796   */\n      0x00\n        /* \"#utility.yul\":1788:1800   */\n      revert\n        /* \"#utility.yul\":1739:1802   */\n    tag_301:\n        /* \"#utility.yul\":1686:1808   */\n      pop\n      jump\t// out\n        /* \"#utility.yul\":1814:1953   */\n    tag_201:\n        /* \"#utility.yul\":1860:1865   */\n      0x00\n        /* \"#utility.yul\":1898:1904   */\n      dup2\n        /* \"#utility.yul\":1885:1905   */\n      calldataload\n        /* \"#utility.yul\":1876:1905   */\n      swap1\n      pop\n        /* \"#utility.yul\":1914:1947   */\n      tag_303\n        /* \"#utility.yul\":1941:1946   */\n      dup2\n        /* \"#utility.yul\":1914:1947   */\n      tag_200\n      jump\t// in\n    tag_303:\n        /* \"#utility.yul\":1814:1953   */\n      swap3\n      swap2\n      pop\n      pop\n      jump\t// out\n        /* \"#utility.yul\":1959:2433   */\n    tag_31:\n        /* \"#utility.yul\":2027:2033   */\n      0x00\n        /* \"#utility.yul\":2035:2041   */\n      0x00\n        /* \"#utility.yul\":2084:2086   */\n      0x40\n        /* \"#utility.yul\":2072:2081   */\n      dup4\n        /* \"#utility.yul\":2063:2070   */\n      dup6\n        /* \"#utility.yul\":2059:2082   */\n      sub\n        /* \"#utility.yul\":2055:2087   */\n      slt\n        /* \"#utility.yul\":2052:2171   */\n      iszero\n      tag_305\n      jumpi\n        /* \"#utility.yul\":2090:2169   */\n      tag_306\n      tag_191\n      jump\t// in\n    tag_306:\n        /* \"#utility.yul\":2052:2171   */\n    tag_305:\n        /* \"#utility.yul\":2210:2211   */\n      0x00\n        /* \"#utility.yul\":2235:2288   */\n      tag_307\n        /* \"#utility.yul\":2280:2287   */\n      dup6\n        /* \"#utility.yul\":2271:2277   */\n      dup3\n        /* \"#utility.yul\":2260:2269   */\n      dup7\n        /* \"#utility.yul\":2256:2278   */\n      add\n        /* \"#utility.yul\":2235:2288   */\n      tag_201\n      jump\t// in\n    tag_307:\n        /* \"#utility.yul\":2225:2288   */\n      swap3\n      pop\n        /* \"#utility.yul\":2181:2298   */\n      pop\n        /* \"#utility.yul\":2337:2339   */\n      0x20\n        /* \"#utility.yul\":2363:2416   */\n      tag_308\n        /* \"#utility.yul\":2408:2415   */\n      dup6\n        /* \"#utility.yul\":2399:2405   */\n      dup3\n        /* \"#utility.yul\":2388:2397   */\n      dup7\n        /* \"#utility.yul\":2384:2406   */\n      add\n        /* \"#utility.yul\":2363:2416   */\n      tag_196\n      jump\t// in\n    tag_308:\n        /* \"#utility.yul\":2353:2416   */\n      swap2\n      pop\n        /* \"#utility.yul\":2308:2426   */\n      pop\n        /* \"#utility.yul\":1959:2433   */\n      swap3\n      pop\n      swap3\n      swap1\n      pop\n      jump\t// out\n        /* \"#utility.yul\":2439:2515   */\n    tag_202:\n        /* \"#utility.yul\":2475:2482   */\n      0x00\n        /* \"#utility.yul\":2504:2509   */\n      dup2\n        /* \"#utility.yul\":2493:2509   */\n      swap1\n      pop\n        /* \"#utility.yul\":2439:2515   */\n      swap2\n      swap1\n      pop\n      jump\t// out\n        /* \"#utility.yul\":2521:2641   */\n    tag_203:\n        /* \"#utility.yul\":2593:2616   */\n      tag_311\n        /* \"#utility.yul\":2610:2615   */\n      dup2\n        /* \"#utility.yul\":2593:2616   */\n      tag_202\n      jump\t// in\n    tag_311:\n        /* \"#utility.yul\":2586:2591   */\n      dup2\n        /* \"#utility.yul\":2583:2617   */\n      eq\n        /* \"#utility.yul\":2573:2635   */\n      tag_312\n      jumpi\n        /* \"#utility.yul\":2631:2632   */\n      0x00\n        /* \"#utility.yul\":2628:2629   */\n      0x00\n        /* \"#utility.yul\":2621:2633   */\n      revert\n        /* \"#utility.yul\":2573:2635   */\n    tag_312:\n        /* \"#utility.yul\":2521:2641   */\n      pop\n      jump\t// out\n        /* \"#utility.yul\":2647:2784   */\n    tag_204:\n        /* \"#utility.yul\":2692:2697   */\n      0x00\n        /* \"#utility.yul\":2730:2736   */\n      dup2\n        /* \"#utility.yul\":2717:2737   */\n      calldataload\n        /* \"#utility.yul\":2708:2737   */\n      swap1\n      pop\n        /* \"#utility.yul\":2746:2778   */\n      tag_314\n        /* \"#utility.yul\":2772:2777   */\n      dup2\n        /* \"#utility.yul\":2746:2778   */\n      tag_203\n      jump\t// in\n    tag_314:\n        /* \"#utility.yul\":2647:2784   */\n      swap3\n      swap2\n      pop\n      pop\n      jump\t// out\n        /* \"#utility.yul\":2790:2907   */\n    tag_205:\n        /* \"#utility.yul\":2899:2900   */\n      0x00\n        /* \"#utility.yul\":2896:2897   */\n      0x00\n        /* \"#utility.yul\":2889:2901   */\n      revert\n        /* \"#utility.yul\":2913:3030   */\n    tag_206:\n        /* \"#utility.yul\":3022:3023   */\n      0x00\n        /* \"#utility.yul\":3019:3020   */\n      0x00\n        /* \"#utility.yul\":3012:3024   */\n      revert\n        /* \"#utility.yul\":3036:3138   */\n    tag_207:\n        /* \"#utility.yul\":3077:3083   */\n      0x00\n        /* \"#utility.yul\":3128:3130   */\n      0x1f\n        /* \"#utility.yul\":3124:3131   */\n      not\n        /* \"#utility.yul\":3119:3121   */\n      0x1f\n        /* \"#utility.yul\":3112:3117   */\n      dup4\n        /* \"#utility.yul\":3108:3122   */\n      add\n        /* \"#utility.yul\":3104:3132   */\n      and\n        /* \"#utility.yul\":3094:3132   */\n      swap1\n      pop\n        /* \"#utility.yul\":3036:3138   */\n      swap2\n      swap1\n      pop\n      jump\t// out\n        /* \"#utility.yul\":3144:3324   */\n    tag_208:\n        /* \"#utility.yul\":3192:3269   */\n      0x4e487b7100000000000000000000000000000000000000000000000000000000\n        /* \"#utility.yul\":3189:3190   */\n      0x00\n        /* \"#utility.yul\":3182:3270   */\n      mstore\n        /* \"#utility.yul\":3289:3293   */\n      0x41\n        /* \"#utility.yul\":3286:3287   */\n      0x04\n        /* \"#utility.yul\":3279:3294   */\n      mstore\n        /* \"#utility.yul\":3313:3317   */\n      0x24\n        /* \"#utility.yul\":3310:3311   */\n      0x00\n        /* \"#utility.yul\":3303:3318   */\n      revert\n        /* \"#utility.yul\":3330:3611   */\n    tag_209:\n        /* \"#utility.yul\":3413:3440   */\n      tag_320\n        /* \"#utility.yul\":3435:3439   */\n      dup3\n        /* \"#utility.yul\":3413:3440   */\n      tag_207\n      jump\t// in\n    tag_320:\n        /* \"#utility.yul\":3405:3411   */\n      dup2\n        /* \"#utility.yul\":3401:3441   */\n      add\n        /* \"#utility.yul\":3543:3549   */\n      dup2\n        /* \"#utility.yul\":3531:3541   */\n      dup2\n        /* \"#utility.yul\":3528:3550   */\n      lt\n        /* \"#utility.yul\":3507:3525   */\n      0xffffffffffffffff\n        /* \"#utility.yul\":3495:3505   */\n      dup3\n        /* \"#utility.yul\":3492:3526   */\n      gt\n        /* \"#utility.yul\":3489:3551   */\n      or\n        /* \"#utility.yul\":3486:3574   */\n      iszero\n      tag_321\n      jumpi\n        /* \"#utility.yul\":3554:3572   */\n      tag_322\n      tag_208\n      jump\t// in\n    tag_322:\n        /* \"#utility.yul\":3486:3574   */\n    tag_321:\n        /* \"#utility.yul\":3594:3604   */\n      dup1\n        /* \"#utility.yul\":3590:3592   */\n      0x40\n        /* \"#utility.yul\":3583:3605   */\n      mstore\n        /* \"#utility.yul\":3373:3611   */\n      pop\n        /* \"#utility.yul\":3330:3611   */\n      pop\n      pop\n      jump\t// out\n        /* \"#utility.yul\":3617:3746   */\n    tag_210:\n        /* \"#utility.yul\":3651:3657   */\n      0x00\n        /* \"#utility.yul\":3678:3698   */\n      tag_324\n      tag_190\n      jump\t// in\n    tag_324:\n        /* \"#utility.yul\":3668:3698   */\n      swap1\n      pop\n        /* \"#utility.yul\":3707:3740   */\n      tag_325\n        /* \"#utility.yul\":3735:3739   */\n      dup3\n        /* \"#utility.yul\":3727:3733   */\n      dup3\n        /* \"#utility.yul\":3707:3740   */\n      tag_209\n      jump\t// in\n    tag_325:\n        /* \"#utility.yul\":3617:3746   */\n      swap2\n      swap1\n      pop\n      jump\t// out\n        /* \"#utility.yul\":3752:4060   */\n    tag_211:\n        /* \"#utility.yul\":3814:3818   */\n      0x00\n        /* \"#utility.yul\":3904:3922   */\n      0xffffffffffffffff\n        /* \"#utility.yul\":3896:3902   */\n      dup3\n        /* \"#utility.yul\":3893:3923   */\n      gt\n        /* \"#utility.yul\":3890:3946   */\n      iszero\n      tag_327\n      jumpi\n        /* \"#utility.yul\":3926:3944   */\n      tag_328\n      tag_208\n      jump\t// in\n    tag_328:\n        /* \"#utility.yul\":3890:3946   */\n    tag_327:\n        /* \"#utility.yul\":3964:3993   */\n      tag_329\n        /* \"#utility.yul\":3986:3992   */\n      dup3\n        /* \"#utility.yul\":3964:3993   */\n      tag_207\n      jump\t// in\n    tag_329:\n        /* \"#utility.yul\":3956:3993   */\n      swap1\n      pop\n        /* \"#utility.yul\":4048:4052   */\n      0x20\n        /* \"#utility.yul\":4042:4046   */\n      dup2\n        /* \"#utility.yul\":4038:4053   */\n      add\n        /* \"#utility.yul\":4030:4053   */\n      swap1\n      pop\n        /* \"#utility.yul\":3752:4060   */\n      swap2\n      swap1\n      pop\n      jump\t// out\n        /* \"#utility.yul\":4066:4214   */\n    tag_212:\n        /* \"#utility.yul\":4164:4170   */\n      dup3\n        /* \"#utility.yul\":4159:4162   */\n      dup2\n        /* \"#utility.yul\":4154:4157   */\n      dup4\n        /* \"#utility.yul\":4141:4171   */\n      calldatacopy\n        /* \"#utility.yul\":4205:4206   */\n      0x00\n        /* \"#utility.yul\":4196:4202   */\n      dup4\n        /* \"#utility.yul\":4191:4194   */\n      dup4\n        /* \"#utility.yul\":4187:4203   */\n      add\n        /* \"#utility.yul\":4180:4207   */\n      mstore\n        /* \"#utility.yul\":4066:4214   */\n      pop\n      pop\n      pop\n      jump\t// out\n        /* \"#utility.yul\":4220:4645   */\n    tag_213:\n        /* \"#utility.yul\":4298:4303   */\n      0x00\n        /* \"#utility.yul\":4323:4389   */\n      tag_332\n        /* \"#utility.yul\":4339:4388   */\n      tag_333\n        /* \"#utility.yul\":4381:4387   */\n      dup5\n        /* \"#utility.yul\":4339:4388   */\n      tag_211\n      jump\t// in\n    tag_333:\n        /* \"#utility.yul\":4323:4389   */\n      tag_210\n      jump\t// in\n    tag_332:\n        /* \"#utility.yul\":4314:4389   */\n      swap1\n      pop\n        /* \"#utility.yul\":4412:4418   */\n      dup3\n        /* \"#utility.yul\":4405:4410   */\n      dup2\n        /* \"#utility.yul\":4398:4419   */\n      mstore\n        /* \"#utility.yul\":4450:4454   */\n      0x20\n        /* \"#utility.yul\":4443:4448   */\n      dup2\n        /* \"#utility.yul\":4439:4455   */\n      add\n        /* \"#utility.yul\":4488:4491   */\n      dup5\n        /* \"#utility.yul\":4479:4485   */\n      dup5\n        /* \"#utility.yul\":4474:4477   */\n      dup5\n        /* \"#utility.yul\":4470:4486   */\n      add\n        /* \"#utility.yul\":4467:4492   */\n      gt\n        /* \"#utility.yul\":4464:4576   */\n      iszero\n      tag_334\n      jumpi\n        /* \"#utility.yul\":4495:4574   */\n      tag_335\n      tag_206\n      jump\t// in\n    tag_335:\n        /* \"#utility.yul\":4464:4576   */\n    tag_334:\n        /* \"#utility.yul\":4585:4639   */\n      tag_336\n        /* \"#utility.yul\":4632:4638   */\n      dup5\n        /* \"#utility.yul\":4627:4630   */\n      dup3\n        /* \"#utility.yul\":4622:4625   */\n      dup6\n        /* \"#utility.yul\":4585:4639   */\n      tag_212\n      jump\t// in\n    tag_336:\n        /* \"#utility.yul\":4304:4645   */\n      pop\n        /* \"#utility.yul\":4220:4645   */\n      swap4\n      swap3\n      pop\n      pop\n      pop\n      jump\t// out\n        /* \"#utility.yul\":4665:5005   */\n    tag_214:\n        /* \"#utility.yul\":4721:4726   */\n      0x00\n        /* \"#utility.yul\":4770:4773   */\n      dup3\n        /* \"#utility.yul\":4763:4767   */\n      0x1f\n        /* \"#utility.yul\":4755:4761   */\n      dup4\n        /* \"#utility.yul\":4751:4768   */\n      add\n        /* \"#utility.yul\":4747:4774   */\n      slt\n        /* \"#utility.yul\":4737:4859   */\n      tag_338\n      jumpi\n        /* \"#utility.yul\":4778:4857   */\n      tag_339\n      tag_205\n      jump\t// in\n    tag_339:\n        /* \"#utility.yul\":4737:4859   */\n    tag_338:\n        /* \"#utility.yul\":4895:4901   */\n      dup2\n        /* \"#utility.yul\":4882:4902   */\n      calldataload\n        /* \"#utility.yul\":4920:4999   */\n      tag_340\n        /* \"#utility.yul\":4995:4998   */\n      dup5\n        /* \"#utility.yul\":4987:4993   */\n      dup3\n        /* \"#utility.yul\":4980:4984   */\n      0x20\n        /* \"#utility.yul\":4972:4978   */\n      dup7\n        /* \"#utility.yul\":4968:4985   */\n      add\n        /* \"#utility.yul\":4920:4999   */\n      tag_213\n      jump\t// in\n    tag_340:\n        /* \"#utility.yul\":4911:4999   */\n      swap2\n      pop\n        /* \"#utility.yul\":4727:5005   */\n      pop\n        /* \"#utility.yul\":4665:5005   */\n      swap3\n      swap2\n      pop\n      pop\n      jump\t// out\n        /* \"#utility.yul\":5011:5952   */\n    tag_38:\n        /* \"#utility.yul\":5105:5111   */\n      0x00\n        /* \"#utility.yul\":5113:5119   */\n      0x00\n        /* \"#utility.yul\":5121:5127   */\n      0x00\n        /* \"#utility.yul\":5129:5135   */\n      0x00\n        /* \"#utility.yul\":5178:5181   */\n      0x80\n        /* \"#utility.yul\":5166:5175   */\n      dup6\n        /* \"#utility.yul\":5157:5164   */\n      dup8\n        /* \"#utility.yul\":5153:5176   */\n      sub\n        /* \"#utility.yul\":5149:5182   */\n      slt\n        /* \"#utility.yul\":5146:5266   */\n      iszero\n      tag_342\n      jumpi\n        /* \"#utility.yul\":5185:5264   */\n      tag_343\n      tag_191\n      jump\t// in\n    tag_343:\n        /* \"#utility.yul\":5146:5266   */\n    tag_342:\n        /* \"#utility.yul\":5305:5306   */\n      0x00\n        /* \"#utility.yul\":5330:5383   */\n      tag_344\n        /* \"#utility.yul\":5375:5382   */\n      dup8\n        /* \"#utility.yul\":5366:5372   */\n      dup3\n        /* \"#utility.yul\":5355:5364   */\n      dup9\n        /* \"#utility.yul\":5351:5373   */\n      add\n        /* \"#utility.yul\":5330:5383   */\n      tag_201\n      jump\t// in\n    tag_344:\n        /* \"#utility.yul\":5320:5383   */\n      swap5\n      pop\n        /* \"#utility.yul\":5276:5393   */\n      pop\n        /* \"#utility.yul\":5432:5434   */\n      0x20\n        /* \"#utility.yul\":5458:5510   */\n      tag_345\n        /* \"#utility.yul\":5502:5509   */\n      dup8\n        /* \"#utility.yul\":5493:5499   */\n      dup3\n        /* \"#utility.yul\":5482:5491   */\n      dup9\n        /* \"#utility.yul\":5478:5500   */\n      add\n        /* \"#utility.yul\":5458:5510   */\n      tag_204\n      jump\t// in\n    tag_345:\n        /* \"#utility.yul\":5448:5510   */\n      swap4\n      pop\n        /* \"#utility.yul\":5403:5520   */\n      pop\n        /* \"#utility.yul\":5559:5561   */\n      0x40\n        /* \"#utility.yul\":5585:5637   */\n      tag_346\n        /* \"#utility.yul\":5629:5636   */\n      dup8\n        /* \"#utility.yul\":5620:5626   */\n      dup3\n        /* \"#utility.yul\":5609:5618   */\n      dup9\n        /* \"#utility.yul\":5605:5627   */\n      add\n        /* \"#utility.yul\":5585:5637   */\n      tag_204\n      jump\t// in\n    tag_346:\n        /* \"#utility.yul\":5575:5637   */\n      swap3\n      pop\n        /* \"#utility.yul\":5530:5647   */\n      pop\n        /* \"#utility.yul\":5714:5716   */\n      0x60\n        /* \"#utility.yul\":5703:5712   */\n      dup6\n        /* \"#utility.yul\":5699:5717   */\n      add\n        /* \"#utility.yul\":5686:5718   */\n      calldataload\n        /* \"#utility.yul\":5745:5763   */\n      0xffffffffffffffff\n        /* \"#utility.yul\":5737:5743   */\n      dup2\n        /* \"#utility.yul\":5734:5764   */\n      gt\n        /* \"#utility.yul\":5731:5848   */\n      iszero\n      tag_347\n      jumpi\n        /* \"#utility.yul\":5767:5846   */\n      tag_348\n      tag_192\n      jump\t// in\n    tag_348:\n        /* \"#utility.yul\":5731:5848   */\n    tag_347:\n        /* \"#utility.yul\":5872:5935   */\n      tag_349\n        /* \"#utility.yul\":5927:5934   */\n      dup8\n        /* \"#utility.yul\":5918:5924   */\n      dup3\n        /* \"#utility.yul\":5907:5916   */\n      dup9\n        /* \"#utility.yul\":5903:5925   */\n      add\n        /* \"#utility.yul\":5872:5935   */\n      tag_214\n      jump\t// in\n    tag_349:\n        /* \"#utility.yul\":5862:5935   */\n      swap2\n      pop\n        /* \"#utility.yul\":5657:5945   */\n      pop\n        /* \"#utility.yul\":5011:5952   */\n      swap3\n      swap6\n      swap2\n      swap5\n      pop\n      swap3\n      pop\n      jump\t// out\n        /* \"#utility.yul\":5958:6074   */\n    tag_215:\n        /* \"#utility.yul\":6028:6049   */\n      tag_351\n        /* \"#utility.yul\":6043:6048   */\n      dup2\n        /* \"#utility.yul\":6028:6049   */\n      tag_197\n      jump\t// in\n    tag_351:\n        /* \"#utility.yul\":6021:6026   */\n      dup2\n        /* \"#utility.yul\":6018:6050   */\n      eq\n        /* \"#utility.yul\":6008:6068   */\n      tag_352\n      jumpi\n        /* \"#utility.yul\":6064:6065   */\n      0x00\n        /* \"#utility.yul\":6061:6062   */\n      0x00\n        /* \"#utility.yul\":6054:6066   */\n      revert\n        /* \"#utility.yul\":6008:6068   */\n    tag_352:\n        /* \"#utility.yul\":5958:6074   */\n      pop\n      jump\t// out\n        /* \"#utility.yul\":6080:6213   */\n    tag_216:\n        /* \"#utility.yul\":6123:6128   */\n      0x00\n        /* \"#utility.yul\":6161:6167   */\n      dup2\n        /* \"#utility.yul\":6148:6168   */\n      calldataload\n        /* \"#utility.yul\":6139:6168   */\n      swap1\n      pop\n        /* \"#utility.yul\":6177:6207   */\n      tag_354\n        /* \"#utility.yul\":6201:6206   */\n      dup2\n        /* \"#utility.yul\":6177:6207   */\n      tag_215\n      jump\t// in\n    tag_354:\n        /* \"#utility.yul\":6080:6213   */\n      swap3\n      swap2\n      pop\n      pop\n      jump\t// out\n        /* \"#utility.yul\":6219:6687   */\n    tag_45:\n        /* \"#utility.yul\":6284:6290   */\n      0x00\n        /* \"#utility.yul\":6292:6298   */\n      0x00\n        /* \"#utility.yul\":6341:6343   */\n      0x40\n        /* \"#utility.yul\":6329:6338   */\n      dup4\n        /* \"#utility.yul\":6320:6327   */\n      dup6\n        /* \"#utility.yul\":6316:6339   */\n      sub\n        /* \"#utility.yul\":6312:6344   */\n      slt\n        /* \"#utility.yul\":6309:6428   */\n      iszero\n      tag_356\n      jumpi\n        /* \"#utility.yul\":6347:6426   */\n      tag_357\n      tag_191\n      jump\t// in\n    tag_357:\n        /* \"#utility.yul\":6309:6428   */\n    tag_356:\n        /* \"#utility.yul\":6467:6468   */\n      0x00\n        /* \"#utility.yul\":6492:6545   */\n      tag_358\n        /* \"#utility.yul\":6537:6544   */\n      dup6\n        /* \"#utility.yul\":6528:6534   */\n      dup3\n        /* \"#utility.yul\":6517:6526   */\n      dup7\n        /* \"#utility.yul\":6513:6535   */\n      add\n        /* \"#utility.yul\":6492:6545   */\n      tag_201\n      jump\t// in\n    tag_358:\n        /* \"#utility.yul\":6482:6545   */\n      swap3\n      pop\n        /* \"#utility.yul\":6438:6555   */\n      pop\n        /* \"#utility.yul\":6594:6596   */\n      0x20\n        /* \"#utility.yul\":6620:6670   */\n      tag_359\n        /* \"#utility.yul\":6662:6669   */\n      dup6\n        /* \"#utility.yul\":6653:6659   */\n      dup3\n        /* \"#utility.yul\":6642:6651   */\n      dup7\n        /* \"#utility.yul\":6638:6660   */\n      add\n        /* \"#utility.yul\":6620:6670   */\n      tag_216\n      jump\t// in\n    tag_359:\n        /* \"#utility.yul\":6610:6670   */\n      swap2\n      pop\n        /* \"#utility.yul\":6565:6680   */\n      pop\n        /* \"#utility.yul\":6219:6687   */\n      swap3\n      pop\n      swap3\n      swap1\n      pop\n      jump\t// out\n        /* \"#utility.yul\":6693:6811   */\n    tag_217:\n        /* \"#utility.yul\":6780:6804   */\n      tag_361\n        /* \"#utility.yul\":6798:6803   */\n      dup2\n        /* \"#utility.yul\":6780:6804   */\n      tag_194\n      jump\t// in\n    tag_361:\n        /* \"#utility.yul\":6775:6778   */\n      dup3\n        /* \"#utility.yul\":6768:6805   */\n      mstore\n        /* \"#utility.yul\":6693:6811   */\n      pop\n      pop\n      jump\t// out\n        /* \"#utility.yul\":6817:7039   */\n    tag_50:\n        /* \"#utility.yul\":6910:6914   */\n      0x00\n        /* \"#utility.yul\":6948:6950   */\n      0x20\n        /* \"#utility.yul\":6937:6946   */\n      dup3\n        /* \"#utility.yul\":6933:6951   */\n      add\n        /* \"#utility.yul\":6925:6951   */\n      swap1\n      pop\n        /* \"#utility.yul\":6961:7032   */\n      tag_363\n        /* \"#utility.yul\":7029:7030   */\n      0x00\n        /* \"#utility.yul\":7018:7027   */\n      dup4\n        /* \"#utility.yul\":7014:7031   */\n      add\n        /* \"#utility.yul\":7005:7011   */\n      dup5\n        /* \"#utility.yul\":6961:7032   */\n      tag_217\n      jump\t// in\n    tag_363:\n        /* \"#utility.yul\":6817:7039   */\n      swap3\n      swap2\n      pop\n      pop\n      jump\t// out\n        /* \"#utility.yul\":7045:7519   */\n    tag_60:\n        /* \"#utility.yul\":7113:7119   */\n      0x00\n        /* \"#utility.yul\":7121:7127   */\n      0x00\n        /* \"#utility.yul\":7170:7172   */\n      0x40\n        /* \"#utility.yul\":7158:7167   */\n      dup4\n        /* \"#utility.yul\":7149:7156   */\n      dup6\n        /* \"#utility.yul\":7145:7168   */\n      sub\n        /* \"#utility.yul\":7141:7173   */\n      slt\n        /* \"#utility.yul\":7138:7257   */\n      iszero\n      tag_365\n      jumpi\n        /* \"#utility.yul\":7176:7255   */\n      tag_366\n      tag_191\n      jump\t// in\n    tag_366:\n        /* \"#utility.yul\":7138:7257   */\n    tag_365:\n        /* \"#utility.yul\":7296:7297   */\n      0x00\n        /* \"#utility.yul\":7321:7374   */\n      tag_367\n        /* \"#utility.yul\":7366:7373   */\n      dup6\n        /* \"#utility.yul\":7357:7363   */\n      dup3\n        /* \"#utility.yul\":7346:7355   */\n      dup7\n        /* \"#utility.yul\":7342:7364   */\n      add\n        /* \"#utility.yul\":7321:7374   */\n      tag_201\n      jump\t// in\n    tag_367:\n        /* \"#utility.yul\":7311:7374   */\n      swap3\n      pop\n        /* \"#utility.yul\":7267:7384   */\n      pop\n        /* \"#utility.yul\":7423:7425   */\n      0x20\n        /* \"#utility.yul\":7449:7502   */\n      tag_368\n        /* \"#utility.yul\":7494:7501   */\n      dup6\n        /* \"#utility.yul\":7485:7491   */\n      dup3\n        /* \"#utility.yul\":7474:7483   */\n      dup7\n        /* \"#utility.yul\":7470:7492   */\n      add\n        /* \"#utility.yul\":7449:7502   */\n      tag_201\n      jump\t// in\n    tag_368:\n        /* \"#utility.yul\":7439:7502   */\n      swap2\n      pop\n        /* \"#utility.yul\":7394:7512   */\n      pop\n        /* \"#utility.yul\":7045:7519   */\n      swap3\n      pop\n      swap3\n      swap1\n      pop\n      jump\t// out\n        /* \"#utility.yul\":7525:7640   */\n    tag_218:\n        /* \"#utility.yul\":7610:7633   */\n      tag_370\n        /* \"#utility.yul\":7627:7632   */\n      dup2\n        /* \"#utility.yul\":7610:7633   */\n      tag_202\n      jump\t// in\n    tag_370:\n        /* \"#utility.yul\":7605:7608   */\n      dup3\n        /* \"#utility.yul\":7598:7634   */\n      mstore\n        /* \"#utility.yul\":7525:7640   */\n      pop\n      pop\n      jump\t// out\n        /* \"#utility.yul\":7646:7745   */\n    tag_219:\n        /* \"#utility.yul\":7698:7704   */\n      0x00\n        /* \"#utility.yul\":7732:7737   */\n      dup2\n        /* \"#utility.yul\":7726:7738   */\n      mload\n        /* \"#utility.yul\":7716:7738   */\n      swap1\n      pop\n        /* \"#utility.yul\":7646:7745   */\n      swap2\n      swap1\n      pop\n      jump\t// out\n        /* \"#utility.yul\":7751:7920   */\n    tag_220:\n        /* \"#utility.yul\":7835:7846   */\n      0x00\n        /* \"#utility.yul\":7869:7875   */\n      dup3\n        /* \"#utility.yul\":7864:7867   */\n      dup3\n        /* \"#utility.yul\":7857:7876   */\n      mstore\n        /* \"#utility.yul\":7909:7913   */\n      0x20\n        /* \"#utility.yul\":7904:7907   */\n      dup3\n        /* \"#utility.yul\":7900:7914   */\n      add\n        /* \"#utility.yul\":7885:7914   */\n      swap1\n      pop\n        /* \"#utility.yul\":7751:7920   */\n      swap3\n      swap2\n      pop\n      pop\n      jump\t// out\n        /* \"#utility.yul\":7926:8065   */\n    tag_221:\n        /* \"#utility.yul\":8015:8021   */\n      dup3\n        /* \"#utility.yul\":8010:8013   */\n      dup2\n        /* \"#utility.yul\":8005:8008   */\n      dup4\n        /* \"#utility.yul\":7999:8022   */\n      mcopy\n        /* \"#utility.yul\":8056:8057   */\n      0x00\n        /* \"#utility.yul\":8047:8053   */\n      dup4\n        /* \"#utility.yul\":8042:8045   */\n      dup4\n        /* \"#utility.yul\":8038:8054   */\n      add\n        /* \"#utility.yul\":8031:8058   */\n      mstore\n        /* \"#utility.yul\":7926:8065   */\n      pop\n      pop\n      pop\n      jump\t// out\n        /* \"#utility.yul\":8071:8448   */\n    tag_222:\n        /* \"#utility.yul\":8159:8162   */\n      0x00\n        /* \"#utility.yul\":8187:8226   */\n      tag_375\n        /* \"#utility.yul\":8220:8225   */\n      dup3\n        /* \"#utility.yul\":8187:8226   */\n      tag_219\n      jump\t// in\n    tag_375:\n        /* \"#utility.yul\":8242:8313   */\n      tag_376\n        /* \"#utility.yul\":8306:8312   */\n      dup2\n        /* \"#utility.yul\":8301:8304   */\n      dup6\n        /* \"#utility.yul\":8242:8313   */\n      tag_220\n      jump\t// in\n    tag_376:\n        /* \"#utility.yul\":8235:8313   */\n      swap4\n      pop\n        /* \"#utility.yul\":8322:8387   */\n      tag_377\n        /* \"#utility.yul\":8380:8386   */\n      dup2\n        /* \"#utility.yul\":8375:8378   */\n      dup6\n        /* \"#utility.yul\":8368:8372   */\n      0x20\n        /* \"#utility.yul\":8361:8366   */\n      dup7\n        /* \"#utility.yul\":8357:8373   */\n      add\n        /* \"#utility.yul\":8322:8387   */\n      tag_221\n      jump\t// in\n    tag_377:\n        /* \"#utility.yul\":8412:8441   */\n      tag_378\n        /* \"#utility.yul\":8434:8440   */\n      dup2\n        /* \"#utility.yul\":8412:8441   */\n      tag_207\n      jump\t// in\n    tag_378:\n        /* \"#utility.yul\":8407:8410   */\n      dup5\n        /* \"#utility.yul\":8403:8442   */\n      add\n        /* \"#utility.yul\":8396:8442   */\n      swap2\n      pop\n        /* \"#utility.yul\":8163:8448   */\n      pop\n        /* \"#utility.yul\":8071:8448   */\n      swap3\n      swap2\n      pop\n      pop\n      jump\t// out\n        /* \"#utility.yul\":8454:8572   */\n    tag_223:\n        /* \"#utility.yul\":8541:8565   */\n      tag_380\n        /* \"#utility.yul\":8559:8564   */\n      dup2\n        /* \"#utility.yul\":8541:8565   */\n      tag_199\n      jump\t// in\n    tag_380:\n        /* \"#utility.yul\":8536:8539   */\n      dup3\n        /* \"#utility.yul\":8529:8566   */\n      mstore\n        /* \"#utility.yul\":8454:8572   */\n      pop\n      pop\n      jump\t// out\n        /* \"#utility.yul\":8578:9214   */\n    tag_63:\n        /* \"#utility.yul\":8771:8775   */\n      0x00\n        /* \"#utility.yul\":8809:8812   */\n      0x80\n        /* \"#utility.yul\":8798:8807   */\n      dup3\n        /* \"#utility.yul\":8794:8813   */\n      add\n        /* \"#utility.yul\":8786:8813   */\n      swap1\n      pop\n        /* \"#utility.yul\":8823:8892   */\n      tag_382\n        /* \"#utility.yul\":8889:8890   */\n      0x00\n        /* \"#utility.yul\":8878:8887   */\n      dup4\n        /* \"#utility.yul\":8874:8891   */\n      add\n        /* \"#utility.yul\":8865:8871   */\n      dup8\n        /* \"#utility.yul\":8823:8892   */\n      tag_218\n      jump\t// in\n    tag_382:\n        /* \"#utility.yul\":8902:8972   */\n      tag_383\n        /* \"#utility.yul\":8968:8970   */\n      0x20\n        /* \"#utility.yul\":8957:8966   */\n      dup4\n        /* \"#utility.yul\":8953:8971   */\n      add\n        /* \"#utility.yul\":8944:8950   */\n      dup7\n        /* \"#utility.yul\":8902:8972   */\n      tag_218\n      jump\t// in\n    tag_383:\n        /* \"#utility.yul\":9019:9028   */\n      dup2\n        /* \"#utility.yul\":9013:9017   */\n      dup2\n        /* \"#utility.yul\":9009:9029   */\n      sub\n        /* \"#utility.yul\":9004:9006   */\n      0x40\n        /* \"#utility.yul\":8993:9002   */\n      dup4\n        /* \"#utility.yul\":8989:9007   */\n      add\n        /* \"#utility.yul\":8982:9030   */\n      mstore\n        /* \"#utility.yul\":9047:9125   */\n      tag_384\n        /* \"#utility.yul\":9120:9124   */\n      dup2\n        /* \"#utility.yul\":9111:9117   */\n      dup6\n        /* \"#utility.yul\":9047:9125   */\n      tag_222\n      jump\t// in\n    tag_384:\n        /* \"#utility.yul\":9039:9125   */\n      swap1\n      pop\n        /* \"#utility.yul\":9135:9207   */\n      tag_385\n        /* \"#utility.yul\":9203:9205   */\n      0x60\n        /* \"#utility.yul\":9192:9201   */\n      dup4\n        /* \"#utility.yul\":9188:9206   */\n      add\n        /* \"#utility.yul\":9179:9185   */\n      dup5\n        /* \"#utility.yul\":9135:9207   */\n      tag_223\n      jump\t// in\n    tag_385:\n        /* \"#utility.yul\":8578:9214   */\n      swap6\n      swap5\n      pop\n      pop\n      pop\n      pop\n      pop\n      jump\t// out\n        /* \"#utility.yul\":9220:9549   */\n    tag_66:\n        /* \"#utility.yul\":9279:9285   */\n      0x00\n        /* \"#utility.yul\":9328:9330   */\n      0x20\n        /* \"#utility.yul\":9316:9325   */\n      dup3\n        /* \"#utility.yul\":9307:9314   */\n      dup5\n        /* \"#utility.yul\":9303:9326   */\n      sub\n        /* \"#utility.yul\":9299:9331   */\n      slt\n        /* \"#utility.yul\":9296:9415   */\n      iszero\n      tag_387\n      jumpi\n        /* \"#utility.yul\":9334:9413   */\n      tag_388\n      tag_191\n      jump\t// in\n    tag_388:\n        /* \"#utility.yul\":9296:9415   */\n    tag_387:\n        /* \"#utility.yul\":9454:9455   */\n      0x00\n        /* \"#utility.yul\":9479:9532   */\n      tag_389\n        /* \"#utility.yul\":9524:9531   */\n      dup5\n        /* \"#utility.yul\":9515:9521   */\n      dup3\n        /* \"#utility.yul\":9504:9513   */\n      dup6\n        /* \"#utility.yul\":9500:9522   */\n      add\n        /* \"#utility.yul\":9479:9532   */\n      tag_201\n      jump\t// in\n    tag_389:\n        /* \"#utility.yul\":9469:9532   */\n      swap2\n      pop\n        /* \"#utility.yul\":9425:9542   */\n      pop\n        /* \"#utility.yul\":9220:9549   */\n      swap3\n      swap2\n      pop\n      pop\n      jump\t// out\n        /* \"#utility.yul\":9555:10397   */\n    tag_69:\n        /* \"#utility.yul\":9796:9800   */\n      0x00\n        /* \"#utility.yul\":9834:9837   */\n      0xc0\n        /* \"#utility.yul\":9823:9832   */\n      dup3\n        /* \"#utility.yul\":9819:9838   */\n      add\n        /* \"#utility.yul\":9811:9838   */\n      swap1\n      pop\n        /* \"#utility.yul\":9848:9919   */\n      tag_391\n        /* \"#utility.yul\":9916:9917   */\n      0x00\n        /* \"#utility.yul\":9905:9914   */\n      dup4\n        /* \"#utility.yul\":9901:9918   */\n      add\n        /* \"#utility.yul\":9892:9898   */\n      dup10\n        /* \"#utility.yul\":9848:9919   */\n      tag_223\n      jump\t// in\n    tag_391:\n        /* \"#utility.yul\":9966:9975   */\n      dup2\n        /* \"#utility.yul\":9960:9964   */\n      dup2\n        /* \"#utility.yul\":9956:9976   */\n      sub\n        /* \"#utility.yul\":9951:9953   */\n      0x20\n        /* \"#utility.yul\":9940:9949   */\n      dup4\n        /* \"#utility.yul\":9936:9954   */\n      add\n        /* \"#utility.yul\":9929:9977   */\n      mstore\n        /* \"#utility.yul\":9994:10072   */\n      tag_392\n        /* \"#utility.yul\":10067:10071   */\n      dup2\n        /* \"#utility.yul\":10058:10064   */\n      dup9\n        /* \"#utility.yul\":9994:10072   */\n      tag_222\n      jump\t// in\n    tag_392:\n        /* \"#utility.yul\":9986:10072   */\n      swap1\n      pop\n        /* \"#utility.yul\":10082:10154   */\n      tag_393\n        /* \"#utility.yul\":10150:10152   */\n      0x40\n        /* \"#utility.yul\":10139:10148   */\n      dup4\n        /* \"#utility.yul\":10135:10153   */\n      add\n        /* \"#utility.yul\":10126:10132   */\n      dup8\n        /* \"#utility.yul\":10082:10154   */\n      tag_223\n      jump\t// in\n    tag_393:\n        /* \"#utility.yul\":10164:10236   */\n      tag_394\n        /* \"#utility.yul\":10232:10234   */\n      0x60\n        /* \"#utility.yul\":10221:10230   */\n      dup4\n        /* \"#utility.yul\":10217:10235   */\n      add\n        /* \"#utility.yul\":10208:10214   */\n      dup7\n        /* \"#utility.yul\":10164:10236   */\n      tag_217\n      jump\t// in\n    tag_394:\n        /* \"#utility.yul\":10246:10313   */\n      tag_395\n        /* \"#utility.yul\":10308:10311   */\n      0x80\n        /* \"#utility.yul\":10297:10306   */\n      dup4\n        /* \"#utility.yul\":10293:10312   */\n      add\n        /* \"#utility.yul\":10284:10290   */\n      dup6\n        /* \"#utility.yul\":10246:10313   */\n      tag_198\n      jump\t// in\n    tag_395:\n        /* \"#utility.yul\":10323:10390   */\n      tag_396\n        /* \"#utility.yul\":10385:10388   */\n      0xa0\n        /* \"#utility.yul\":10374:10383   */\n      dup4\n        /* \"#utility.yul\":10370:10389   */\n      add\n        /* \"#utility.yul\":10361:10367   */\n      dup5\n        /* \"#utility.yul\":10323:10390   */\n      tag_198\n      jump\t// in\n    tag_396:\n        /* \"#utility.yul\":9555:10397   */\n      swap8\n      swap7\n      pop\n      pop\n      pop\n      pop\n      pop\n      pop\n      pop\n      jump\t// out\n        /* \"#utility.yul\":10403:10511   */\n    tag_224:\n        /* \"#utility.yul\":10480:10504   */\n      tag_398\n        /* \"#utility.yul\":10498:10503   */\n      dup2\n        /* \"#utility.yul\":10480:10504   */\n      tag_199\n      jump\t// in\n    tag_398:\n        /* \"#utility.yul\":10475:10478   */\n      dup3\n        /* \"#utility.yul\":10468:10505   */\n      mstore\n        /* \"#utility.yul\":10403:10511   */\n      pop\n      pop\n      jump\t// out\n        /* \"#utility.yul\":10517:10676   */\n    tag_225:\n        /* \"#utility.yul\":10591:10602   */\n      0x00\n        /* \"#utility.yul\":10625:10631   */\n      dup3\n        /* \"#utility.yul\":10620:10623   */\n      dup3\n        /* \"#utility.yul\":10613:10632   */\n      mstore\n        /* \"#utility.yul\":10665:10669   */\n      0x20\n        /* \"#utility.yul\":10660:10663   */\n      dup3\n        /* \"#utility.yul\":10656:10670   */\n      add\n        /* \"#utility.yul\":10641:10670   */\n      swap1\n      pop\n        /* \"#utility.yul\":10517:10676   */\n      swap3\n      swap2\n      pop\n      pop\n      jump\t// out\n        /* \"#utility.yul\":10682:11039   */\n    tag_226:\n        /* \"#utility.yul\":10760:10763   */\n      0x00\n        /* \"#utility.yul\":10788:10827   */\n      tag_401\n        /* \"#utility.yul\":10821:10826   */\n      dup3\n        /* \"#utility.yul\":10788:10827   */\n      tag_219\n      jump\t// in\n    tag_401:\n        /* \"#utility.yul\":10843:10904   */\n      tag_402\n        /* \"#utility.yul\":10897:10903   */\n      dup2\n        /* \"#utility.yul\":10892:10895   */\n      dup6\n        /* \"#utility.yul\":10843:10904   */\n      tag_225\n      jump\t// in\n    tag_402:\n        /* \"#utility.yul\":10836:10904   */\n      swap4\n      pop\n        /* \"#utility.yul\":10913:10978   */\n      tag_403\n        /* \"#utility.yul\":10971:10977   */\n      dup2\n        /* \"#utility.yul\":10966:10969   */\n      dup6\n        /* \"#utility.yul\":10959:10963   */\n      0x20\n        /* \"#utility.yul\":10952:10957   */\n      dup7\n        /* \"#utility.yul\":10948:10964   */\n      add\n        /* \"#utility.yul\":10913:10978   */\n      tag_221\n      jump\t// in\n    tag_403:\n        /* \"#utility.yul\":11003:11032   */\n      tag_404\n        /* \"#utility.yul\":11025:11031   */\n      dup2\n        /* \"#utility.yul\":11003:11032   */\n      tag_207\n      jump\t// in\n    tag_404:\n        /* \"#utility.yul\":10998:11001   */\n      dup5\n        /* \"#utility.yul\":10994:11033   */\n      add\n        /* \"#utility.yul\":10987:11033   */\n      swap2\n      pop\n        /* \"#utility.yul\":10764:11039   */\n      pop\n        /* \"#utility.yul\":10682:11039   */\n      swap3\n      swap2\n      pop\n      pop\n      jump\t// out\n        /* \"#utility.yul\":11045:11153   */\n    tag_227:\n        /* \"#utility.yul\":11122:11146   */\n      tag_406\n        /* \"#utility.yul\":11140:11145   */\n      dup2\n        /* \"#utility.yul\":11122:11146   */\n      tag_194\n      jump\t// in\n    tag_406:\n        /* \"#utility.yul\":11117:11120   */\n      dup3\n        /* \"#utility.yul\":11110:11147   */\n      mstore\n        /* \"#utility.yul\":11045:11153   */\n      pop\n      pop\n      jump\t// out\n        /* \"#utility.yul\":11159:11258   */\n    tag_228:\n        /* \"#utility.yul\":11230:11251   */\n      tag_408\n        /* \"#utility.yul\":11245:11250   */\n      dup2\n        /* \"#utility.yul\":11230:11251   */\n      tag_197\n      jump\t// in\n    tag_408:\n        /* \"#utility.yul\":11225:11228   */\n      dup3\n        /* \"#utility.yul\":11218:11252   */\n      mstore\n        /* \"#utility.yul\":11159:11258   */\n      pop\n      pop\n      jump\t// out\n        /* \"#utility.yul\":11322:12643   */\n    tag_229:\n        /* \"#utility.yul\":11435:11438   */\n      0x00\n        /* \"#utility.yul\":11471:11475   */\n      0xc0\n        /* \"#utility.yul\":11466:11469   */\n      dup4\n        /* \"#utility.yul\":11462:11476   */\n      add\n        /* \"#utility.yul\":11561:11565   */\n      0x00\n        /* \"#utility.yul\":11554:11559   */\n      dup4\n        /* \"#utility.yul\":11550:11566   */\n      add\n        /* \"#utility.yul\":11544:11567   */\n      mload\n        /* \"#utility.yul\":11580:11643   */\n      tag_410\n        /* \"#utility.yul\":11637:11641   */\n      0x00\n        /* \"#utility.yul\":11632:11635   */\n      dup7\n        /* \"#utility.yul\":11628:11642   */\n      add\n        /* \"#utility.yul\":11614:11626   */\n      dup3\n        /* \"#utility.yul\":11580:11643   */\n      tag_224\n      jump\t// in\n    tag_410:\n        /* \"#utility.yul\":11486:11653   */\n      pop\n        /* \"#utility.yul\":11742:11746   */\n      0x20\n        /* \"#utility.yul\":11735:11740   */\n      dup4\n        /* \"#utility.yul\":11731:11747   */\n      add\n        /* \"#utility.yul\":11725:11748   */\n      mload\n        /* \"#utility.yul\":11795:11798   */\n      dup5\n        /* \"#utility.yul\":11789:11793   */\n      dup3\n        /* \"#utility.yul\":11785:11799   */\n      sub\n        /* \"#utility.yul\":11778:11782   */\n      0x20\n        /* \"#utility.yul\":11773:11776   */\n      dup7\n        /* \"#utility.yul\":11769:11783   */\n      add\n        /* \"#utility.yul\":11762:11800   */\n      mstore\n        /* \"#utility.yul\":11821:11894   */\n      tag_411\n        /* \"#utility.yul\":11889:11893   */\n      dup3\n        /* \"#utility.yul\":11875:11887   */\n      dup3\n        /* \"#utility.yul\":11821:11894   */\n      tag_226\n      jump\t// in\n    tag_411:\n        /* \"#utility.yul\":11813:11894   */\n      swap2\n      pop\n        /* \"#utility.yul\":11663:11905   */\n      pop\n        /* \"#utility.yul\":11991:11995   */\n      0x40\n        /* \"#utility.yul\":11984:11989   */\n      dup4\n        /* \"#utility.yul\":11980:11996   */\n      add\n        /* \"#utility.yul\":11974:11997   */\n      mload\n        /* \"#utility.yul\":12010:12073   */\n      tag_412\n        /* \"#utility.yul\":12067:12071   */\n      0x40\n        /* \"#utility.yul\":12062:12065   */\n      dup7\n        /* \"#utility.yul\":12058:12072   */\n      add\n        /* \"#utility.yul\":12044:12056   */\n      dup3\n        /* \"#utility.yul\":12010:12073   */\n      tag_224\n      jump\t// in\n    tag_412:\n        /* \"#utility.yul\":11915:12083   */\n      pop\n        /* \"#utility.yul\":12173:12177   */\n      0x60\n        /* \"#utility.yul\":12166:12171   */\n      dup4\n        /* \"#utility.yul\":12162:12178   */\n      add\n        /* \"#utility.yul\":12156:12179   */\n      mload\n        /* \"#utility.yul\":12192:12255   */\n      tag_413\n        /* \"#utility.yul\":12249:12253   */\n      0x60\n        /* \"#utility.yul\":12244:12247   */\n      dup7\n        /* \"#utility.yul\":12240:12254   */\n      add\n        /* \"#utility.yul\":12226:12238   */\n      dup3\n        /* \"#utility.yul\":12192:12255   */\n      tag_227\n      jump\t// in\n    tag_413:\n        /* \"#utility.yul\":12093:12265   */\n      pop\n        /* \"#utility.yul\":12350:12354   */\n      0x80\n        /* \"#utility.yul\":12343:12348   */\n      dup4\n        /* \"#utility.yul\":12339:12355   */\n      add\n        /* \"#utility.yul\":12333:12356   */\n      mload\n        /* \"#utility.yul\":12369:12426   */\n      tag_414\n        /* \"#utility.yul\":12420:12424   */\n      0x80\n        /* \"#utility.yul\":12415:12418   */\n      dup7\n        /* \"#utility.yul\":12411:12425   */\n      add\n        /* \"#utility.yul\":12397:12409   */\n      dup3\n        /* \"#utility.yul\":12369:12426   */\n      tag_228\n      jump\t// in\n    tag_414:\n        /* \"#utility.yul\":12275:12436   */\n      pop\n        /* \"#utility.yul\":12530:12534   */\n      0xa0\n        /* \"#utility.yul\":12523:12528   */\n      dup4\n        /* \"#utility.yul\":12519:12535   */\n      add\n        /* \"#utility.yul\":12513:12536   */\n      mload\n        /* \"#utility.yul\":12549:12606   */\n      tag_415\n        /* \"#utility.yul\":12600:12604   */\n      0xa0\n        /* \"#utility.yul\":12595:12598   */\n      dup7\n        /* \"#utility.yul\":12591:12605   */\n      add\n        /* \"#utility.yul\":12577:12589   */\n      dup3\n        /* \"#utility.yul\":12549:12606   */\n      tag_228\n      jump\t// in\n    tag_415:\n        /* \"#utility.yul\":12446:12616   */\n      pop\n        /* \"#utility.yul\":12633:12637   */\n      dup1\n        /* \"#utility.yul\":12626:12637   */\n      swap2\n      pop\n        /* \"#utility.yul\":11440:12643   */\n      pop\n        /* \"#utility.yul\":11322:12643   */\n      swap3\n      swap2\n      pop\n      pop\n      jump\t// out\n        /* \"#utility.yul\":12649:12790   */\n    tag_230:\n        /* \"#utility.yul\":12743:12749   */\n      0x00\n        /* \"#utility.yul\":12777:12782   */\n      dup2\n        /* \"#utility.yul\":12771:12783   */\n      mload\n        /* \"#utility.yul\":12761:12783   */\n      swap1\n      pop\n        /* \"#utility.yul\":12649:12790   */\n      swap2\n      swap1\n      pop\n      jump\t// out\n        /* \"#utility.yul\":12796:13007   */\n    tag_231:\n        /* \"#utility.yul\":12922:12933   */\n      0x00\n        /* \"#utility.yul\":12956:12962   */\n      dup3\n        /* \"#utility.yul\":12951:12954   */\n      dup3\n        /* \"#utility.yul\":12944:12963   */\n      mstore\n        /* \"#utility.yul\":12996:13000   */\n      0x20\n        /* \"#utility.yul\":12991:12994   */\n      dup3\n        /* \"#utility.yul\":12987:13001   */\n      add\n        /* \"#utility.yul\":12972:13001   */\n      swap1\n      pop\n        /* \"#utility.yul\":12796:13007   */\n      swap3\n      swap2\n      pop\n      pop\n      jump\t// out\n        /* \"#utility.yul\":13013:13172   */\n    tag_232:\n        /* \"#utility.yul\":13107:13111   */\n      0x00\n        /* \"#utility.yul\":13130:13133   */\n      dup2\n        /* \"#utility.yul\":13122:13133   */\n      swap1\n      pop\n        /* \"#utility.yul\":13160:13164   */\n      0x20\n        /* \"#utility.yul\":13155:13158   */\n      dup3\n        /* \"#utility.yul\":13151:13165   */\n      add\n        /* \"#utility.yul\":13143:13165   */\n      swap1\n      pop\n        /* \"#utility.yul\":13013:13172   */\n      swap2\n      swap1\n      pop\n      jump\t// out\n        /* \"#utility.yul\":13178:13283   */\n    tag_233:\n        /* \"#utility.yul\":13253:13276   */\n      tag_420\n        /* \"#utility.yul\":13270:13275   */\n      dup2\n        /* \"#utility.yul\":13253:13276   */\n      tag_202\n      jump\t// in\n    tag_420:\n        /* \"#utility.yul\":13248:13251   */\n      dup3\n        /* \"#utility.yul\":13241:13277   */\n      mstore\n        /* \"#utility.yul\":13178:13283   */\n      pop\n      pop\n      jump\t// out\n        /* \"#utility.yul\":13357:14321   */\n    tag_234:\n        /* \"#utility.yul\":13470:13473   */\n      0x00\n        /* \"#utility.yul\":13506:13510   */\n      0x80\n        /* \"#utility.yul\":13501:13504   */\n      dup4\n        /* \"#utility.yul\":13497:13511   */\n      add\n        /* \"#utility.yul\":13600:13604   */\n      0x00\n        /* \"#utility.yul\":13593:13598   */\n      dup4\n        /* \"#utility.yul\":13589:13605   */\n      add\n        /* \"#utility.yul\":13583:13606   */\n      mload\n        /* \"#utility.yul\":13619:13680   */\n      tag_422\n        /* \"#utility.yul\":13674:13678   */\n      0x00\n        /* \"#utility.yul\":13669:13672   */\n      dup7\n        /* \"#utility.yul\":13665:13679   */\n      add\n        /* \"#utility.yul\":13651:13663   */\n      dup3\n        /* \"#utility.yul\":13619:13680   */\n      tag_233\n      jump\t// in\n    tag_422:\n        /* \"#utility.yul\":13521:13690   */\n      pop\n        /* \"#utility.yul\":13776:13780   */\n      0x20\n        /* \"#utility.yul\":13769:13774   */\n      dup4\n        /* \"#utility.yul\":13765:13781   */\n      add\n        /* \"#utility.yul\":13759:13782   */\n      mload\n        /* \"#utility.yul\":13795:13856   */\n      tag_423\n        /* \"#utility.yul\":13850:13854   */\n      0x20\n        /* \"#utility.yul\":13845:13848   */\n      dup7\n        /* \"#utility.yul\":13841:13855   */\n      add\n        /* \"#utility.yul\":13827:13839   */\n      dup3\n        /* \"#utility.yul\":13795:13856   */\n      tag_233\n      jump\t// in\n    tag_423:\n        /* \"#utility.yul\":13700:13866   */\n      pop\n        /* \"#utility.yul\":13952:13956   */\n      0x40\n        /* \"#utility.yul\":13945:13950   */\n      dup4\n        /* \"#utility.yul\":13941:13957   */\n      add\n        /* \"#utility.yul\":13935:13958   */\n      mload\n        /* \"#utility.yul\":14005:14008   */\n      dup5\n        /* \"#utility.yul\":13999:14003   */\n      dup3\n        /* \"#utility.yul\":13995:14009   */\n      sub\n        /* \"#utility.yul\":13988:13992   */\n      0x40\n        /* \"#utility.yul\":13983:13986   */\n      dup7\n        /* \"#utility.yul\":13979:13993   */\n      add\n        /* \"#utility.yul\":13972:14010   */\n      mstore\n        /* \"#utility.yul\":14031:14104   */\n      tag_424\n        /* \"#utility.yul\":14099:14103   */\n      dup3\n        /* \"#utility.yul\":14085:14097   */\n      dup3\n        /* \"#utility.yul\":14031:14104   */\n      tag_226\n      jump\t// in\n    tag_424:\n        /* \"#utility.yul\":14023:14104   */\n      swap2\n      pop\n        /* \"#utility.yul\":13876:14115   */\n      pop\n        /* \"#utility.yul\":14202:14206   */\n      0x60\n        /* \"#utility.yul\":14195:14200   */\n      dup4\n        /* \"#utility.yul\":14191:14207   */\n      add\n        /* \"#utility.yul\":14185:14208   */\n      mload\n        /* \"#utility.yul\":14221:14284   */\n      tag_425\n        /* \"#utility.yul\":14278:14282   */\n      0x60\n        /* \"#utility.yul\":14273:14276   */\n      dup7\n        /* \"#utility.yul\":14269:14283   */\n      add\n        /* \"#utility.yul\":14255:14267   */\n      dup3\n        /* \"#utility.yul\":14221:14284   */\n      tag_224\n      jump\t// in\n    tag_425:\n        /* \"#utility.yul\":14125:14294   */\n      pop\n        /* \"#utility.yul\":14311:14315   */\n      dup1\n        /* \"#utility.yul\":14304:14315   */\n      swap2\n      pop\n        /* \"#utility.yul\":13475:14321   */\n      pop\n        /* \"#utility.yul\":13357:14321   */\n      swap3\n      swap2\n      pop\n      pop\n      jump\t// out\n        /* \"#utility.yul\":14327:14591   */\n    tag_235:\n        /* \"#utility.yul\":14450:14460   */\n      0x00\n        /* \"#utility.yul\":14485:14585   */\n      tag_427\n        /* \"#utility.yul\":14581:14584   */\n      dup4\n        /* \"#utility.yul\":14573:14579   */\n      dup4\n        /* \"#utility.yul\":14485:14585   */\n      tag_234\n      jump\t// in\n    tag_427:\n        /* \"#utility.yul\":14471:14585   */\n      swap1\n      pop\n        /* \"#utility.yul\":14327:14591   */\n      swap3\n      swap2\n      pop\n      pop\n      jump\t// out\n        /* \"#utility.yul\":14597:14737   */\n    tag_236:\n        /* \"#utility.yul\":14694:14698   */\n      0x00\n        /* \"#utility.yul\":14726:14730   */\n      0x20\n        /* \"#utility.yul\":14721:14724   */\n      dup3\n        /* \"#utility.yul\":14717:14731   */\n      add\n        /* \"#utility.yul\":14709:14731   */\n      swap1\n      pop\n        /* \"#utility.yul\":14597:14737   */\n      swap2\n      swap1\n      pop\n      jump\t// out\n        /* \"#utility.yul\":14815:15942   */\n    tag_237:\n        /* \"#utility.yul\":14988:14991   */\n      0x00\n        /* \"#utility.yul\":15017:15098   */\n      tag_430\n        /* \"#utility.yul\":15092:15097   */\n      dup3\n        /* \"#utility.yul\":15017:15098   */\n      tag_230\n      jump\t// in\n    tag_430:\n        /* \"#utility.yul\":15114:15227   */\n      tag_431\n        /* \"#utility.yul\":15220:15226   */\n      dup2\n        /* \"#utility.yul\":15215:15218   */\n      dup6\n        /* \"#utility.yul\":15114:15227   */\n      tag_231\n      jump\t// in\n    tag_431:\n        /* \"#utility.yul\":15107:15227   */\n      swap4\n      pop\n        /* \"#utility.yul\":15253:15256   */\n      dup4\n        /* \"#utility.yul\":15298:15302   */\n      0x20\n        /* \"#utility.yul\":15290:15296   */\n      dup3\n        /* \"#utility.yul\":15286:15303   */\n      mul\n        /* \"#utility.yul\":15281:15284   */\n      dup6\n        /* \"#utility.yul\":15277:15304   */\n      add\n        /* \"#utility.yul\":15328:15411   */\n      tag_432\n        /* \"#utility.yul\":15405:15410   */\n      dup6\n        /* \"#utility.yul\":15328:15411   */\n      tag_232\n      jump\t// in\n    tag_432:\n        /* \"#utility.yul\":15434:15441   */\n      dup1\n        /* \"#utility.yul\":15465:15466   */\n      0x00\n        /* \"#utility.yul\":15450:15897   */\n    tag_433:\n        /* \"#utility.yul\":15475:15481   */\n      dup6\n        /* \"#utility.yul\":15472:15473   */\n      dup2\n        /* \"#utility.yul\":15469:15482   */\n      lt\n        /* \"#utility.yul\":15450:15897   */\n      iszero\n      tag_435\n      jumpi\n        /* \"#utility.yul\":15546:15555   */\n      dup5\n        /* \"#utility.yul\":15540:15544   */\n      dup5\n        /* \"#utility.yul\":15536:15556   */\n      sub\n        /* \"#utility.yul\":15531:15534   */\n      dup10\n        /* \"#utility.yul\":15524:15557   */\n      mstore\n        /* \"#utility.yul\":15597:15603   */\n      dup2\n        /* \"#utility.yul\":15591:15604   */\n      mload\n        /* \"#utility.yul\":15625:15743   */\n      tag_436\n        /* \"#utility.yul\":15738:15742   */\n      dup6\n        /* \"#utility.yul\":15723:15736   */\n      dup3\n        /* \"#utility.yul\":15625:15743   */\n      tag_235\n      jump\t// in\n    tag_436:\n        /* \"#utility.yul\":15617:15743   */\n      swap5\n      pop\n        /* \"#utility.yul\":15766:15853   */\n      tag_437\n        /* \"#utility.yul\":15846:15852   */\n      dup4\n        /* \"#utility.yul\":15766:15853   */\n      tag_236\n      jump\t// in\n    tag_437:\n        /* \"#utility.yul\":15756:15853   */\n      swap3\n      pop\n        /* \"#utility.yul\":15882:15886   */\n      0x20\n        /* \"#utility.yul\":15877:15880   */\n      dup11\n        /* \"#utility.yul\":15873:15887   */\n      add\n        /* \"#utility.yul\":15866:15887   */\n      swap10\n      pop\n        /* \"#utility.yul\":15510:15897   */\n      pop\n        /* \"#utility.yul\":15497:15498   */\n      0x01\n        /* \"#utility.yul\":15494:15495   */\n      dup2\n        /* \"#utility.yul\":15490:15499   */\n      add\n        /* \"#utility.yul\":15485:15499   */\n      swap1\n      pop\n        /* \"#utility.yul\":15450:15897   */\n      jump(tag_433)\n    tag_435:\n        /* \"#utility.yul\":15454:15468   */\n      pop\n        /* \"#utility.yul\":15913:15917   */\n      dup3\n        /* \"#utility.yul\":15906:15917   */\n      swap8\n      pop\n        /* \"#utility.yul\":15933:15936   */\n      dup8\n        /* \"#utility.yul\":15926:15936   */\n      swap6\n      pop\n        /* \"#utility.yul\":14993:15942   */\n      pop\n      pop\n      pop\n      pop\n      pop\n        /* \"#utility.yul\":14815:15942   */\n      swap3\n      swap2\n      pop\n      pop\n      jump\t// out\n        /* \"#utility.yul\":15948:16088   */\n    tag_238:\n        /* \"#utility.yul\":16041:16047   */\n      0x00\n        /* \"#utility.yul\":16075:16080   */\n      dup2\n        /* \"#utility.yul\":16069:16081   */\n      mload\n        /* \"#utility.yul\":16059:16081   */\n      swap1\n      pop\n        /* \"#utility.yul\":15948:16088   */\n      swap2\n      swap1\n      pop\n      jump\t// out\n        /* \"#utility.yul\":16094:16304   */\n    tag_239:\n        /* \"#utility.yul\":16219:16230   */\n      0x00\n        /* \"#utility.yul\":16253:16259   */\n      dup3\n        /* \"#utility.yul\":16248:16251   */\n      dup3\n        /* \"#utility.yul\":16241:16260   */\n      mstore\n        /* \"#utility.yul\":16293:16297   */\n      0x20\n        /* \"#utility.yul\":16288:16291   */\n      dup3\n        /* \"#utility.yul\":16284:16298   */\n      add\n        /* \"#utility.yul\":16269:16298   */\n      swap1\n      pop\n        /* \"#utility.yul\":16094:16304   */\n      swap3\n      swap2\n      pop\n      pop\n      jump\t// out\n        /* \"#utility.yul\":16310:16468   */\n    tag_240:\n        /* \"#utility.yul\":16403:16407   */\n      0x00\n        /* \"#utility.yul\":16426:16429   */\n      dup2\n        /* \"#utility.yul\":16418:16429   */\n      swap1\n      pop\n        /* \"#utility.yul\":16456:16460   */\n      0x20\n        /* \"#utility.yul\":16451:16454   */\n      dup3\n        /* \"#utility.yul\":16447:16461   */\n      add\n        /* \"#utility.yul\":16439:16461   */\n      swap1\n      pop\n        /* \"#utility.yul\":16310:16468   */\n      swap2\n      swap1\n      pop\n      jump\t// out\n        /* \"#utility.yul\":16540:17045   */\n    tag_241:\n        /* \"#utility.yul\":16679:16683   */\n      0x40\n        /* \"#utility.yul\":16674:16677   */\n      dup3\n        /* \"#utility.yul\":16670:16684   */\n      add\n        /* \"#utility.yul\":16767:16771   */\n      0x00\n        /* \"#utility.yul\":16760:16765   */\n      dup3\n        /* \"#utility.yul\":16756:16772   */\n      add\n        /* \"#utility.yul\":16750:16773   */\n      mload\n        /* \"#utility.yul\":16786:16849   */\n      tag_442\n        /* \"#utility.yul\":16843:16847   */\n      0x00\n        /* \"#utility.yul\":16838:16841   */\n      dup6\n        /* \"#utility.yul\":16834:16848   */\n      add\n        /* \"#utility.yul\":16820:16832   */\n      dup3\n        /* \"#utility.yul\":16786:16849   */\n      tag_227\n      jump\t// in\n    tag_442:\n        /* \"#utility.yul\":16694:16859   */\n      pop\n        /* \"#utility.yul\":16946:16950   */\n      0x20\n        /* \"#utility.yul\":16939:16944   */\n      dup3\n        /* \"#utility.yul\":16935:16951   */\n      add\n        /* \"#utility.yul\":16929:16952   */\n      mload\n        /* \"#utility.yul\":16965:17028   */\n      tag_443\n        /* \"#utility.yul\":17022:17026   */\n      0x20\n        /* \"#utility.yul\":17017:17020   */\n      dup6\n        /* \"#utility.yul\":17013:17027   */\n      add\n        /* \"#utility.yul\":16999:17011   */\n      dup3\n        /* \"#utility.yul\":16965:17028   */\n      tag_224\n      jump\t// in\n    tag_443:\n        /* \"#utility.yul\":16869:17038   */\n      pop\n        /* \"#utility.yul\":16648:17045   */\n      pop\n        /* \"#utility.yul\":16540:17045   */\n      pop\n      pop\n      jump\t// out\n        /* \"#utility.yul\":17051:17334   */\n    tag_242:\n        /* \"#utility.yul\":17172:17182   */\n      0x00\n        /* \"#utility.yul\":17193:17291   */\n      tag_445\n        /* \"#utility.yul\":17287:17290   */\n      dup4\n        /* \"#utility.yul\":17279:17285   */\n      dup4\n        /* \"#utility.yul\":17193:17291   */\n      tag_241\n      jump\t// in\n    tag_445:\n        /* \"#utility.yul\":17323:17327   */\n      0x40\n        /* \"#utility.yul\":17318:17321   */\n      dup4\n        /* \"#utility.yul\":17314:17328   */\n      add\n        /* \"#utility.yul\":17300:17328   */\n      swap1\n      pop\n        /* \"#utility.yul\":17051:17334   */\n      swap3\n      swap2\n      pop\n      pop\n      jump\t// out\n        /* \"#utility.yul\":17340:17479   */\n    tag_243:\n        /* \"#utility.yul\":17436:17440   */\n      0x00\n        /* \"#utility.yul\":17468:17472   */\n      0x20\n        /* \"#utility.yul\":17463:17466   */\n      dup3\n        /* \"#utility.yul\":17459:17473   */\n      add\n        /* \"#utility.yul\":17451:17473   */\n      swap1\n      pop\n        /* \"#utility.yul\":17340:17479   */\n      swap2\n      swap1\n      pop\n      jump\t// out\n        /* \"#utility.yul\":17555:18495   */\n    tag_244:\n        /* \"#utility.yul\":17726:17729   */\n      0x00\n        /* \"#utility.yul\":17755:17835   */\n      tag_448\n        /* \"#utility.yul\":17829:17834   */\n      dup3\n        /* \"#utility.yul\":17755:17835   */\n      tag_238\n      jump\t// in\n    tag_448:\n        /* \"#utility.yul\":17851:17963   */\n      tag_449\n        /* \"#utility.yul\":17956:17962   */\n      dup2\n        /* \"#utility.yul\":17951:17954   */\n      dup6\n        /* \"#utility.yul\":17851:17963   */\n      tag_239\n      jump\t// in\n    tag_449:\n        /* \"#utility.yul\":17844:17963   */\n      swap4\n      pop\n        /* \"#utility.yul\":17987:18069   */\n      tag_450\n        /* \"#utility.yul\":18063:18068   */\n      dup4\n        /* \"#utility.yul\":17987:18069   */\n      tag_240\n      jump\t// in\n    tag_450:\n        /* \"#utility.yul\":18092:18099   */\n      dup1\n        /* \"#utility.yul\":18123:18124   */\n      0x00\n        /* \"#utility.yul\":18108:18470   */\n    tag_451:\n        /* \"#utility.yul\":18133:18139   */\n      dup4\n        /* \"#utility.yul\":18130:18131   */\n      dup2\n        /* \"#utility.yul\":18127:18140   */\n      lt\n        /* \"#utility.yul\":18108:18470   */\n      iszero\n      tag_453\n      jumpi\n        /* \"#utility.yul\":18209:18215   */\n      dup2\n        /* \"#utility.yul\":18203:18216   */\n      mload\n        /* \"#utility.yul\":18236:18351   */\n      tag_454\n        /* \"#utility.yul\":18347:18350   */\n      dup9\n        /* \"#utility.yul\":18332:18345   */\n      dup3\n        /* \"#utility.yul\":18236:18351   */\n      tag_242\n      jump\t// in\n    tag_454:\n        /* \"#utility.yul\":18229:18351   */\n      swap8\n      pop\n        /* \"#utility.yul\":18374:18460   */\n      tag_455\n        /* \"#utility.yul\":18453:18459   */\n      dup4\n        /* \"#utility.yul\":18374:18460   */\n      tag_243\n      jump\t// in\n    tag_455:\n        /* \"#utility.yul\":18364:18460   */\n      swap3\n      pop\n        /* \"#utility.yul\":18168:18470   */\n      pop\n        /* \"#utility.yul\":18155:18156   */\n      0x01\n        /* \"#utility.yul\":18152:18153   */\n      dup2\n        /* \"#utility.yul\":18148:18157   */\n      add\n        /* \"#utility.yul\":18143:18157   */\n      swap1\n      pop\n        /* \"#utility.yul\":18108:18470   */\n      jump(tag_451)\n    tag_453:\n        /* \"#utility.yul\":18112:18126   */\n      pop\n        /* \"#utility.yul\":18486:18489   */\n      dup6\n        /* \"#utility.yul\":18479:18489   */\n      swap4\n      pop\n        /* \"#utility.yul\":17731:18495   */\n      pop\n      pop\n      pop\n        /* \"#utility.yul\":17555:18495   */\n      swap3\n      swap2\n      pop\n      pop\n      jump\t// out\n        /* \"#utility.yul\":18501:19596   */\n    tag_74:\n        /* \"#utility.yul\":18900:18904   */\n      0x00\n        /* \"#utility.yul\":18938:18940   */\n      0x60\n        /* \"#utility.yul\":18927:18936   */\n      dup3\n        /* \"#utility.yul\":18923:18941   */\n      add\n        /* \"#utility.yul\":18915:18941   */\n      swap1\n      pop\n        /* \"#utility.yul\":18987:18996   */\n      dup2\n        /* \"#utility.yul\":18981:18985   */\n      dup2\n        /* \"#utility.yul\":18977:18997   */\n      sub\n        /* \"#utility.yul\":18973:18974   */\n      0x00\n        /* \"#utility.yul\":18962:18971   */\n      dup4\n        /* \"#utility.yul\":18958:18975   */\n      add\n        /* \"#utility.yul\":18951:18998   */\n      mstore\n        /* \"#utility.yul\":19015:19117   */\n      tag_457\n        /* \"#utility.yul\":19112:19116   */\n      dup2\n        /* \"#utility.yul\":19103:19109   */\n      dup7\n        /* \"#utility.yul\":19015:19117   */\n      tag_229\n      jump\t// in\n    tag_457:\n        /* \"#utility.yul\":19007:19117   */\n      swap1\n      pop\n        /* \"#utility.yul\":19164:19173   */\n      dup2\n        /* \"#utility.yul\":19158:19162   */\n      dup2\n        /* \"#utility.yul\":19154:19174   */\n      sub\n        /* \"#utility.yul\":19149:19151   */\n      0x20\n        /* \"#utility.yul\":19138:19147   */\n      dup4\n        /* \"#utility.yul\":19134:19152   */\n      add\n        /* \"#utility.yul\":19127:19175   */\n      mstore\n        /* \"#utility.yul\":19192:19354   */\n      tag_458\n        /* \"#utility.yul\":19349:19353   */\n      dup2\n        /* \"#utility.yul\":19340:19346   */\n      dup6\n        /* \"#utility.yul\":19192:19354   */\n      tag_237\n      jump\t// in\n    tag_458:\n        /* \"#utility.yul\":19184:19354   */\n      swap1\n      pop\n        /* \"#utility.yul\":19401:19410   */\n      dup2\n        /* \"#utility.yul\":19395:19399   */\n      dup2\n        /* \"#utility.yul\":19391:19411   */\n      sub\n        /* \"#utility.yul\":19386:19388   */\n      0x40\n        /* \"#utility.yul\":19375:19384   */\n      dup4\n        /* \"#utility.yul\":19371:19389   */\n      add\n        /* \"#utility.yul\":19364:19412   */\n      mstore\n        /* \"#utility.yul\":19429:19589   */\n      tag_459\n        /* \"#utility.yul\":19584:19588   */\n      dup2\n        /* \"#utility.yul\":19575:19581   */\n      dup5\n        /* \"#utility.yul\":19429:19589   */\n      tag_244\n      jump\t// in\n    tag_459:\n        /* \"#utility.yul\":19421:19589   */\n      swap1\n      pop\n        /* \"#utility.yul\":18501:19596   */\n      swap5\n      swap4\n      pop\n      pop\n      pop\n      pop\n      jump\t// out\n        /* \"#utility.yul\":19602:19934   */\n    tag_79:\n        /* \"#utility.yul\":19723:19727   */\n      0x00\n        /* \"#utility.yul\":19761:19763   */\n      0x40\n        /* \"#utility.yul\":19750:19759   */\n      dup3\n        /* \"#utility.yul\":19746:19764   */\n      add\n        /* \"#utility.yul\":19738:19764   */\n      swap1\n      pop\n        /* \"#utility.yul\":19774:19845   */\n      tag_461\n        /* \"#utility.yul\":19842:19843   */\n      0x00\n        /* \"#utility.yul\":19831:19840   */\n      dup4\n        /* \"#utility.yul\":19827:19844   */\n      add\n        /* \"#utility.yul\":19818:19824   */\n      dup6\n        /* \"#utility.yul\":19774:19845   */\n      tag_217\n      jump\t// in\n    tag_461:\n        /* \"#utility.yul\":19855:19927   */\n      tag_462\n        /* \"#utility.yul\":19923:19925   */\n      0x20\n        /* \"#utility.yul\":19912:19921   */\n      dup4\n        /* \"#utility.yul\":19908:19926   */\n      add\n        /* \"#utility.yul\":19899:19905   */\n      dup5\n        /* \"#utility.yul\":19855:19927   */\n      tag_223\n      jump\t// in\n    tag_462:\n        /* \"#utility.yul\":19602:19934   */\n      swap4\n      swap3\n      pop\n      pop\n      pop\n      jump\t// out\n        /* \"#utility.yul\":19940:20739   */\n    tag_90:\n        /* \"#utility.yul\":20027:20033   */\n      0x00\n        /* \"#utility.yul\":20035:20041   */\n      0x00\n        /* \"#utility.yul\":20043:20049   */\n      0x00\n        /* \"#utility.yul\":20092:20094   */\n      0x60\n        /* \"#utility.yul\":20080:20089   */\n      dup5\n        /* \"#utility.yul\":20071:20078   */\n      dup7\n        /* \"#utility.yul\":20067:20090   */\n      sub\n        /* \"#utility.yul\":20063:20095   */\n      slt\n        /* \"#utility.yul\":20060:20179   */\n      iszero\n      tag_464\n      jumpi\n        /* \"#utility.yul\":20098:20177   */\n      tag_465\n      tag_191\n      jump\t// in\n    tag_465:\n        /* \"#utility.yul\":20060:20179   */\n    tag_464:\n        /* \"#utility.yul\":20218:20219   */\n      0x00\n        /* \"#utility.yul\":20243:20296   */\n      tag_466\n        /* \"#utility.yul\":20288:20295   */\n      dup7\n        /* \"#utility.yul\":20279:20285   */\n      dup3\n        /* \"#utility.yul\":20268:20277   */\n      dup8\n        /* \"#utility.yul\":20264:20286   */\n      add\n        /* \"#utility.yul\":20243:20296   */\n      tag_201\n      jump\t// in\n    tag_466:\n        /* \"#utility.yul\":20233:20296   */\n      swap4\n      pop\n        /* \"#utility.yul\":20189:20306   */\n      pop\n        /* \"#utility.yul\":20373:20375   */\n      0x20\n        /* \"#utility.yul\":20362:20371   */\n      dup5\n        /* \"#utility.yul\":20358:20376   */\n      add\n        /* \"#utility.yul\":20345:20377   */\n      calldataload\n        /* \"#utility.yul\":20404:20422   */\n      0xffffffffffffffff\n        /* \"#utility.yul\":20396:20402   */\n      dup2\n        /* \"#utility.yul\":20393:20423   */\n      gt\n        /* \"#utility.yul\":20390:20507   */\n      iszero\n      tag_467\n      jumpi\n        /* \"#utility.yul\":20426:20505   */\n      tag_468\n      tag_192\n      jump\t// in\n    tag_468:\n        /* \"#utility.yul\":20390:20507   */\n    tag_467:\n        /* \"#utility.yul\":20531:20594   */\n      tag_469\n        /* \"#utility.yul\":20586:20593   */\n      dup7\n        /* \"#utility.yul\":20577:20583   */\n      dup3\n        /* \"#utility.yul\":20566:20575   */\n      dup8\n        /* \"#utility.yul\":20562:20584   */\n      add\n        /* \"#utility.yul\":20531:20594   */\n      tag_214\n      jump\t// in\n    tag_469:\n        /* \"#utility.yul\":20521:20594   */\n      swap3\n      pop\n        /* \"#utility.yul\":20316:20604   */\n      pop\n        /* \"#utility.yul\":20643:20645   */\n      0x40\n        /* \"#utility.yul\":20669:20722   */\n      tag_470\n        /* \"#utility.yul\":20714:20721   */\n      dup7\n        /* \"#utility.yul\":20705:20711   */\n      dup3\n        /* \"#utility.yul\":20694:20703   */\n      dup8\n        /* \"#utility.yul\":20690:20712   */\n      add\n        /* \"#utility.yul\":20669:20722   */\n      tag_201\n      jump\t// in\n    tag_470:\n        /* \"#utility.yul\":20659:20722   */\n      swap2\n      pop\n        /* \"#utility.yul\":20614:20732   */\n      pop\n        /* \"#utility.yul\":19940:20739   */\n      swap3\n      pop\n      swap3\n      pop\n      swap3\n      jump\t// out\n        /* \"#utility.yul\":20745:20904   */\n    tag_245:\n        /* \"#utility.yul\":20885:20896   */\n      0x4e6f74206f776e65720000000000000000000000000000000000000000000000\n        /* \"#utility.yul\":20881:20882   */\n      0x00\n        /* \"#utility.yul\":20873:20879   */\n      dup3\n        /* \"#utility.yul\":20869:20883   */\n      add\n        /* \"#utility.yul\":20862:20897   */\n      mstore\n        /* \"#utility.yul\":20745:20904   */\n      pop\n      jump\t// out\n        /* \"#utility.yul\":20910:21275   */\n    tag_246:\n        /* \"#utility.yul\":21052:21055   */\n      0x00\n        /* \"#utility.yul\":21073:21139   */\n      tag_473\n        /* \"#utility.yul\":21137:21138   */\n      0x09\n        /* \"#utility.yul\":21132:21135   */\n      dup4\n        /* \"#utility.yul\":21073:21139   */\n      tag_220\n      jump\t// in\n    tag_473:\n        /* \"#utility.yul\":21066:21139   */\n      swap2\n      pop\n        /* \"#utility.yul\":21148:21241   */\n      tag_474\n        /* \"#utility.yul\":21237:21240   */\n      dup3\n        /* \"#utility.yul\":21148:21241   */\n      tag_245\n      jump\t// in\n    tag_474:\n        /* \"#utility.yul\":21266:21268   */\n      0x20\n        /* \"#utility.yul\":21261:21264   */\n      dup3\n        /* \"#utility.yul\":21257:21269   */\n      add\n        /* \"#utility.yul\":21250:21269   */\n      swap1\n      pop\n        /* \"#utility.yul\":20910:21275   */\n      swap2\n      swap1\n      pop\n      jump\t// out\n        /* \"#utility.yul\":21281:21700   */\n    tag_98:\n        /* \"#utility.yul\":21447:21451   */\n      0x00\n        /* \"#utility.yul\":21485:21487   */\n      0x20\n        /* \"#utility.yul\":21474:21483   */\n      dup3\n        /* \"#utility.yul\":21470:21488   */\n      add\n        /* \"#utility.yul\":21462:21488   */\n      swap1\n      pop\n        /* \"#utility.yul\":21534:21543   */\n      dup2\n        /* \"#utility.yul\":21528:21532   */\n      dup2\n        /* \"#utility.yul\":21524:21544   */\n      sub\n        /* \"#utility.yul\":21520:21521   */\n      0x00\n        /* \"#utility.yul\":21509:21518   */\n      dup4\n        /* \"#utility.yul\":21505:21522   */\n      add\n        /* \"#utility.yul\":21498:21545   */\n      mstore\n        /* \"#utility.yul\":21562:21693   */\n      tag_476\n        /* \"#utility.yul\":21688:21692   */\n      dup2\n        /* \"#utility.yul\":21562:21693   */\n      tag_246\n      jump\t// in\n    tag_476:\n        /* \"#utility.yul\":21554:21693   */\n      swap1\n      pop\n        /* \"#utility.yul\":21281:21700   */\n      swap2\n      swap1\n      pop\n      jump\t// out\n        /* \"#utility.yul\":21706:22148   */\n    tag_101:\n        /* \"#utility.yul\":21855:21859   */\n      0x00\n        /* \"#utility.yul\":21893:21895   */\n      0x60\n        /* \"#utility.yul\":21882:21891   */\n      dup3\n        /* \"#utility.yul\":21878:21896   */\n      add\n        /* \"#utility.yul\":21870:21896   */\n      swap1\n      pop\n        /* \"#utility.yul\":21906:21977   */\n      tag_478\n        /* \"#utility.yul\":21974:21975   */\n      0x00\n        /* \"#utility.yul\":21963:21972   */\n      dup4\n        /* \"#utility.yul\":21959:21976   */\n      add\n        /* \"#utility.yul\":21950:21956   */\n      dup7\n        /* \"#utility.yul\":21906:21977   */\n      tag_223\n      jump\t// in\n    tag_478:\n        /* \"#utility.yul\":21987:22059   */\n      tag_479\n        /* \"#utility.yul\":22055:22057   */\n      0x20\n        /* \"#utility.yul\":22044:22053   */\n      dup4\n        /* \"#utility.yul\":22040:22058   */\n      add\n        /* \"#utility.yul\":22031:22037   */\n      dup6\n        /* \"#utility.yul\":21987:22059   */\n      tag_217\n      jump\t// in\n    tag_479:\n        /* \"#utility.yul\":22069:22141   */\n      tag_480\n        /* \"#utility.yul\":22137:22139   */\n      0x40\n        /* \"#utility.yul\":22126:22135   */\n      dup4\n        /* \"#utility.yul\":22122:22140   */\n      add\n        /* \"#utility.yul\":22113:22119   */\n      dup5\n        /* \"#utility.yul\":22069:22141   */\n      tag_217\n      jump\t// in\n    tag_480:\n        /* \"#utility.yul\":21706:22148   */\n      swap5\n      swap4\n      pop\n      pop\n      pop\n      pop\n      jump\t// out\n        /* \"#utility.yul\":22154:22313   */\n    tag_247:\n        /* \"#utility.yul\":22294:22305   */\n      0x4e6f742061646d696e0000000000000000000000000000000000000000000000\n        /* \"#utility.yul\":22290:22291   */\n      0x00\n        /* \"#utility.yul\":22282:22288   */\n      dup3\n        /* \"#utility.yul\":22278:22292   */\n      add\n        /* \"#utility.yul\":22271:22306   */\n      mstore\n        /* \"#utility.yul\":22154:22313   */\n      pop\n      jump\t// out\n        /* \"#utility.yul\":22319:22684   */\n    tag_248:\n        /* \"#utility.yul\":22461:22464   */\n      0x00\n        /* \"#utility.yul\":22482:22548   */\n      tag_483\n        /* \"#utility.yul\":22546:22547   */\n      0x09\n        /* \"#utility.yul\":22541:22544   */\n      dup4\n        /* \"#utility.yul\":22482:22548   */\n      tag_220\n      jump\t// in\n    tag_483:\n        /* \"#utility.yul\":22475:22548   */\n      swap2\n      pop\n        /* \"#utility.yul\":22557:22650   */\n      tag_484\n        /* \"#utility.yul\":22646:22649   */\n      dup3\n        /* \"#utility.yul\":22557:22650   */\n      tag_247\n      jump\t// in\n    tag_484:\n        /* \"#utility.yul\":22675:22677   */\n      0x20\n        /* \"#utility.yul\":22670:22673   */\n      dup3\n        /* \"#utility.yul\":22666:22678   */\n      add\n        /* \"#utility.yul\":22659:22678   */\n      swap1\n      pop\n        /* \"#utility.yul\":22319:22684   */\n      swap2\n      swap1\n      pop\n      jump\t// out\n        /* \"#utility.yul\":22690:23109   */\n    tag_105:\n        /* \"#utility.yul\":22856:22860   */\n      0x00\n        /* \"#utility.yul\":22894:22896   */\n      0x20\n        /* \"#utility.yul\":22883:22892   */\n      dup3\n        /* \"#utility.yul\":22879:22897   */\n      add\n        /* \"#utility.yul\":22871:22897   */\n      swap1\n      pop\n        /* \"#utility.yul\":22943:22952   */\n      dup2\n        /* \"#utility.yul\":22937:22941   */\n      dup2\n        /* \"#utility.yul\":22933:22953   */\n      sub\n        /* \"#utility.yul\":22929:22930   */\n      0x00\n        /* \"#utility.yul\":22918:22927   */\n      dup4\n        /* \"#utility.yul\":22914:22931   */\n      add\n        /* \"#utility.yul\":22907:22954   */\n      mstore\n        /* \"#utility.yul\":22971:23102   */\n      tag_486\n        /* \"#utility.yul\":23097:23101   */\n      dup2\n        /* \"#utility.yul\":22971:23102   */\n      tag_248\n      jump\t// in\n    tag_486:\n        /* \"#utility.yul\":22963:23102   */\n      swap1\n      pop\n        /* \"#utility.yul\":22690:23109   */\n      swap2\n      swap1\n      pop\n      jump\t// out\n        /* \"#utility.yul\":23115:23280   */\n    tag_249:\n        /* \"#utility.yul\":23255:23272   */\n      0x4e6f74207472616e73706f727465720000000000000000000000000000000000\n        /* \"#utility.yul\":23251:23252   */\n      0x00\n        /* \"#utility.yul\":23243:23249   */\n      dup3\n        /* \"#utility.yul\":23239:23253   */\n      add\n        /* \"#utility.yul\":23232:23273   */\n      mstore\n        /* \"#utility.yul\":23115:23280   */\n      pop\n      jump\t// out\n        /* \"#utility.yul\":23286:23652   */\n    tag_250:\n        /* \"#utility.yul\":23428:23431   */\n      0x00\n        /* \"#utility.yul\":23449:23516   */\n      tag_489\n        /* \"#utility.yul\":23513:23515   */\n      0x0f\n        /* \"#utility.yul\":23508:23511   */\n      dup4\n        /* \"#utility.yul\":23449:23516   */\n      tag_220\n      jump\t// in\n    tag_489:\n        /* \"#utility.yul\":23442:23516   */\n      swap2\n      pop\n        /* \"#utility.yul\":23525:23618   */\n      tag_490\n        /* \"#utility.yul\":23614:23617   */\n      dup3\n        /* \"#utility.yul\":23525:23618   */\n      tag_249\n      jump\t// in\n    tag_490:\n        /* \"#utility.yul\":23643:23645   */\n      0x20\n        /* \"#utility.yul\":23638:23641   */\n      dup3\n        /* \"#utility.yul\":23634:23646   */\n      add\n        /* \"#utility.yul\":23627:23646   */\n      swap1\n      pop\n        /* \"#utility.yul\":23286:23652   */\n      swap2\n      swap1\n      pop\n      jump\t// out\n        /* \"#utility.yul\":23658:24077   */\n    tag_110:\n        /* \"#utility.yul\":23824:23828   */\n      0x00\n        /* \"#utility.yul\":23862:23864   */\n      0x20\n        /* \"#utility.yul\":23851:23860   */\n      dup3\n        /* \"#utility.yul\":23847:23865   */\n      add\n        /* \"#utility.yul\":23839:23865   */\n      swap1\n      pop\n        /* \"#utility.yul\":23911:23920   */\n      dup2\n        /* \"#utility.yul\":23905:23909   */\n      dup2\n        /* \"#utility.yul\":23901:23921   */\n      sub\n        /* \"#utility.yul\":23897:23898   */\n      0x00\n        /* \"#utility.yul\":23886:23895   */\n      dup4\n        /* \"#utility.yul\":23882:23899   */\n      add\n        /* \"#utility.yul\":23875:23922   */\n      mstore\n        /* \"#utility.yul\":23939:24070   */\n      tag_492\n        /* \"#utility.yul\":24065:24069   */\n      dup2\n        /* \"#utility.yul\":23939:24070   */\n      tag_250\n      jump\t// in\n    tag_492:\n        /* \"#utility.yul\":23931:24070   */\n      swap1\n      pop\n        /* \"#utility.yul\":23658:24077   */\n      swap2\n      swap1\n      pop\n      jump\t// out\n        /* \"#utility.yul\":24083:24250   */\n    tag_251:\n        /* \"#utility.yul\":24223:24242   */\n      0x54656d70206f7574206f662072616e6765000000000000000000000000000000\n        /* \"#utility.yul\":24219:24220   */\n      0x00\n        /* \"#utility.yul\":24211:24217   */\n      dup3\n        /* \"#utility.yul\":24207:24221   */\n      add\n        /* \"#utility.yul\":24200:24243   */\n      mstore\n        /* \"#utility.yul\":24083:24250   */\n      pop\n      jump\t// out\n        /* \"#utility.yul\":24256:24622   */\n    tag_252:\n        /* \"#utility.yul\":24398:24401   */\n      0x00\n        /* \"#utility.yul\":24419:24486   */\n      tag_495\n        /* \"#utility.yul\":24483:24485   */\n      0x11\n        /* \"#utility.yul\":24478:24481   */\n      dup4\n        /* \"#utility.yul\":24419:24486   */\n      tag_220\n      jump\t// in\n    tag_495:\n        /* \"#utility.yul\":24412:24486   */\n      swap2\n      pop\n        /* \"#utility.yul\":24495:24588   */\n      tag_496\n        /* \"#utility.yul\":24584:24587   */\n      dup3\n        /* \"#utility.yul\":24495:24588   */\n      tag_251\n      jump\t// in\n    tag_496:\n        /* \"#utility.yul\":24613:24615   */\n      0x20\n        /* \"#utility.yul\":24608:24611   */\n      dup3\n        /* \"#utility.yul\":24604:24616   */\n      add\n        /* \"#utility.yul\":24597:24616   */\n      swap1\n      pop\n        /* \"#utility.yul\":24256:24622   */\n      swap2\n      swap1\n      pop\n      jump\t// out\n        /* \"#utility.yul\":24628:25047   */\n    tag_115:\n        /* \"#utility.yul\":24794:24798   */\n      0x00\n        /* \"#utility.yul\":24832:24834   */\n      0x20\n        /* \"#utility.yul\":24821:24830   */\n      dup3\n        /* \"#utility.yul\":24817:24835   */\n      add\n        /* \"#utility.yul\":24809:24835   */\n      swap1\n      pop\n        /* \"#utility.yul\":24881:24890   */\n      dup2\n        /* \"#utility.yul\":24875:24879   */\n      dup2\n        /* \"#utility.yul\":24871:24891   */\n      sub\n        /* \"#utility.yul\":24867:24868   */\n      0x00\n        /* \"#utility.yul\":24856:24865   */\n      dup4\n        /* \"#utility.yul\":24852:24869   */\n      add\n        /* \"#utility.yul\":24845:24892   */\n      mstore\n        /* \"#utility.yul\":24909:25040   */\n      tag_498\n        /* \"#utility.yul\":25035:25039   */\n      dup2\n        /* \"#utility.yul\":24909:25040   */\n      tag_252\n      jump\t// in\n    tag_498:\n        /* \"#utility.yul\":24901:25040   */\n      swap1\n      pop\n        /* \"#utility.yul\":24628:25047   */\n      swap2\n      swap1\n      pop\n      jump\t// out\n        /* \"#utility.yul\":25053:25224   */\n    tag_253:\n        /* \"#utility.yul\":25193:25216   */\n      0x48756d6964697479206f7574206f662072616e67650000000000000000000000\n        /* \"#utility.yul\":25189:25190   */\n      0x00\n        /* \"#utility.yul\":25181:25187   */\n      dup3\n        /* \"#utility.yul\":25177:25191   */\n      add\n        /* \"#utility.yul\":25170:25217   */\n      mstore\n        /* \"#utility.yul\":25053:25224   */\n      pop\n      jump\t// out\n        /* \"#utility.yul\":25230:25596   */\n    tag_254:\n        /* \"#utility.yul\":25372:25375   */\n      0x00\n        /* \"#utility.yul\":25393:25460   */\n      tag_501\n        /* \"#utility.yul\":25457:25459   */\n      0x15\n        /* \"#utility.yul\":25452:25455   */\n      dup4\n        /* \"#utility.yul\":25393:25460   */\n      tag_220\n      jump\t// in\n    tag_501:\n        /* \"#utility.yul\":25386:25460   */\n      swap2\n      pop\n        /* \"#utility.yul\":25469:25562   */\n      tag_502\n        /* \"#utility.yul\":25558:25561   */\n      dup3\n        /* \"#utility.yul\":25469:25562   */\n      tag_253\n      jump\t// in\n    tag_502:\n        /* \"#utility.yul\":25587:25589   */\n      0x20\n        /* \"#utility.yul\":25582:25585   */\n      dup3\n        /* \"#utility.yul\":25578:25590   */\n      add\n        /* \"#utility.yul\":25571:25590   */\n      swap1\n      pop\n        /* \"#utility.yul\":25230:25596   */\n      swap2\n      swap1\n      pop\n      jump\t// out\n        /* \"#utility.yul\":25602:26021   */\n    tag_119:\n        /* \"#utility.yul\":25768:25772   */\n      0x00\n        /* \"#utility.yul\":25806:25808   */\n      0x20\n        /* \"#utility.yul\":25795:25804   */\n      dup3\n        /* \"#utility.yul\":25791:25809   */\n      add\n        /* \"#utility.yul\":25783:25809   */\n      swap1\n      pop\n        /* \"#utility.yul\":25855:25864   */\n      dup2\n        /* \"#utility.yul\":25849:25853   */\n      dup2\n        /* \"#utility.yul\":25845:25865   */\n      sub\n        /* \"#utility.yul\":25841:25842   */\n      0x00\n        /* \"#utility.yul\":25830:25839   */\n      dup4\n        /* \"#utility.yul\":25826:25843   */\n      add\n        /* \"#utility.yul\":25819:25866   */\n      mstore\n        /* \"#utility.yul\":25883:26014   */\n      tag_504\n        /* \"#utility.yul\":26009:26013   */\n      dup2\n        /* \"#utility.yul\":25883:26014   */\n      tag_254\n      jump\t// in\n    tag_504:\n        /* \"#utility.yul\":25875:26014   */\n      swap1\n      pop\n        /* \"#utility.yul\":25602:26021   */\n      swap2\n      swap1\n      pop\n      jump\t// out\n        /* \"#utility.yul\":26027:26207   */\n    tag_255:\n        /* \"#utility.yul\":26075:26152   */\n      0x4e487b7100000000000000000000000000000000000000000000000000000000\n        /* \"#utility.yul\":26072:26073   */\n      0x00\n        /* \"#utility.yul\":26065:26153   */\n      mstore\n        /* \"#utility.yul\":26172:26176   */\n      0x22\n        /* \"#utility.yul\":26169:26170   */\n      0x04\n        /* \"#utility.yul\":26162:26177   */\n      mstore\n        /* \"#utility.yul\":26196:26200   */\n      0x24\n        /* \"#utility.yul\":26193:26194   */\n      0x00\n        /* \"#utility.yul\":26186:26201   */\n      revert\n        /* \"#utility.yul\":26213:26533   */\n    tag_143:\n        /* \"#utility.yul\":26257:26263   */\n      0x00\n        /* \"#utility.yul\":26294:26295   */\n      0x02\n        /* \"#utility.yul\":26288:26292   */\n      dup3\n        /* \"#utility.yul\":26284:26296   */\n      div\n        /* \"#utility.yul\":26274:26296   */\n      swap1\n      pop\n        /* \"#utility.yul\":26341:26342   */\n      0x01\n        /* \"#utility.yul\":26335:26339   */\n      dup3\n        /* \"#utility.yul\":26331:26343   */\n      and\n        /* \"#utility.yul\":26362:26380   */\n      dup1\n        /* \"#utility.yul\":26352:26433   */\n      tag_507\n      jumpi\n        /* \"#utility.yul\":26418:26422   */\n      0x7f\n        /* \"#utility.yul\":26410:26416   */\n      dup3\n        /* \"#utility.yul\":26406:26423   */\n      and\n        /* \"#utility.yul\":26396:26423   */\n      swap2\n      pop\n        /* \"#utility.yul\":26352:26433   */\n    tag_507:\n        /* \"#utility.yul\":26480:26482   */\n      0x20\n        /* \"#utility.yul\":26472:26478   */\n      dup3\n        /* \"#utility.yul\":26469:26483   */\n      lt\n        /* \"#utility.yul\":26449:26467   */\n      dup2\n        /* \"#utility.yul\":26446:26484   */\n      sub\n        /* \"#utility.yul\":26443:26527   */\n      tag_508\n      jumpi\n        /* \"#utility.yul\":26499:26517   */\n      tag_509\n      tag_255\n      jump\t// in\n    tag_509:\n        /* \"#utility.yul\":26443:26527   */\n    tag_508:\n        /* \"#utility.yul\":26264:26533   */\n      pop\n        /* \"#utility.yul\":26213:26533   */\n      swap2\n      swap1\n      pop\n      jump\t// out\n        /* \"#utility.yul\":26539:26680   */\n    tag_256:\n        /* \"#utility.yul\":26588:26592   */\n      0x00\n        /* \"#utility.yul\":26611:26614   */\n      dup2\n        /* \"#utility.yul\":26603:26614   */\n      swap1\n      pop\n        /* \"#utility.yul\":26634:26637   */\n      dup2\n        /* \"#utility.yul\":26631:26632   */\n      0x00\n        /* \"#utility.yul\":26624:26638   */\n      mstore\n        /* \"#utility.yul\":26668:26672   */\n      0x20\n        /* \"#utility.yul\":26665:26666   */\n      0x00\n        /* \"#utility.yul\":26655:26673   */\n      keccak256\n        /* \"#utility.yul\":26647:26673   */\n      swap1\n      pop\n        /* \"#utility.yul\":26539:26680   */\n      swap2\n      swap1\n      pop\n      jump\t// out\n        /* \"#utility.yul\":26686:26779   */\n    tag_257:\n        /* \"#utility.yul\":26723:26729   */\n      0x00\n        /* \"#utility.yul\":26770:26772   */\n      0x20\n        /* \"#utility.yul\":26765:26767   */\n      0x1f\n        /* \"#utility.yul\":26758:26763   */\n      dup4\n        /* \"#utility.yul\":26754:26768   */\n      add\n        /* \"#utility.yul\":26750:26773   */\n      div\n        /* \"#utility.yul\":26740:26773   */\n      swap1\n      pop\n        /* \"#utility.yul\":26686:26779   */\n      swap2\n      swap1\n      pop\n      jump\t// out\n        /* \"#utility.yul\":26785:26892   */\n    tag_258:\n        /* \"#utility.yul\":26829:26837   */\n      0x00\n        /* \"#utility.yul\":26879:26884   */\n      dup3\n        /* \"#utility.yul\":26873:26877   */\n      dup3\n        /* \"#utility.yul\":26869:26885   */\n      shl\n        /* \"#utility.yul\":26848:26885   */\n      swap1\n      pop\n        /* \"#utility.yul\":26785:26892   */\n      swap3\n      swap2\n      pop\n      pop\n      jump\t// out\n        /* \"#utility.yul\":26898:27291   */\n    tag_259:\n        /* \"#utility.yul\":26967:26973   */\n      0x00\n        /* \"#utility.yul\":27017:27018   */\n      0x08\n        /* \"#utility.yul\":27005:27015   */\n      dup4\n        /* \"#utility.yul\":27001:27019   */\n      mul\n        /* \"#utility.yul\":27040:27137   */\n      tag_514\n        /* \"#utility.yul\":27070:27136   */\n      0xffffffffffffffffffffffffffffffffffffffffffffffffffffffffffffffff\n        /* \"#utility.yul\":27059:27068   */\n      dup3\n        /* \"#utility.yul\":27040:27137   */\n      tag_258\n      jump\t// in\n    tag_514:\n        /* \"#utility.yul\":27158:27197   */\n      tag_515\n        /* \"#utility.yul\":27188:27196   */\n      dup7\n        /* \"#utility.yul\":27177:27186   */\n      dup4\n        /* \"#utility.yul\":27158:27197   */\n      tag_258\n      jump\t// in\n    tag_515:\n        /* \"#utility.yul\":27146:27197   */\n      swap6\n      pop\n        /* \"#utility.yul\":27230:27234   */\n      dup1\n        /* \"#utility.yul\":27226:27235   */\n      not\n        /* \"#utility.yul\":27219:27224   */\n      dup5\n        /* \"#utility.yul\":27215:27236   */\n      and\n        /* \"#utility.yul\":27206:27236   */\n      swap4\n      pop\n        /* \"#utility.yul\":27279:27283   */\n      dup1\n        /* \"#utility.yul\":27269:27277   */\n      dup7\n        /* \"#utility.yul\":27265:27284   */\n      and\n        /* \"#utility.yul\":27258:27263   */\n      dup5\n        /* \"#utility.yul\":27255:27285   */\n      or\n        /* \"#utility.yul\":27245:27285   */\n      swap3\n      pop\n        /* \"#utility.yul\":26974:27291   */\n      pop\n      pop\n        /* \"#utility.yul\":26898:27291   */\n      swap4\n      swap3\n      pop\n      pop\n      pop\n      jump\t// out\n        /* \"#utility.yul\":27297:27357   */\n    tag_260:\n        /* \"#utility.yul\":27325:27328   */\n      0x00\n        /* \"#utility.yul\":27346:27351   */\n      dup2\n        /* \"#utility.yul\":27339:27351   */\n      swap1\n      pop\n        /* \"#utility.yul\":27297:27357   */\n      swap2\n      swap1\n      pop\n      jump\t// out\n        /* \"#utility.yul\":27363:27505   */\n    tag_261:\n        /* \"#utility.yul\":27413:27422   */\n      0x00\n        /* \"#utility.yul\":27446:27499   */\n      tag_518\n        /* \"#utility.yul\":27464:27498   */\n      tag_519\n        /* \"#utility.yul\":27473:27497   */\n      tag_520\n        /* \"#utility.yul\":27491:27496   */\n      dup5\n        /* \"#utility.yul\":27473:27497   */\n      tag_199\n      jump\t// in\n    tag_520:\n        /* \"#utility.yul\":27464:27498   */\n      tag_260\n      jump\t// in\n    tag_519:\n        /* \"#utility.yul\":27446:27499   */\n      tag_199\n      jump\t// in\n    tag_518:\n        /* \"#utility.yul\":27433:27499   */\n      swap1\n      pop\n        /* \"#utility.yul\":27363:27505   */\n      swap2\n      swap1\n      pop\n      jump\t// out\n        /* \"#utility.yul\":27511:27586   */\n    tag_262:\n        /* \"#utility.yul\":27554:27557   */\n      0x00\n        /* \"#utility.yul\":27575:27580   */\n      dup2\n        /* \"#utility.yul\":27568:27580   */\n      swap1\n      pop\n        /* \"#utility.yul\":27511:27586   */\n      swap2\n      swap1\n      pop\n      jump\t// out\n        /* \"#utility.yul\":27592:27861   */\n    tag_263:\n        /* \"#utility.yul\":27702:27741   */\n      tag_523\n        /* \"#utility.yul\":27733:27740   */\n      dup4\n        /* \"#utility.yul\":27702:27741   */\n      tag_261\n      jump\t// in\n    tag_523:\n        /* \"#utility.yul\":27763:27854   */\n      tag_524\n        /* \"#utility.yul\":27812:27853   */\n      tag_525\n        /* \"#utility.yul\":27836:27852   */\n      dup3\n        /* \"#utility.yul\":27812:27853   */\n      tag_262\n      jump\t// in\n    tag_525:\n        /* \"#utility.yul\":27804:27810   */\n      dup5\n        /* \"#utility.yul\":27797:27801   */\n      dup5\n        /* \"#utility.yul\":27791:27802   */\n      sload\n        /* \"#utility.yul\":27763:27854   */\n      tag_259\n      jump\t// in\n    tag_524:\n        /* \"#utility.yul\":27757:27761   */\n      dup3\n        /* \"#utility.yul\":27750:27855   */\n      sstore\n        /* \"#utility.yul\":27668:27861   */\n      pop\n        /* \"#utility.yul\":27592:27861   */\n      pop\n      pop\n      pop\n      jump\t// out\n        /* \"#utility.yul\":27867:27940   */\n    tag_264:\n        /* \"#utility.yul\":27912:27915   */\n      0x00\n        /* \"#utility.yul\":27933:27934   */\n      0x00\n        /* \"#utility.yul\":27926:27934   */\n      swap1\n      pop\n        /* \"#utility.yul\":27867:27940   */\n      swap1\n      jump\t// out\n        /* \"#utility.yul\":27946:28135   */\n    tag_265:\n        /* \"#utility.yul\":28023:28055   */\n      tag_528\n      tag_264\n      jump\t// in\n    tag_528:\n        /* \"#utility.yul\":28064:28129   */\n      tag_529\n        /* \"#utility.yul\":28122:28128   */\n      dup2\n        /* \"#utility.yul\":28114:28120   */\n      dup5\n        /* \"#utility.yul\":28108:28112   */\n      dup5\n        /* \"#utility.yul\":28064:28129   */\n      tag_263\n      jump\t// in\n    tag_529:\n        /* \"#utility.yul\":27999:28135   */\n      pop\n        /* \"#utility.yul\":27946:28135   */\n      pop\n      pop\n      jump\t// out\n        /* \"#utility.yul\":28141:28327   */\n    tag_266:\n        /* \"#utility.yul\":28201:28321   */\n    tag_531:\n        /* \"#utility.yul\":28218:28221   */\n      dup2\n        /* \"#utility.yul\":28211:28216   */\n      dup2\n        /* \"#utility.yul\":28208:28222   */\n      lt\n        /* \"#utility.yul\":28201:28321   */\n      iszero\n      tag_533\n      jumpi\n        /* \"#utility.yul\":28272:28311   */\n      tag_534\n        /* \"#utility.yul\":28309:28310   */\n      0x00\n        /* \"#utility.yul\":28302:28307   */\n      dup3\n        /* \"#utility.yul\":28272:28311   */\n      tag_265\n      jump\t// in\n    tag_534:\n        /* \"#utility.yul\":28245:28246   */\n      0x01\n        /* \"#utility.yul\":28238:28243   */\n      dup2\n        /* \"#utility.yul\":28234:28247   */\n      add\n        /* \"#utility.yul\":28225:28247   */\n      swap1\n      pop\n        /* \"#utility.yul\":28201:28321   */\n      jump(tag_531)\n    tag_533:\n        /* \"#utility.yul\":28141:28327   */\n      pop\n      pop\n      jump\t// out\n        /* \"#utility.yul\":28333:28876   */\n    tag_267:\n        /* \"#utility.yul\":28434:28436   */\n      0x1f\n        /* \"#utility.yul\":28429:28432   */\n      dup3\n        /* \"#utility.yul\":28426:28437   */\n      gt\n        /* \"#utility.yul\":28423:28869   */\n      iszero\n      tag_536\n      jumpi\n        /* \"#utility.yul\":28468:28506   */\n      tag_537\n        /* \"#utility.yul\":28500:28505   */\n      dup2\n        /* \"#utility.yul\":28468:28506   */\n      tag_256\n      jump\t// in\n    tag_537:\n        /* \"#utility.yul\":28552:28581   */\n      tag_538\n        /* \"#utility.yul\":28570:28580   */\n      dup5\n        /* \"#utility.yul\":28552:28581   */\n      tag_257\n      jump\t// in\n    tag_538:\n        /* \"#utility.yul\":28542:28550   */\n      dup2\n        /* \"#utility.yul\":28538:28582   */\n      add\n        /* \"#utility.yul\":28735:28737   */\n      0x20\n        /* \"#utility.yul\":28723:28733   */\n      dup6\n        /* \"#utility.yul\":28720:28738   */\n      lt\n        /* \"#utility.yul\":28717:28766   */\n      iszero\n      tag_539\n      jumpi\n        /* \"#utility.yul\":28756:28764   */\n      dup2\n        /* \"#utility.yul\":28741:28764   */\n      swap1\n      pop\n        /* \"#utility.yul\":28717:28766   */\n    tag_539:\n        /* \"#utility.yul\":28779:28859   */\n      tag_540\n        /* \"#utility.yul\":28835:28857   */\n      tag_541\n        /* \"#utility.yul\":28853:28856   */\n      dup6\n        /* \"#utility.yul\":28835:28857   */\n      tag_257\n      jump\t// in\n    tag_541:\n        /* \"#utility.yul\":28825:28833   */\n      dup4\n        /* \"#utility.yul\":28821:28858   */\n      add\n        /* \"#utility.yul\":28808:28819   */\n      dup3\n        /* \"#utility.yul\":28779:28859   */\n      tag_266\n      jump\t// in\n    tag_540:\n        /* \"#utility.yul\":28438:28869   */\n      pop\n      pop\n        /* \"#utility.yul\":28423:28869   */\n    tag_536:\n        /* \"#utility.yul\":28333:28876   */\n      pop\n      pop\n      pop\n      jump\t// out\n        /* \"#utility.yul\":28882:28999   */\n    tag_268:\n        /* \"#utility.yul\":28936:28944   */\n      0x00\n        /* \"#utility.yul\":28986:28991   */\n      dup3\n        /* \"#utility.yul\":28980:28984   */\n      dup3\n        /* \"#utility.yul\":28976:28992   */\n      shr\n        /* \"#utility.yul\":28955:28992   */\n      swap1\n      pop\n        /* \"#utility.yul\":28882:28999   */\n      swap3\n      swap2\n      pop\n      pop\n      jump\t// out\n        /* \"#utility.yul\":29005:29174   */\n    tag_269:\n        /* \"#utility.yul\":29049:29055   */\n      0x00\n        /* \"#utility.yul\":29082:29133   */\n      tag_544\n        /* \"#utility.yul\":29130:29131   */\n      0x00\n        /* \"#utility.yul\":29126:29132   */\n      not\n        /* \"#utility.yul\":29118:29123   */\n      dup5\n        /* \"#utility.yul\":29115:29116   */\n      0x08\n        /* \"#utility.yul\":29111:29124   */\n      mul\n        /* \"#utility.yul\":29082:29133   */\n      tag_268\n      jump\t// in\n    tag_544:\n        /* \"#utility.yul\":29078:29134   */\n      not\n        /* \"#utility.yul\":29163:29167   */\n      dup1\n        /* \"#utility.yul\":29157:29161   */\n      dup4\n        /* \"#utility.yul\":29153:29168   */\n      and\n        /* \"#utility.yul\":29143:29168   */\n      swap2\n      pop\n        /* \"#utility.yul\":29056:29174   */\n      pop\n        /* \"#utility.yul\":29005:29174   */\n      swap3\n      swap2\n      pop\n      pop\n      jump\t// out\n        /* \"#utility.yul\":29179:29474   */\n    tag_270:\n        /* \"#utility.yul\":29255:29259   */\n      0x00\n        /* \"#utility.yul\":29401:29430   */\n      tag_546\n        /* \"#utility.yul\":29426:29429   */\n      dup4\n        /* \"#utility.yul\":29420:29424   */\n      dup4\n        /* \"#utility.yul\":29401:29430   */\n      tag_269\n      jump\t// in\n    tag_546:\n        /* \"#utility.yul\":29393:29430   */\n      swap2\n      pop\n        /* \"#utility.yul\":29463:29466   */\n      dup3\n        /* \"#utility.yul\":29460:29461   */\n      0x02\n        /* \"#utility.yul\":29456:29467   */\n      mul\n        /* \"#utility.yul\":29450:29454   */\n      dup3\n        /* \"#utility.yul\":29447:29468   */\n      or\n        /* \"#utility.yul\":29439:29468   */\n      swap1\n      pop\n        /* \"#utility.yul\":29179:29474   */\n      swap3\n      swap2\n      pop\n      pop\n      jump\t// out\n        /* \"#utility.yul\":29479:30874   */\n    tag_122:\n        /* \"#utility.yul\":29596:29633   */\n      tag_548\n        /* \"#utility.yul\":29629:29632   */\n      dup3\n        /* \"#utility.yul\":29596:29633   */\n      tag_219\n      jump\t// in\n    tag_548:\n        /* \"#utility.yul\":29698:29716   */\n      0xffffffffffffffff\n        /* \"#utility.yul\":29690:29696   */\n      dup2\n        /* \"#utility.yul\":29687:29717   */\n      gt\n        /* \"#utility.yul\":29684:29740   */\n      iszero\n      tag_549\n      jumpi\n        /* \"#utility.yul\":29720:29738   */\n      tag_550\n      tag_208\n      jump\t// in\n    tag_550:\n        /* \"#utility.yul\":29684:29740   */\n    tag_549:\n        /* \"#utility.yul\":29764:29802   */\n      tag_551\n        /* \"#utility.yul\":29796:29800   */\n      dup3\n        /* \"#utility.yul\":29790:29801   */\n      sload\n        /* \"#utility.yul\":29764:29802   */\n      tag_143\n      jump\t// in\n    tag_551:\n        /* \"#utility.yul\":29849:29916   */\n      tag_552\n        /* \"#utility.yul\":29909:29915   */\n      dup3\n        /* \"#utility.yul\":29901:29907   */\n      dup3\n        /* \"#utility.yul\":29895:29899   */\n      dup6\n        /* \"#utility.yul\":29849:29916   */\n      tag_267\n      jump\t// in\n    tag_552:\n        /* \"#utility.yul\":29943:29944   */\n      0x00\n        /* \"#utility.yul\":29967:29971   */\n      0x20\n        /* \"#utility.yul\":29954:29971   */\n      swap1\n      pop\n        /* \"#utility.yul\":29999:30001   */\n      0x1f\n        /* \"#utility.yul\":29991:29997   */\n      dup4\n        /* \"#utility.yul\":29988:30002   */\n      gt\n        /* \"#utility.yul\":30016:30017   */\n      0x01\n        /* \"#utility.yul\":30011:30629   */\n      dup2\n      eq\n      tag_554\n      jumpi\n        /* \"#utility.yul\":30673:30674   */\n      0x00\n        /* \"#utility.yul\":30690:30696   */\n      dup5\n        /* \"#utility.yul\":30687:30764   */\n      iszero\n      tag_555\n      jumpi\n        /* \"#utility.yul\":30739:30748   */\n      dup3\n        /* \"#utility.yul\":30734:30737   */\n      dup8\n        /* \"#utility.yul\":30730:30749   */\n      add\n        /* \"#utility.yul\":30724:30750   */\n      mload\n        /* \"#utility.yul\":30715:30750   */\n      swap1\n      pop\n        /* \"#utility.yul\":30687:30764   */\n    tag_555:\n        /* \"#utility.yul\":30790:30857   */\n      tag_556\n        /* \"#utility.yul\":30850:30856   */\n      dup6\n        /* \"#utility.yul\":30843:30848   */\n      dup3\n        /* \"#utility.yul\":30790:30857   */\n      tag_270\n      jump\t// in\n    tag_556:\n        /* \"#utility.yul\":30784:30788   */\n      dup7\n        /* \"#utility.yul\":30777:30858   */\n      sstore\n        /* \"#utility.yul\":30646:30868   */\n      pop\n        /* \"#utility.yul\":29981:30868   */\n      jump(tag_553)\n        /* \"#utility.yul\":30011:30629   */\n    tag_554:\n        /* \"#utility.yul\":30063:30067   */\n      0x1f\n        /* \"#utility.yul\":30059:30068   */\n      not\n        /* \"#utility.yul\":30051:30057   */\n      dup5\n        /* \"#utility.yul\":30047:30069   */\n      and\n        /* \"#utility.yul\":30097:30134   */\n      tag_557\n        /* \"#utility.yul\":30129:30133   */\n      dup7\n        /* \"#utility.yul\":30097:30134   */\n      tag_256\n      jump\t// in\n    tag_557:\n        /* \"#utility.yul\":30156:30157   */\n      0x00\n        /* \"#utility.yul\":30170:30378   */\n    tag_558:\n        /* \"#utility.yul\":30184:30191   */\n      dup3\n        /* \"#utility.yul\":30181:30182   */\n      dup2\n        /* \"#utility.yul\":30178:30192   */\n      lt\n        /* \"#utility.yul\":30170:30378   */\n      iszero\n      tag_560\n      jumpi\n        /* \"#utility.yul\":30263:30272   */\n      dup5\n        /* \"#utility.yul\":30258:30261   */\n      dup10\n        /* \"#utility.yul\":30254:30273   */\n      add\n        /* \"#utility.yul\":30248:30274   */\n      mload\n        /* \"#utility.yul\":30240:30246   */\n      dup3\n        /* \"#utility.yul\":30233:30275   */\n      sstore\n        /* \"#utility.yul\":30314:30315   */\n      0x01\n        /* \"#utility.yul\":30306:30312   */\n      dup3\n        /* \"#utility.yul\":30302:30316   */\n      add\n        /* \"#utility.yul\":30292:30316   */\n      swap2\n      pop\n        /* \"#utility.yul\":30361:30363   */\n      0x20\n        /* \"#utility.yul\":30350:30359   */\n      dup6\n        /* \"#utility.yul\":30346:30364   */\n      add\n        /* \"#utility.yul\":30333:30364   */\n      swap5\n      pop\n        /* \"#utility.yul\":30207:30211   */\n      0x20\n        /* \"#utility.yul\":30204:30205   */\n      dup2\n        /* \"#utility.yul\":30200:30212   */\n      add\n        /* \"#utility.yul\":30195:30212   */\n      swap1\n      pop\n        /* \"#utility.yul\":30170:30378   */\n      jump(tag_558)\n    tag_560:\n        /* \"#utility.yul\":30406:30412   */\n      dup7\n        /* \"#utility.yul\":30397:30404   */\n      dup4\n        /* \"#utility.yul\":30394:30413   */\n      lt\n        /* \"#utility.yul\":30391:30570   */\n      iszero\n      tag_561\n      jumpi\n        /* \"#utility.yul\":30464:30473   */\n      dup5\n        /* \"#utility.yul\":30459:30462   */\n      dup10\n        /* \"#utility.yul\":30455:30474   */\n      add\n        /* \"#utility.yul\":30449:30475   */\n      mload\n        /* \"#utility.yul\":30507:30555   */\n      tag_562\n        /* \"#utility.yul\":30549:30553   */\n      0x1f\n        /* \"#utility.yul\":30541:30547   */\n      dup10\n        /* \"#utility.yul\":30537:30554   */\n      and\n        /* \"#utility.yul\":30526:30535   */\n      dup3\n        /* \"#utility.yul\":30507:30555   */\n      tag_269\n      jump\t// in\n    tag_562:\n        /* \"#utility.yul\":30499:30505   */\n      dup4\n        /* \"#utility.yul\":30492:30556   */\n      sstore\n        /* \"#utility.yul\":30414:30570   */\n      pop\n        /* \"#utility.yul\":30391:30570   */\n    tag_561:\n        /* \"#utility.yul\":30616:30617   */\n      0x01\n        /* \"#utility.yul\":30612:30613   */\n      0x02\n        /* \"#utility.yul\":30604:30610   */\n      dup9\n        /* \"#utility.yul\":30600:30614   */\n      mul\n        /* \"#utility.yul\":30596:30618   */\n      add\n        /* \"#utility.yul\":30590:30594   */\n      dup9\n        /* \"#utility.yul\":30583:30619   */\n      sstore\n        /* \"#utility.yul\":30018:30629   */\n      pop\n      pop\n      pop\n        /* \"#utility.yul\":29981:30868   */\n    tag_553:\n      pop\n        /* \"#utility.yul\":29571:30874   */\n      pop\n      pop\n      pop\n        /* \"#utility.yul\":29479:30874   */\n      pop\n      pop\n      jump\t// out\n        /* \"#utility.yul\":30880:31516   */\n    tag_124:\n        /* \"#utility.yul\":31073:31077   */\n      0x00\n        /* \"#utility.yul\":31111:31114   */\n      0x80\n        /* \"#utility.yul\":31100:31109   */\n      dup3\n        /* \"#utility.yul\":31096:31115   */\n      add\n        /* \"#utility.yul\":31088:31115   */\n      swap1\n      pop\n        /* \"#utility.yul\":31125:31196   */\n      tag_564\n        /* \"#utility.yul\":31193:31194   */\n      0x00\n        /* \"#utility.yul\":31182:31191   */\n      dup4\n        /* \"#utility.yul\":31178:31195   */\n      add\n        /* \"#utility.yul\":31169:31175   */\n      dup8\n        /* \"#utility.yul\":31125:31196   */\n      tag_223\n      jump\t// in\n    tag_564:\n        /* \"#utility.yul\":31206:31276   */\n      tag_565\n        /* \"#utility.yul\":31272:31274   */\n      0x20\n        /* \"#utility.yul\":31261:31270   */\n      dup4\n        /* \"#utility.yul\":31257:31275   */\n      add\n        /* \"#utility.yul\":31248:31254   */\n      dup7\n        /* \"#utility.yul\":31206:31276   */\n      tag_218\n      jump\t// in\n    tag_565:\n        /* \"#utility.yul\":31286:31356   */\n      tag_566\n        /* \"#utility.yul\":31352:31354   */\n      0x40\n        /* \"#utility.yul\":31341:31350   */\n      dup4\n        /* \"#utility.yul\":31337:31355   */\n      add\n        /* \"#utility.yul\":31328:31334   */\n      dup6\n        /* \"#utility.yul\":31286:31356   */\n      tag_218\n      jump\t// in\n    tag_566:\n        /* \"#utility.yul\":31403:31412   */\n      dup2\n        /* \"#utility.yul\":31397:31401   */\n      dup2\n        /* \"#utility.yul\":31393:31413   */\n      sub\n        /* \"#utility.yul\":31388:31390   */\n      0x60\n        /* \"#utility.yul\":31377:31386   */\n      dup4\n        /* \"#utility.yul\":31373:31391   */\n      add\n        /* \"#utility.yul\":31366:31414   */\n      mstore\n        /* \"#utility.yul\":31431:31509   */\n      tag_567\n        /* \"#utility.yul\":31504:31508   */\n      dup2\n        /* \"#utility.yul\":31495:31501   */\n      dup5\n        /* \"#utility.yul\":31431:31509   */\n      tag_222\n      jump\t// in\n    tag_567:\n        /* \"#utility.yul\":31423:31509   */\n      swap1\n      pop\n        /* \"#utility.yul\":30880:31516   */\n      swap6\n      swap5\n      pop\n      pop\n      pop\n      pop\n      pop\n      jump\t// out\n        /* \"#utility.yul\":31522:31684   */\n    tag_271:\n        /* \"#utility.yul\":31662:31676   */\n      0x4e6f742072657461696c65720000000000000000000000000000000000000000\n        /* \"#utility.yul\":31658:31659   */\n      0x00\n        /* \"#utility.yul\":31650:31656   */\n      dup3\n        /* \"#utility.yul\":31646:31660   */\n      add\n        /* \"#utility.yul\":31639:31677   */\n      mstore\n        /* \"#utility.yul\":31522:31684   */\n      pop\n      jump\t// out\n        /* \"#utility.yul\":31690:32056   */\n    tag_272:\n        /* \"#utility.yul\":31832:31835   */\n      0x00\n        /* \"#utility.yul\":31853:31920   */\n      tag_570\n        /* \"#utility.yul\":31917:31919   */\n      0x0c\n        /* \"#utility.yul\":31912:31915   */\n      dup4\n        /* \"#utility.yul\":31853:31920   */\n      tag_220\n      jump\t// in\n    tag_570:\n        /* \"#utility.yul\":31846:31920   */\n      swap2\n      pop\n        /* \"#utility.yul\":31929:32022   */\n      tag_571\n        /* \"#utility.yul\":32018:32021   */\n      dup3\n        /* \"#utility.yul\":31929:32022   */\n      tag_271\n      jump\t// in\n    tag_571:\n        /* \"#utility.yul\":32047:32049   */\n      0x20\n        /* \"#utility.yul\":32042:32045   */\n      dup3\n        /* \"#utility.yul\":32038:32050   */\n      add\n        /* \"#utility.yul\":32031:32050   */\n      swap1\n      pop\n        /* \"#utility.yul\":31690:32056   */\n      swap2\n      swap1\n      pop\n      jump\t// out\n        /* \"#utility.yul\":32062:32481   */\n    tag_132:\n        /* \"#utility.yul\":32228:32232   */\n      0x00\n        /* \"#utility.yul\":32266:32268   */\n      0x20\n        /* \"#utility.yul\":32255:32264   */\n      dup3\n        /* \"#utility.yul\":32251:32269   */\n      add\n        /* \"#utility.yul\":32243:32269   */\n      swap1\n      pop\n        /* \"#utility.yul\":32315:32324   */\n      dup2\n        /* \"#utility.yul\":32309:32313   */\n      dup2\n        /* \"#utility.yul\":32305:32325   */\n      sub\n        /* \"#utility.yul\":32301:32302   */\n      0x00\n        /* \"#utility.yul\":32290:32299   */\n      dup4\n        /* \"#utility.yul\":32286:32303   */\n      add\n        /* \"#utility.yul\":32279:32326   */\n      mstore\n        /* \"#utility.yul\":32343:32474   */\n      tag_573\n        /* \"#utility.yul\":32469:32473   */\n      dup2\n        /* \"#utility.yul\":32343:32474   */\n      tag_272\n      jump\t// in\n    tag_573:\n        /* \"#utility.yul\":32335:32474   */\n      swap1\n      pop\n        /* \"#utility.yul\":32062:32481   */\n      swap2\n      swap1\n      pop\n      jump\t// out\n        /* \"#utility.yul\":32487:32807   */\n    tag_135:\n        /* \"#utility.yul\":32602:32606   */\n      0x00\n        /* \"#utility.yul\":32640:32642   */\n      0x40\n        /* \"#utility.yul\":32629:32638   */\n      dup3\n        /* \"#utility.yul\":32625:32643   */\n      add\n        /* \"#utility.yul\":32617:32643   */\n      swap1\n      pop\n        /* \"#utility.yul\":32653:32724   */\n      tag_575\n        /* \"#utility.yul\":32721:32722   */\n      0x00\n        /* \"#utility.yul\":32710:32719   */\n      dup4\n        /* \"#utility.yul\":32706:32723   */\n      add\n        /* \"#utility.yul\":32697:32703   */\n      dup6\n        /* \"#utility.yul\":32653:32724   */\n      tag_223\n      jump\t// in\n    tag_575:\n        /* \"#utility.yul\":32734:32800   */\n      tag_576\n        /* \"#utility.yul\":32796:32798   */\n      0x20\n        /* \"#utility.yul\":32785:32794   */\n      dup4\n        /* \"#utility.yul\":32781:32799   */\n      add\n        /* \"#utility.yul\":32772:32778   */\n      dup5\n        /* \"#utility.yul\":32734:32800   */\n      tag_198\n      jump\t// in\n    tag_576:\n        /* \"#utility.yul\":32487:32807   */\n      swap4\n      swap3\n      pop\n      pop\n      pop\n      jump\t// out\n        /* \"#utility.yul\":32813:32975   */\n    tag_273:\n        /* \"#utility.yul\":32953:32967   */\n      0x4e6f742070726f64756365720000000000000000000000000000000000000000\n        /* \"#utility.yul\":32949:32950   */\n      0x00\n        /* \"#utility.yul\":32941:32947   */\n      dup3\n        /* \"#utility.yul\":32937:32951   */\n      add\n        /* \"#utility.yul\":32930:32968   */\n      mstore\n        /* \"#utility.yul\":32813:32975   */\n      pop\n      jump\t// out\n        /* \"#utility.yul\":32981:33347   */\n    tag_274:\n        /* \"#utility.yul\":33123:33126   */\n      0x00\n        /* \"#utility.yul\":33144:33211   */\n      tag_579\n        /* \"#utility.yul\":33208:33210   */\n      0x0c\n        /* \"#utility.yul\":33203:33206   */\n      dup4\n        /* \"#utility.yul\":33144:33211   */\n      tag_220\n      jump\t// in\n    tag_579:\n        /* \"#utility.yul\":33137:33211   */\n      swap2\n      pop\n        /* \"#utility.yul\":33220:33313   */\n      tag_580\n        /* \"#utility.yul\":33309:33312   */\n      dup3\n        /* \"#utility.yul\":33220:33313   */\n      tag_273\n      jump\t// in\n    tag_580:\n        /* \"#utility.yul\":33338:33340   */\n      0x20\n        /* \"#utility.yul\":33333:33336   */\n      dup3\n        /* \"#utility.yul\":33329:33341   */\n      add\n        /* \"#utility.yul\":33322:33341   */\n      swap1\n      pop\n        /* \"#utility.yul\":32981:33347   */\n      swap2\n      swap1\n      pop\n      jump\t// out\n        /* \"#utility.yul\":33353:33772   */\n    tag_177:\n        /* \"#utility.yul\":33519:33523   */\n      0x00\n        /* \"#utility.yul\":33557:33559   */\n      0x20\n        /* \"#utility.yul\":33546:33555   */\n      dup3\n        /* \"#utility.yul\":33542:33560   */\n      add\n        /* \"#utility.yul\":33534:33560   */\n      swap1\n      pop\n        /* \"#utility.yul\":33606:33615   */\n      dup2\n        /* \"#utility.yul\":33600:33604   */\n      dup2\n        /* \"#utility.yul\":33596:33616   */\n      sub\n        /* \"#utility.yul\":33592:33593   */\n      0x00\n        /* \"#utility.yul\":33581:33590   */\n      dup4\n        /* \"#utility.yul\":33577:33594   */\n      add\n        /* \"#utility.yul\":33570:33617   */\n      mstore\n        /* \"#utility.yul\":33634:33765   */\n      tag_582\n        /* \"#utility.yul\":33760:33764   */\n      dup2\n        /* \"#utility.yul\":33634:33765   */\n      tag_274\n      jump\t// in\n    tag_582:\n        /* \"#utility.yul\":33626:33765   */\n      swap1\n      pop\n        /* \"#utility.yul\":33353:33772   */\n      swap2\n      swap1\n      pop\n      jump\t// out\n        /* \"#utility.yul\":33778:33940   */\n    tag_275:\n        /* \"#utility.yul\":33918:33932   */\n      0x4261746368206578697374730000000000000000000000000000000000000000\n        /* \"#utility.yul\":33914:33915   */\n      0x00\n        /* \"#utility.yul\":33906:33912   */\n      dup3\n        /* \"#utility.yul\":33902:33916   */\n      add\n        /* \"#utility.yul\":33895:33933   */\n      mstore\n        /* \"#utility.yul\":33778:33940   */\n      pop\n      jump\t// out\n        /* \"#utility.yul\":33946:34312   */\n    tag_276:\n        /* \"#utility.yul\":34088:34091   */\n      0x00\n        /* \"#utility.yul\":34109:34176   */\n      tag_585\n        /* \"#utility.yul\":34173:34175   */\n      0x0c\n        /* \"#utility.yul\":34168:34171   */\n      dup4\n        /* \"#utility.yul\":34109:34176   */\n      tag_220\n      jump\t// in\n    tag_585:\n        /* \"#utility.yul\":34102:34176   */\n      swap2\n      pop\n        /* \"#utility.yul\":34185:34278   */\n      tag_586\n        /* \"#utility.yul\":34274:34277   */\n      dup3\n        /* \"#utility.yul\":34185:34278   */\n      tag_275\n      jump\t// in\n    tag_586:\n        /* \"#utility.yul\":34303:34305   */\n      0x20\n        /* \"#utility.yul\":34298:34301   */\n      dup3\n        /* \"#utility.yul\":34294:34306   */\n      add\n        /* \"#utility.yul\":34287:34306   */\n      swap1\n      pop\n        /* \"#utility.yul\":33946:34312   */\n      swap2\n      swap1\n      pop\n      jump\t// out\n        /* \"#utility.yul\":34318:34737   */\n    tag_181:\n        /* \"#utility.yul\":34484:34488   */\n      0x00\n        /* \"#utility.yul\":34522:34524   */\n      0x20\n        /* \"#utility.yul\":34511:34520   */\n      dup3\n        /* \"#utility.yul\":34507:34525   */\n      add\n        /* \"#utility.yul\":34499:34525   */\n      swap1\n      pop\n        /* \"#utility.yul\":34571:34580   */\n      dup2\n        /* \"#utility.yul\":34565:34569   */\n      dup2\n        /* \"#utility.yul\":34561:34581   */\n      sub\n        /* \"#utility.yul\":34557:34558   */\n      0x00\n        /* \"#utility.yul\":34546:34555   */\n      dup4\n        /* \"#utility.yul\":34542:34559   */\n      add\n        /* \"#utility.yul\":34535:34582   */\n      mstore\n        /* \"#utility.yul\":34599:34730   */\n      tag_588\n        /* \"#utility.yul\":34725:34729   */\n      dup2\n        /* \"#utility.yul\":34599:34730   */\n      tag_276\n      jump\t// in\n    tag_588:\n        /* \"#utility.yul\":34591:34730   */\n      swap1\n      pop\n        /* \"#utility.yul\":34318:34737   */\n      swap2\n      swap1\n      pop\n      jump\t// out\n        /* \"#utility.yul\":34743:35276   */\n    tag_185:\n        /* \"#utility.yul\":34912:34916   */\n      0x00\n        /* \"#utility.yul\":34950:34952   */\n      0x60\n        /* \"#utility.yul\":34939:34948   */\n      dup3\n        /* \"#utility.yul\":34935:34953   */\n      add\n        /* \"#utility.yul\":34927:34953   */\n      swap1\n      pop\n        /* \"#utility.yul\":34963:35034   */\n      tag_590\n        /* \"#utility.yul\":35031:35032   */\n      0x00\n        /* \"#utility.yul\":35020:35029   */\n      dup4\n        /* \"#utility.yul\":35016:35033   */\n      add\n        /* \"#utility.yul\":35007:35013   */\n      dup7\n        /* \"#utility.yul\":34963:35034   */\n      tag_223\n      jump\t// in\n    tag_590:\n        /* \"#utility.yul\":35081:35090   */\n      dup2\n        /* \"#utility.yul\":35075:35079   */\n      dup2\n        /* \"#utility.yul\":35071:35091   */\n      sub\n        /* \"#utility.yul\":35066:35068   */\n      0x20\n        /* \"#utility.yul\":35055:35064   */\n      dup4\n        /* \"#utility.yul\":35051:35069   */\n      add\n        /* \"#utility.yul\":35044:35092   */\n      mstore\n        /* \"#utility.yul\":35109:35187   */\n      tag_591\n        /* \"#utility.yul\":35182:35186   */\n      dup2\n        /* \"#utility.yul\":35173:35179   */\n      dup6\n        /* \"#utility.yul\":35109:35187   */\n      tag_222\n      jump\t// in\n    tag_591:\n        /* \"#utility.yul\":35101:35187   */\n      swap1\n      pop\n        /* \"#utility.yul\":35197:35269   */\n      tag_592\n        /* \"#utility.yul\":35265:35267   */\n      0x40\n        /* \"#utility.yul\":35254:35263   */\n      dup4\n        /* \"#utility.yul\":35250:35268   */\n      add\n        /* \"#utility.yul\":35241:35247   */\n      dup5\n        /* \"#utility.yul\":35197:35269   */\n      tag_223\n      jump\t// in\n    tag_592:\n        /* \"#utility.yul\":34743:35276   */\n      swap5\n      swap4\n      pop\n      pop\n      pop\n      pop\n      jump\t// out\n\n    auxdata: 0xa2646970667358221220f582b69fa78e10b99fa904aaa719c0341c9b4dee5844c86c13c8f7ff84176f2f64736f6c634300081e0033\n}\n",
				"bytecode": {
					"linkReferences": {},
					"object": "6080604052348015600e575f5ffd5b50335f5f6101000a81548173ffffffffffffffffffffffffffffffffffffffff021916908373ffffffffffffffffffffffffffffffffffffffff1602179055506125a98061005b5f395ff3fe608060405234801561000f575f5ffd5b5060043610610109575f3560e01c8063a83006da116100a0578063c9cf2adc1161006f578063c9cf2adc146102cd578063cc642784146102fe578063e25bd1581461032e578063f33c7bcc1461035e578063fa6d8c5f1461037a57610109565b8063a83006da14610217578063ac98d96914610233578063b32c4d8d14610266578063c7a8ccb11461029b57610109565b80633c530ace116100dc5780633c530ace14610191578063554bb5d4146101ad5780638da5cb5b146101c95780639a268f35146101e757610109565b806326324eff1461010d57806329507f731461013d57806331ab051814610159578063386e6ad014610175575b5f5ffd5b610127600480360381019061012291906115c9565b610396565b604051610134919061160e565b60405180910390f35b6101576004803603810190610152919061165a565b6103b3565b005b610173600480360381019061016e91906115c9565b610597565b005b61018f600480360381019061018a9190611807565b61067d565b005b6101ab60048036038101906101a691906115c9565b610895565b005b6101c760048036038101906101c291906118b1565b61097a565b005b6101d1610a99565b6040516101de91906118fe565b60405180910390f35b61020160048036038101906101fc91906115c9565b610abd565b60405161020e919061160e565b60405180910390f35b610231600480360381019061022c91906115c9565b610ada565b005b61024d60048036038101906102489190611917565b610bc0565b60405161025d94939291906119d3565b60405180910390f35b610280600480360381019061027b9190611a1d565b610c8c565b60405161029296959493929190611a48565b60405180910390f35b6102b560048036038101906102b09190611a1d565b610d83565b6040516102c493929190611da8565b60405180910390f35b6102e760048036038101906102e29190611917565b6110c1565b6040516102f5929190611df2565b60405180910390f35b610318600480360381019061031391906115c9565b61111a565b604051610325919061160e565b60405180910390f35b610348600480360381019061034391906115c9565b611137565b604051610355919061160e565b60405180910390f35b61037860048036038101906103739190611e19565b611154565b005b610394600480360381019061038f91906115c9565b61142d565b005b6001602052805f5260405f205f915054906101000a900460ff1681565b3373ffffffffffffffffffffffffffffffffffffffff1660055f8481526020019081526020015f206003015f9054906101000a900473ffffffffffffffffffffffffffffffffffffffff1673ffffffffffffffffffffffffffffffffffffffff1614610454576040517f08c379a000000000000000000000000000000000000000000000000000000000815260040161044b90611ecf565b60405180910390fd5b8060055f8481526020019081526020015f206003015f6101000a81548173ffffffffffffffffffffffffffffffffffffffff021916908373ffffffffffffffffffffffffffffffffffffffff16021790555060075f8381526020019081526020015f2060405180604001604052808373ffffffffffffffffffffffffffffffffffffffff16815260200142815250908060018154018082558091505060019003905f5260205f2090600202015f909190919091505f820151815f015f6101000a81548173ffffffffffffffffffffffffffffffffffffffff021916908373ffffffffffffffffffffffffffffffffffffffff1602179055506020820151816001015550507f16b85f49bf01212961345d3016c9a531894accf62eb7680f2045d79185cc0ec082338360405161058b93929190611eed565b60405180910390a15050565b5f5f9054906101000a900473ffffffffffffffffffffffffffffffffffffffff1673ffffffffffffffffffffffffffffffffffffffff163373ffffffffffffffffffffffffffffffffffffffff1614610625576040517f08c379a000000000000000000000000000000000000000000000000000000000815260040161061c90611f6c565b60405180910390fd5b600160035f8373ffffffffffffffffffffffffffffffffffffffff1673ffffffffffffffffffffffffffffffffffffffff1681526020019081526020015f205f6101000a81548160ff02191690831515021790555050565b60025f3373ffffffffffffffffffffffffffffffffffffffff1673ffffffffffffffffffffffffffffffffffffffff1681526020019081526020015f205f9054906101000a900460ff16610706576040517f08c379a00000000000000000000000000000000000000000000000000000000081526004016106fd90611fd4565b60405180910390fd5b7ffffffffffffffffffffffffffffffffffffffffffffffffffffffffffffffff68312158015610737575060288313155b610776576040517f08c379a000000000000000000000000000000000000000000000000000000000815260040161076d9061203c565b60405180910390fd5b5f8212158015610787575060288213155b6107c6576040517f08c379a00000000000000000000000000000000000000000000000000000000081526004016107bd906120a4565b60405180910390fd5b60065f8581526020019081526020015f20604051806080016040528085815260200184815260200183815260200142815250908060018154018082558091505060019003905f5260205f2090600402015f909190919091505f820151815f015560208201518160010155604082015181600201908161084591906122bf565b506060820151816003015550507f51317e2c1e7f4edde20c7837e1ebc06a6fd0be9034355b939bd4f13484b1c7e584848484604051610887949392919061238e565b60405180910390a150505050565b5f5f9054906101000a900473ffffffffffffffffffffffffffffffffffffffff1673ffffffffffffffffffffffffffffffffffffffff163373ffffffffffffffffffffffffffffffffffffffff1614610923576040517f08c379a000000000000000000000000000000000000000000000000000000000815260040161091a90611f6c565b60405180910390fd5b6001805f8373ffffffffffffffffffffffffffffffffffffffff1673ffffffffffffffffffffffffffffffffffffffff1681526020019081526020015f205f6101000a81548160ff02191690831515021790555050565b60045f3373ffffffffffffffffffffffffffffffffffffffff1673ffffffffffffffffffffffffffffffffffffffff1681526020019081526020015f205f9054906101000a900460ff16610a03576040517f08c379a00000000000000000000000000000000000000000000000000000000081526004016109fa90612422565b60405180910390fd5b600160055f8481526020019081526020015f2060030160146101000a81548160ff0219169083151502179055508060055f8481526020019081526020015f2060030160156101000a81548160ff0219169083151502179055507f724d0640ccf2a4b2b428dcc054429a8131c2824deb77e5eb5bd21e38454bb0ee8282604051610a8d929190612440565b60405180910390a15050565b5f5f9054906101000a900473ffffffffffffffffffffffffffffffffffffffff1681565b6004602052805f5260405f205f915054906101000a900460ff1681565b5f5f9054906101000a900473ffffffffffffffffffffffffffffffffffffffff1673ffffffffffffffffffffffffffffffffffffffff163373ffffffffffffffffffffffffffffffffffffffff1614610b68576040517f08c379a0000000000000000000000000000000000000000000000000000000008152600401610b5f90611f6c565b60405180910390fd5b600160045f8373ffffffffffffffffffffffffffffffffffffffff1673ffffffffffffffffffffffffffffffffffffffff1681526020019081526020015f205f6101000a81548160ff02191690831515021790555050565b6006602052815f5260405f208181548110610bd9575f80fd5b905f5260205f2090600402015f9150915050805f015490806001015490806002018054610c05906120ef565b80601f0160208091040260200160405190810160405280929190818152602001828054610c31906120ef565b8015610c7c5780601f10610c5357610100808354040283529160200191610c7c565b820191905f5260205f20905b815481529060010190602001808311610c5f57829003601f168201915b5050505050908060030154905084565b6005602052805f5260405f205f91509050805f015490806001018054610cb1906120ef565b80601f0160208091040260200160405190810160405280929190818152602001828054610cdd906120ef565b8015610d285780601f10610cff57610100808354040283529160200191610d28565b820191905f5260205f20905b815481529060010190602001808311610d0b57829003601f168201915b505050505090806002015490806003015f9054906101000a900473ffffffffffffffffffffffffffffffffffffffff16908060030160149054906101000a900460ff16908060030160159054906101000a900460ff16905086565b610d8b611513565b60608060055f8581526020019081526020015f2060065f8681526020019081526020015f2060075f8781526020019081526020015f20826040518060c00160405290815f8201548152602001600182018054610de6906120ef565b80601f0160208091040260200160405190810160405280929190818152602001828054610e12906120ef565b8015610e5d5780601f10610e3457610100808354040283529160200191610e5d565b820191905f5260205f20905b815481529060010190602001808311610e4057829003601f168201915b5050505050815260200160028201548152602001600382015f9054906101000a900473ffffffffffffffffffffffffffffffffffffffff1673ffffffffffffffffffffffffffffffffffffffff1673ffffffffffffffffffffffffffffffffffffffff1681526020016003820160149054906101000a900460ff161515151581526020016003820160159054906101000a900460ff161515151581525050925081805480602002602001604051908101604052809291908181526020015f905b82821015610ffa578382905f5260205f2090600402016040518060800160405290815f820154815260200160018201548152602001600282018054610f61906120ef565b80601f0160208091040260200160405190810160405280929190818152602001828054610f8d906120ef565b8015610fd85780601f10610faf57610100808354040283529160200191610fd8565b820191905f5260205f20905b815481529060010190602001808311610fbb57829003601f168201915b5050505050815260200160038201548152505081526020019060010190610f1d565b50505050915080805480602002602001604051908101604052809291908181526020015f905b828210156110ae578382905f5260205f2090600202016040518060400160405290815f82015f9054906101000a900473ffffffffffffffffffffffffffffffffffffffff1673ffffffffffffffffffffffffffffffffffffffff1673ffffffffffffffffffffffffffffffffffffffff16815260200160018201548152505081526020019060010190611020565b5050505090509250925092509193909250565b6007602052815f5260405f2081815481106110da575f80fd5b905f5260205f2090600202015f9150915050805f015f9054906101000a900473ffffffffffffffffffffffffffffffffffffffff16908060010154905082565b6003602052805f5260405f205f915054906101000a900460ff1681565b6002602052805f5260405f205f915054906101000a900460ff1681565b60015f3373ffffffffffffffffffffffffffffffffffffffff1673ffffffffffffffffffffffffffffffffffffffff1681526020019081526020015f205f9054906101000a900460ff166111dd576040517f08c379a00000000000000000000000000000000000000000000000000000000081526004016111d4906124b1565b60405180910390fd5b5f60055f8581526020019081526020015f205f015414611232576040517f08c379a000000000000000000000000000000000000000000000000000000000815260040161122990612519565b60405180910390fd5b6040518060c001604052808481526020018381526020018281526020013373ffffffffffffffffffffffffffffffffffffffff1681526020015f151581526020015f151581525060055f8581526020019081526020015f205f820151815f015560208201518160010190816112a791906122bf565b50604082015181600201556060820151816003015f6101000a81548173ffffffffffffffffffffffffffffffffffffffff021916908373ffffffffffffffffffffffffffffffffffffffff16021790555060808201518160030160146101000a81548160ff02191690831515021790555060a08201518160030160156101000a81548160ff02191690831515021790555090505060075f8481526020019081526020015f2060405180604001604052803373ffffffffffffffffffffffffffffffffffffffff16815260200142815250908060018154018082558091505060019003905f5260205f2090600202015f909190919091505f820151815f015f6101000a81548173ffffffffffffffffffffffffffffffffffffffff021916908373ffffffffffffffffffffffffffffffffffffffff1602179055506020820151816001015550507f58c168780de5fc719a1e7a85c7eca394e664c0e74b7c9ebc621f0b093112d04b83838360405161142093929190612537565b60405180910390a1505050565b5f5f9054906101000a900473ffffffffffffffffffffffffffffffffffffffff1673ffffffffffffffffffffffffffffffffffffffff163373ffffffffffffffffffffffffffffffffffffffff16146114bb576040517f08c379a00000000000000000000000000000000000000000000000000000000081526004016114b290611f6c565b60405180910390fd5b600160025f8373ffffffffffffffffffffffffffffffffffffffff1673ffffffffffffffffffffffffffffffffffffffff1681526020019081526020015f205f6101000a81548160ff02191690831515021790555050565b6040518060c001604052805f8152602001606081526020015f81526020015f73ffffffffffffffffffffffffffffffffffffffff1681526020015f151581526020015f151581525090565b5f604051905090565b5f5ffd5b5f5ffd5b5f73ffffffffffffffffffffffffffffffffffffffff82169050919050565b5f6115988261156f565b9050919050565b6115a88161158e565b81146115b2575f5ffd5b50565b5f813590506115c38161159f565b92915050565b5f602082840312156115de576115dd611567565b5b5f6115eb848285016115b5565b91505092915050565b5f8115159050919050565b611608816115f4565b82525050565b5f6020820190506116215f8301846115ff565b92915050565b5f819050919050565b61163981611627565b8114611643575f5ffd5b50565b5f8135905061165481611630565b92915050565b5f5f604083850312156116705761166f611567565b5b5f61167d85828601611646565b925050602061168e858286016115b5565b9150509250929050565b5f819050919050565b6116aa81611698565b81146116b4575f5ffd5b50565b5f813590506116c5816116a1565b92915050565b5f5ffd5b5f5ffd5b5f601f19601f8301169050919050565b7f4e487b71000000000000000000000000000000000000000000000000000000005f52604160045260245ffd5b611719826116d3565b810181811067ffffffffffffffff82111715611738576117376116e3565b5b80604052505050565b5f61174a61155e565b90506117568282611710565b919050565b5f67ffffffffffffffff821115611775576117746116e3565b5b61177e826116d3565b9050602081019050919050565b828183375f83830152505050565b5f6117ab6117a68461175b565b611741565b9050828152602081018484840111156117c7576117c66116cf565b5b6117d284828561178b565b509392505050565b5f82601f8301126117ee576117ed6116cb565b5b81356117fe848260208601611799565b91505092915050565b5f5f5f5f6080858703121561181f5761181e611567565b5b5f61182c87828801611646565b945050602061183d878288016116b7565b935050604061184e878288016116b7565b925050606085013567ffffffffffffffff81111561186f5761186e61156b565b5b61187b878288016117da565b91505092959194509250565b611890816115f4565b811461189a575f5ffd5b50565b5f813590506118ab81611887565b92915050565b5f5f604083850312156118c7576118c6611567565b5b5f6118d485828601611646565b92505060206118e58582860161189d565b9150509250929050565b6118f88161158e565b82525050565b5f6020820190506119115f8301846118ef565b92915050565b5f5f6040838503121561192d5761192c611567565b5b5f61193a85828601611646565b925050602061194b85828601611646565b9150509250929050565b61195e81611698565b82525050565b5f81519050919050565b5f82825260208201905092915050565b8281835e5f83830152505050565b5f61199682611964565b6119a0818561196e565b93506119b081856020860161197e565b6119b9816116d3565b840191505092915050565b6119cd81611627565b82525050565b5f6080820190506119e65f830187611955565b6119f36020830186611955565b8181036040830152611a05818561198c565b9050611a1460608301846119c4565b95945050505050565b5f60208284031215611a3257611a31611567565b5b5f611a3f84828501611646565b91505092915050565b5f60c082019050611a5b5f8301896119c4565b8181036020830152611a6d818861198c565b9050611a7c60408301876119c4565b611a8960608301866118ef565b611a9660808301856115ff565b611aa360a08301846115ff565b979650505050505050565b611ab781611627565b82525050565b5f82825260208201905092915050565b5f611ad782611964565b611ae18185611abd565b9350611af181856020860161197e565b611afa816116d3565b840191505092915050565b611b0e8161158e565b82525050565b611b1d816115f4565b82525050565b5f60c083015f830151611b385f860182611aae565b5060208301518482036020860152611b508282611acd565b9150506040830151611b656040860182611aae565b506060830151611b786060860182611b05565b506080830151611b8b6080860182611b14565b5060a0830151611b9e60a0860182611b14565b508091505092915050565b5f81519050919050565b5f82825260208201905092915050565b5f819050602082019050919050565b611bdb81611698565b82525050565b5f608083015f830151611bf65f860182611bd2565b506020830151611c096020860182611bd2565b5060408301518482036040860152611c218282611acd565b9150506060830151611c366060860182611aae565b508091505092915050565b5f611c4c8383611be1565b905092915050565b5f602082019050919050565b5f611c6a82611ba9565b611c748185611bb3565b935083602082028501611c8685611bc3565b805f5b85811015611cc15784840389528151611ca28582611c41565b9450611cad83611c54565b925060208a01995050600181019050611c89565b50829750879550505050505092915050565b5f81519050919050565b5f82825260208201905092915050565b5f819050602082019050919050565b604082015f820151611d105f850182611b05565b506020820151611d236020850182611aae565b50505050565b5f611d348383611cfc565b60408301905092915050565b5f602082019050919050565b5f611d5682611cd3565b611d608185611cdd565b9350611d6b83611ced565b805f5b83811015611d9b578151611d828882611d29565b9750611d8d83611d40565b925050600181019050611d6e565b5085935050505092915050565b5f6060820190508181035f830152611dc08186611b23565b90508181036020830152611dd48185611c60565b90508181036040830152611de88184611d4c565b9050949350505050565b5f604082019050611e055f8301856118ef565b611e1260208301846119c4565b9392505050565b5f5f5f60608486031215611e3057611e2f611567565b5b5f611e3d86828701611646565b935050602084013567ffffffffffffffff811115611e5e57611e5d61156b565b5b611e6a868287016117da565b9250506040611e7b86828701611646565b9150509250925092565b7f4e6f74206f776e657200000000000000000000000000000000000000000000005f82015250565b5f611eb960098361196e565b9150611ec482611e85565b602082019050919050565b5f6020820190508181035f830152611ee681611ead565b9050919050565b5f606082019050611f005f8301866119c4565b611f0d60208301856118ef565b611f1a60408301846118ef565b949350505050565b7f4e6f742061646d696e00000000000000000000000000000000000000000000005f82015250565b5f611f5660098361196e565b9150611f6182611f22565b602082019050919050565b5f6020820190508181035f830152611f8381611f4a565b9050919050565b7f4e6f74207472616e73706f7274657200000000000000000000000000000000005f82015250565b5f611fbe600f8361196e565b9150611fc982611f8a565b602082019050919050565b5f6020820190508181035f830152611feb81611fb2565b9050919050565b7f54656d70206f7574206f662072616e67650000000000000000000000000000005f82015250565b5f61202660118361196e565b915061203182611ff2565b602082019050919050565b5f6020820190508181035f8301526120538161201a565b9050919050565b7f48756d6964697479206f7574206f662072616e676500000000000000000000005f82015250565b5f61208e60158361196e565b91506120998261205a565b602082019050919050565b5f6020820190508181035f8301526120bb81612082565b9050919050565b7f4e487b71000000000000000000000000000000000000000000000000000000005f52602260045260245ffd5b5f600282049050600182168061210657607f821691505b602082108103612119576121186120c2565b5b50919050565b5f819050815f5260205f209050919050565b5f6020601f8301049050919050565b5f82821b905092915050565b5f6008830261217b7fffffffffffffffffffffffffffffffffffffffffffffffffffffffffffffffff82612140565b6121858683612140565b95508019841693508086168417925050509392505050565b5f819050919050565b5f6121c06121bb6121b684611627565b61219d565b611627565b9050919050565b5f819050919050565b6121d9836121a6565b6121ed6121e5826121c7565b84845461214c565b825550505050565b5f5f905090565b6122046121f5565b61220f8184846121d0565b505050565b5b81811015612232576122275f826121fc565b600181019050612215565b5050565b601f821115612277576122488161211f565b61225184612131565b81016020851015612260578190505b61227461226c85612131565b830182612214565b50505b505050565b5f82821c905092915050565b5f6122975f198460080261227c565b1980831691505092915050565b5f6122af8383612288565b9150826002028217905092915050565b6122c882611964565b67ffffffffffffffff8111156122e1576122e06116e3565b5b6122eb82546120ef565b6122f6828285612236565b5f60209050601f831160018114612327575f8415612315578287015190505b61231f85826122a4565b865550612386565b601f1984166123358661211f565b5f5b8281101561235c57848901518255600182019150602085019450602081019050612337565b868310156123795784890151612375601f891682612288565b8355505b6001600288020188555050505b505050505050565b5f6080820190506123a15f8301876119c4565b6123ae6020830186611955565b6123bb6040830185611955565b81810360608301526123cd818461198c565b905095945050505050565b7f4e6f742072657461696c657200000000000000000000000000000000000000005f82015250565b5f61240c600c8361196e565b9150612417826123d8565b602082019050919050565b5f6020820190508181035f83015261243981612400565b9050919050565b5f6040820190506124535f8301856119c4565b61246060208301846115ff565b9392505050565b7f4e6f742070726f647563657200000000000000000000000000000000000000005f82015250565b5f61249b600c8361196e565b91506124a682612467565b602082019050919050565b5f6020820190508181035f8301526124c88161248f565b9050919050565b7f42617463682065786973747300000000000000000000000000000000000000005f82015250565b5f612503600c8361196e565b915061250e826124cf565b602082019050919050565b5f6020820190508181035f830152612530816124f7565b9050919050565b5f60608201905061254a5f8301866119c4565b818103602083015261255c818561198c565b905061256b60408301846119c4565b94935050505056fea2646970667358221220f582b69fa78e10b99fa904aaa719c0341c9b4dee5844c86c13c8f7ff84176f2f64736f6c634300081e0033",
					"opcodes": "PUSH1 0x80 PUSH1 0x40 MSTORE CALLVALUE DUP1 ISZERO PUSH1 0xE JUMPI PUSH0 PUSH0 REVERT JUMPDEST POP CALLER PUSH0 PUSH0 PUSH2 0x100 EXP DUP2 SLOAD DUP2 PUSH20 0xFFFFFFFFFFFFFFFFFFFFFFFFFFFFFFFFFFFFFFFF MUL NOT AND SWAP1 DUP4 PUSH20 0xFFFFFFFFFFFFFFFFFFFFFFFFFFFFFFFFFFFFFFFF AND MUL OR SWAP1 SSTORE POP PUSH2 0x25A9 DUP1 PUSH2 0x5B PUSH0 CODECOPY PUSH0 RETURN INVALID PUSH1 0x80 PUSH1 0x40 MSTORE CALLVALUE DUP1 ISZERO PUSH2 0xF JUMPI PUSH0 PUSH0 REVERT JUMPDEST POP PUSH1 0x4 CALLDATASIZE LT PUSH2 0x109 JUMPI PUSH0 CALLDATALOAD PUSH1 0xE0 SHR DUP1 PUSH4 0xA83006DA GT PUSH2 0xA0 JUMPI DUP1 PUSH4 0xC9CF2ADC GT PUSH2 0x6F JUMPI DUP1 PUSH4 0xC9CF2ADC EQ PUSH2 0x2CD JUMPI DUP1 PUSH4 0xCC642784 EQ PUSH2 0x2FE JUMPI DUP1 PUSH4 0xE25BD158 EQ PUSH2 0x32E JUMPI DUP1 PUSH4 0xF33C7BCC EQ PUSH2 0x35E JUMPI DUP1 PUSH4 0xFA6D8C5F EQ PUSH2 0x37A JUMPI PUSH2 0x109 JUMP JUMPDEST DUP1 PUSH4 0xA83006DA EQ PUSH2 0x217 JUMPI DUP1 PUSH4 0xAC98D969 EQ PUSH2 0x233 JUMPI DUP1 PUSH4 0xB32C4D8D EQ PUSH2 0x266 JUMPI DUP1 PUSH4 0xC7A8CCB1 EQ PUSH2 0x29B JUMPI PUSH2 0x109 JUMP JUMPDEST DUP1 PUSH4 0x3C530ACE GT PUSH2 0xDC JUMPI DUP1 PUSH4 0x3C530ACE EQ PUSH2 0x191 JUMPI DUP1 PUSH4 0x554BB5D4 EQ PUSH2 0x1AD JUMPI DUP1 PUSH4 0x8DA5CB5B EQ PUSH2 0x1C9 JUMPI DUP1 PUSH4 0x9A268F35 EQ PUSH2 0x1E7 JUMPI PUSH2 0x109 JUMP JUMPDEST DUP1 PUSH4 0x26324EFF EQ PUSH2 0x10D JUMPI DUP1 PUSH4 0x29507F73 EQ PUSH2 0x13D JUMPI DUP1 PUSH4 0x31AB0518 EQ PUSH2 0x159 JUMPI DUP1 PUSH4 0x386E6AD0 EQ PUSH2 0x175 JUMPI JUMPDEST PUSH0 PUSH0 REVERT JUMPDEST PUSH2 0x127 PUSH1 0x4 DUP1 CALLDATASIZE SUB DUP2 ADD SWAP1 PUSH2 0x122 SWAP2 SWAP1 PUSH2 0x15C9 JUMP JUMPDEST PUSH2 0x396 JUMP JUMPDEST PUSH1 0x40 MLOAD PUSH2 0x134 SWAP2 SWAP1 PUSH2 0x160E JUMP JUMPDEST PUSH1 0x40 MLOAD DUP1 SWAP2 SUB SWAP1 RETURN JUMPDEST PUSH2 0x157 PUSH1 0x4 DUP1 CALLDATASIZE SUB DUP2 ADD SWAP1 PUSH2 0x152 SWAP2 SWAP1 PUSH2 0x165A JUMP JUMPDEST PUSH2 0x3B3 JUMP JUMPDEST STOP JUMPDEST PUSH2 0x173 PUSH1 0x4 DUP1 CALLDATASIZE SUB DUP2 ADD SWAP1 PUSH2 0x16E SWAP2 SWAP1 PUSH2 0x15C9 JUMP JUMPDEST PUSH2 0x597 JUMP JUMPDEST STOP JUMPDEST PUSH2 0x18F PUSH1 0x4 DUP1 CALLDATASIZE SUB DUP2 ADD SWAP1 PUSH2 0x18A SWAP2 SWAP1 PUSH2 0x1807 JUMP JUMPDEST PUSH2 0x67D JUMP JUMPDEST STOP JUMPDEST PUSH2 0x1AB PUSH1 0x4 DUP1 CALLDATASIZE SUB DUP2 ADD SWAP1 PUSH2 0x1A6 SWAP2 SWAP1 PUSH2 0x15C9 JUMP JUMPDEST PUSH2 0x895 JUMP JUMPDEST STOP JUMPDEST PUSH2 0x1C7 PUSH1 0x4 DUP1 CALLDATASIZE SUB DUP2 ADD SWAP1 PUSH2 0x1C2 SWAP2 SWAP1 PUSH2 0x18B1 JUMP JUMPDEST PUSH2 0x97A JUMP JUMPDEST STOP JUMPDEST PUSH2 0x1D1 PUSH2 0xA99 JUMP JUMPDEST PUSH1 0x40 MLOAD PUSH2 0x1DE SWAP2 SWAP1 PUSH2 0x18FE JUMP JUMPDEST PUSH1 0x40 MLOAD DUP1 SWAP2 SUB SWAP1 RETURN JUMPDEST PUSH2 0x201 PUSH1 0x4 DUP1 CALLDATASIZE SUB DUP2 ADD SWAP1 PUSH2 0x1FC SWAP2 SWAP1 PUSH2 0x15C9 JUMP JUMPDEST PUSH2 0xABD JUMP JUMPDEST PUSH1 0x40 MLOAD PUSH2 0x20E SWAP2 SWAP1 PUSH2 0x160E JUMP JUMPDEST PUSH1 0x40 MLOAD DUP1 SWAP2 SUB SWAP1 RETURN JUMPDEST PUSH2 0x231 PUSH1 0x4 DUP1 CALLDATASIZE SUB DUP2 ADD SWAP1 PUSH2 0x22C SWAP2 SWAP1 PUSH2 0x15C9 JUMP JUMPDEST PUSH2 0xADA JUMP JUMPDEST STOP JUMPDEST PUSH2 0x24D PUSH1 0x4 DUP1 CALLDATASIZE SUB DUP2 ADD SWAP1 PUSH2 0x248 SWAP2 SWAP1 PUSH2 0x1917 JUMP JUMPDEST PUSH2 0xBC0 JUMP JUMPDEST PUSH1 0x40 MLOAD PUSH2 0x25D SWAP5 SWAP4 SWAP3 SWAP2 SWAP1 PUSH2 0x19D3 JUMP JUMPDEST PUSH1 0x40 MLOAD DUP1 SWAP2 SUB SWAP1 RETURN JUMPDEST PUSH2 0x280 PUSH1 0x4 DUP1 CALLDATASIZE SUB DUP2 ADD SWAP1 PUSH2 0x27B SWAP2 SWAP1 PUSH2 0x1A1D JUMP JUMPDEST PUSH2 0xC8C JUMP JUMPDEST PUSH1 0x40 MLOAD PUSH2 0x292 SWAP7 SWAP6 SWAP5 SWAP4 SWAP3 SWAP2 SWAP1 PUSH2 0x1A48 JUMP JUMPDEST PUSH1 0x40 MLOAD DUP1 SWAP2 SUB SWAP1 RETURN JUMPDEST PUSH2 0x2B5 PUSH1 0x4 DUP1 CALLDATASIZE SUB DUP2 ADD SWAP1 PUSH2 0x2B0 SWAP2 SWAP1 PUSH2 0x1A1D JUMP JUMPDEST PUSH2 0xD83 JUMP JUMPDEST PUSH1 0x40 MLOAD PUSH2 0x2C4 SWAP4 SWAP3 SWAP2 SWAP1 PUSH2 0x1DA8 JUMP JUMPDEST PUSH1 0x40 MLOAD DUP1 SWAP2 SUB SWAP1 RETURN JUMPDEST PUSH2 0x2E7 PUSH1 0x4 DUP1 CALLDATASIZE SUB DUP2 ADD SWAP1 PUSH2 0x2E2 SWAP2 SWAP1 PUSH2 0x1917 JUMP JUMPDEST PUSH2 0x10C1 JUMP JUMPDEST PUSH1 0x40 MLOAD PUSH2 0x2F5 SWAP3 SWAP2 SWAP1 PUSH2 0x1DF2 JUMP JUMPDEST PUSH1 0x40 MLOAD DUP1 SWAP2 SUB SWAP1 RETURN JUMPDEST PUSH2 0x318 PUSH1 0x4 DUP1 CALLDATASIZE SUB DUP2 ADD SWAP1 PUSH2 0x313 SWAP2 SWAP1 PUSH2 0x15C9 JUMP JUMPDEST PUSH2 0x111A JUMP JUMPDEST PUSH1 0x40 MLOAD PUSH2 0x325 SWAP2 SWAP1 PUSH2 0x160E JUMP JUMPDEST PUSH1 0x40 MLOAD DUP1 SWAP2 SUB SWAP1 RETURN JUMPDEST PUSH2 0x348 PUSH1 0x4 DUP1 CALLDATASIZE SUB DUP2 ADD SWAP1 PUSH2 0x343 SWAP2 SWAP1 PUSH2 0x15C9 JUMP JUMPDEST PUSH2 0x1137 JUMP JUMPDEST PUSH1 0x40 MLOAD PUSH2 0x355 SWAP2 SWAP1 PUSH2 0x160E JUMP JUMPDEST PUSH1 0x40 MLOAD DUP1 SWAP2 SUB SWAP1 RETURN JUMPDEST PUSH2 0x378 PUSH1 0x4 DUP1 CALLDATASIZE SUB DUP2 ADD SWAP1 PUSH2 0x373 SWAP2 SWAP1 PUSH2 0x1E19 JUMP JUMPDEST PUSH2 0x1154 JUMP JUMPDEST STOP JUMPDEST PUSH2 0x394 PUSH1 0x4 DUP1 CALLDATASIZE SUB DUP2 ADD SWAP1 PUSH2 0x38F SWAP2 SWAP1 PUSH2 0x15C9 JUMP JUMPDEST PUSH2 0x142D JUMP JUMPDEST STOP JUMPDEST PUSH1 0x1 PUSH1 0x20 MSTORE DUP1 PUSH0 MSTORE PUSH1 0x40 PUSH0 KECCAK256 PUSH0 SWAP2 POP SLOAD SWAP1 PUSH2 0x100 EXP SWAP1 DIV PUSH1 0xFF AND DUP2 JUMP JUMPDEST CALLER PUSH20 0xFFFFFFFFFFFFFFFFFFFFFFFFFFFFFFFFFFFFFFFF AND PUSH1 0x5 PUSH0 DUP5 DUP2 MSTORE PUSH1 0x20 ADD SWAP1 DUP2 MSTORE PUSH1 0x20 ADD PUSH0 KECCAK256 PUSH1 0x3 ADD PUSH0 SWAP1 SLOAD SWAP1 PUSH2 0x100 EXP SWAP1 DIV PUSH20 0xFFFFFFFFFFFFFFFFFFFFFFFFFFFFFFFFFFFFFFFF AND PUSH20 0xFFFFFFFFFFFFFFFFFFFFFFFFFFFFFFFFFFFFFFFF AND EQ PUSH2 0x454 JUMPI PUSH1 0x40 MLOAD PUSH32 0x8C379A000000000000000000000000000000000000000000000000000000000 DUP2 MSTORE PUSH1 0x4 ADD PUSH2 0x44B SWAP1 PUSH2 0x1ECF JUMP JUMPDEST PUSH1 0x40 MLOAD DUP1 SWAP2 SUB SWAP1 REVERT JUMPDEST DUP1 PUSH1 0x5 PUSH0 DUP5 DUP2 MSTORE PUSH1 0x20 ADD SWAP1 DUP2 MSTORE PUSH1 0x20 ADD PUSH0 KECCAK256 PUSH1 0x3 ADD PUSH0 PUSH2 0x100 EXP DUP2 SLOAD DUP2 PUSH20 0xFFFFFFFFFFFFFFFFFFFFFFFFFFFFFFFFFFFFFFFF MUL NOT AND SWAP1 DUP4 PUSH20 0xFFFFFFFFFFFFFFFFFFFFFFFFFFFFFFFFFFFFFFFF AND MUL OR SWAP1 SSTORE POP PUSH1 0x7 PUSH0 DUP4 DUP2 MSTORE PUSH1 0x20 ADD SWAP1 DUP2 MSTORE PUSH1 0x20 ADD PUSH0 KECCAK256 PUSH1 0x40 MLOAD DUP1 PUSH1 0x40 ADD PUSH1 0x40 MSTORE DUP1 DUP4 PUSH20 0xFFFFFFFFFFFFFFFFFFFFFFFFFFFFFFFFFFFFFFFF AND DUP2 MSTORE PUSH1 0x20 ADD TIMESTAMP DUP2 MSTORE POP SWAP1 DUP1 PUSH1 0x1 DUP2 SLOAD ADD DUP1 DUP3 SSTORE DUP1 SWAP2 POP POP PUSH1 0x1 SWAP1 SUB SWAP1 PUSH0 MSTORE PUSH1 0x20 PUSH0 KECCAK256 SWAP1 PUSH1 0x2 MUL ADD PUSH0 SWAP1 SWAP2 SWAP1 SWAP2 SWAP1 SWAP2 POP PUSH0 DUP3 ADD MLOAD DUP2 PUSH0 ADD PUSH0 PUSH2 0x100 EXP DUP2 SLOAD DUP2 PUSH20 0xFFFFFFFFFFFFFFFFFFFFFFFFFFFFFFFFFFFFFFFF MUL NOT AND SWAP1 DUP4 PUSH20 0xFFFFFFFFFFFFFFFFFFFFFFFFFFFFFFFFFFFFFFFF AND MUL OR SWAP1 SSTORE POP PUSH1 0x20 DUP3 ADD MLOAD DUP2 PUSH1 0x1 ADD SSTORE POP POP PUSH32 0x16B85F49BF01212961345D3016C9A531894ACCF62EB7680F2045D79185CC0EC0 DUP3 CALLER DUP4 PUSH1 0x40 MLOAD PUSH2 0x58B SWAP4 SWAP3 SWAP2 SWAP1 PUSH2 0x1EED JUMP JUMPDEST PUSH1 0x40 MLOAD DUP1 SWAP2 SUB SWAP1 LOG1 POP POP JUMP JUMPDEST PUSH0 PUSH0 SWAP1 SLOAD SWAP1 PUSH2 0x100 EXP SWAP1 DIV PUSH20 0xFFFFFFFFFFFFFFFFFFFFFFFFFFFFFFFFFFFFFFFF AND PUSH20 0xFFFFFFFFFFFFFFFFFFFFFFFFFFFFFFFFFFFFFFFF AND CALLER PUSH20 0xFFFFFFFFFFFFFFFFFFFFFFFFFFFFFFFFFFFFFFFF AND EQ PUSH2 0x625 JUMPI PUSH1 0x40 MLOAD PUSH32 0x8C379A000000000000000000000000000000000000000000000000000000000 DUP2 MSTORE PUSH1 0x4 ADD PUSH2 0x61C SWAP1 PUSH2 0x1F6C JUMP JUMPDEST PUSH1 0x40 MLOAD DUP1 SWAP2 SUB SWAP1 REVERT JUMPDEST PUSH1 0x1 PUSH1 0x3 PUSH0 DUP4 PUSH20 0xFFFFFFFFFFFFFFFFFFFFFFFFFFFFFFFFFFFFFFFF AND PUSH20 0xFFFFFFFFFFFFFFFFFFFFFFFFFFFFFFFFFFFFFFFF AND DUP2 MSTORE PUSH1 0x20 ADD SWAP1 DUP2 MSTORE PUSH1 0x20 ADD PUSH0 KECCAK256 PUSH0 PUSH2 0x100 EXP DUP2 SLOAD DUP2 PUSH1 0xFF MUL NOT AND SWAP1 DUP4 ISZERO ISZERO MUL OR SWAP1 SSTORE POP POP JUMP JUMPDEST PUSH1 0x2 PUSH0 CALLER PUSH20 0xFFFFFFFFFFFFFFFFFFFFFFFFFFFFFFFFFFFFFFFF AND PUSH20 0xFFFFFFFFFFFFFFFFFFFFFFFFFFFFFFFFFFFFFFFF AND DUP2 MSTORE PUSH1 0x20 ADD SWAP1 DUP2 MSTORE PUSH1 0x20 ADD PUSH0 KECCAK256 PUSH0 SWAP1 SLOAD SWAP1 PUSH2 0x100 EXP SWAP1 DIV PUSH1 0xFF AND PUSH2 0x706 JUMPI PUSH1 0x40 MLOAD PUSH32 0x8C379A000000000000000000000000000000000000000000000000000000000 DUP2 MSTORE PUSH1 0x4 ADD PUSH2 0x6FD SWAP1 PUSH2 0x1FD4 JUMP JUMPDEST PUSH1 0x40 MLOAD DUP1 SWAP2 SUB SWAP1 REVERT JUMPDEST PUSH32 0xFFFFFFFFFFFFFFFFFFFFFFFFFFFFFFFFFFFFFFFFFFFFFFFFFFFFFFFFFFFFFFF6 DUP4 SLT ISZERO DUP1 ISZERO PUSH2 0x737 JUMPI POP PUSH1 0x28 DUP4 SGT ISZERO JUMPDEST PUSH2 0x776 JUMPI PUSH1 0x40 MLOAD PUSH32 0x8C379A000000000000000000000000000000000000000000000000000000000 DUP2 MSTORE PUSH1 0x4 ADD PUSH2 0x76D SWAP1 PUSH2 0x203C JUMP JUMPDEST PUSH1 0x40 MLOAD DUP1 SWAP2 SUB SWAP1 REVERT JUMPDEST PUSH0 DUP3 SLT ISZERO DUP1 ISZERO PUSH2 0x787 JUMPI POP PUSH1 0x28 DUP3 SGT ISZERO JUMPDEST PUSH2 0x7C6 JUMPI PUSH1 0x40 MLOAD PUSH32 0x8C379A000000000000000000000000000000000000000000000000000000000 DUP2 MSTORE PUSH1 0x4 ADD PUSH2 0x7BD SWAP1 PUSH2 0x20A4 JUMP JUMPDEST PUSH1 0x40 MLOAD DUP1 SWAP2 SUB SWAP1 REVERT JUMPDEST PUSH1 0x6 PUSH0 DUP6 DUP2 MSTORE PUSH1 0x20 ADD SWAP1 DUP2 MSTORE PUSH1 0x20 ADD PUSH0 KECCAK256 PUSH1 0x40 MLOAD DUP1 PUSH1 0x80 ADD PUSH1 0x40 MSTORE DUP1 DUP6 DUP2 MSTORE PUSH1 0x20 ADD DUP5 DUP2 MSTORE PUSH1 0x20 ADD DUP4 DUP2 MSTORE PUSH1 0x20 ADD TIMESTAMP DUP2 MSTORE POP SWAP1 DUP1 PUSH1 0x1 DUP2 SLOAD ADD DUP1 DUP3 SSTORE DUP1 SWAP2 POP POP PUSH1 0x1 SWAP1 SUB SWAP1 PUSH0 MSTORE PUSH1 0x20 PUSH0 KECCAK256 SWAP1 PUSH1 0x4 MUL ADD PUSH0 SWAP1 SWAP2 SWAP1 SWAP2 SWAP1 SWAP2 POP PUSH0 DUP3 ADD MLOAD DUP2 PUSH0 ADD SSTORE PUSH1 0x20 DUP3 ADD MLOAD DUP2 PUSH1 0x1 ADD SSTORE PUSH1 0x40 DUP3 ADD MLOAD DUP2 PUSH1 0x2 ADD SWAP1 DUP2 PUSH2 0x845 SWAP2 SWAP1 PUSH2 0x22BF JUMP JUMPDEST POP PUSH1 0x60 DUP3 ADD MLOAD DUP2 PUSH1 0x3 ADD SSTORE POP POP PUSH32 0x51317E2C1E7F4EDDE20C7837E1EBC06A6FD0BE9034355B939BD4F13484B1C7E5 DUP5 DUP5 DUP5 DUP5 PUSH1 0x40 MLOAD PUSH2 0x887 SWAP5 SWAP4 SWAP3 SWAP2 SWAP1 PUSH2 0x238E JUMP JUMPDEST PUSH1 0x40 MLOAD DUP1 SWAP2 SUB SWAP1 LOG1 POP POP POP POP JUMP JUMPDEST PUSH0 PUSH0 SWAP1 SLOAD SWAP1 PUSH2 0x100 EXP SWAP1 DIV PUSH20 0xFFFFFFFFFFFFFFFFFFFFFFFFFFFFFFFFFFFFFFFF AND PUSH20 0xFFFFFFFFFFFFFFFFFFFFFFFFFFFFFFFFFFFFFFFF AND CALLER PUSH20 0xFFFFFFFFFFFFFFFFFFFFFFFFFFFFFFFFFFFFFFFF AND EQ PUSH2 0x923 JUMPI PUSH1 0x40 MLOAD PUSH32 0x8C379A000000000000000000000000000000000000000000000000000000000 DUP2 MSTORE PUSH1 0x4 ADD PUSH2 0x91A SWAP1 PUSH2 0x1F6C JUMP JUMPDEST PUSH1 0x40 MLOAD DUP1 SWAP2 SUB SWAP1 REVERT JUMPDEST PUSH1 0x1 DUP1 PUSH0 DUP4 PUSH20 0xFFFFFFFFFFFFFFFFFFFFFFFFFFFFFFFFFFFFFFFF AND PUSH20 0xFFFFFFFFFFFFFFFFFFFFFFFFFFFFFFFFFFFFFFFF AND DUP2 MSTORE PUSH1 0x20 ADD SWAP1 DUP2 MSTORE PUSH1 0x20 ADD PUSH0 KECCAK256 PUSH0 PUSH2 0x100 EXP DUP2 SLOAD DUP2 PUSH1 0xFF MUL NOT AND SWAP1 DUP4 ISZERO ISZERO MUL OR SWAP1 SSTORE POP POP JUMP JUMPDEST PUSH1 0x4 PUSH0 CALLER PUSH20 0xFFFFFFFFFFFFFFFFFFFFFFFFFFFFFFFFFFFFFFFF AND PUSH20 0xFFFFFFFFFFFFFFFFFFFFFFFFFFFFFFFFFFFFFFFF AND DUP2 MSTORE PUSH1 0x20 ADD SWAP1 DUP2 MSTORE PUSH1 0x20 ADD PUSH0 KECCAK256 PUSH0 SWAP1 SLOAD SWAP1 PUSH2 0x100 EXP SWAP1 DIV PUSH1 0xFF AND PUSH2 0xA03 JUMPI PUSH1 0x40 MLOAD PUSH32 0x8C379A000000000000000000000000000000000000000000000000000000000 DUP2 MSTORE PUSH1 0x4 ADD PUSH2 0x9FA SWAP1 PUSH2 0x2422 JUMP JUMPDEST PUSH1 0x40 MLOAD DUP1 SWAP2 SUB SWAP1 REVERT JUMPDEST PUSH1 0x1 PUSH1 0x5 PUSH0 DUP5 DUP2 MSTORE PUSH1 0x20 ADD SWAP1 DUP2 MSTORE PUSH1 0x20 ADD PUSH0 KECCAK256 PUSH1 0x3 ADD PUSH1 0x14 PUSH2 0x100 EXP DUP2 SLOAD DUP2 PUSH1 0xFF MUL NOT AND SWAP1 DUP4 ISZERO ISZERO MUL OR SWAP1 SSTORE POP DUP1 PUSH1 0x5 PUSH0 DUP5 DUP2 MSTORE PUSH1 0x20 ADD SWAP1 DUP2 MSTORE PUSH1 0x20 ADD PUSH0 KECCAK256 PUSH1 0x3 ADD PUSH1 0x15 PUSH2 0x100 EXP DUP2 SLOAD DUP2 PUSH1 0xFF MUL NOT AND SWAP1 DUP4 ISZERO ISZERO MUL OR SWAP1 SSTORE POP PUSH32 0x724D0640CCF2A4B2B428DCC054429A8131C2824DEB77E5EB5BD21E38454BB0EE DUP3 DUP3 PUSH1 0x40 MLOAD PUSH2 0xA8D SWAP3 SWAP2 SWAP1 PUSH2 0x2440 JUMP JUMPDEST PUSH1 0x40 MLOAD DUP1 SWAP2 SUB SWAP1 LOG1 POP POP JUMP JUMPDEST PUSH0 PUSH0 SWAP1 SLOAD SWAP1 PUSH2 0x100 EXP SWAP1 DIV PUSH20 0xFFFFFFFFFFFFFFFFFFFFFFFFFFFFFFFFFFFFFFFF AND DUP2 JUMP JUMPDEST PUSH1 0x4 PUSH1 0x20 MSTORE DUP1 PUSH0 MSTORE PUSH1 0x40 PUSH0 KECCAK256 PUSH0 SWAP2 POP SLOAD SWAP1 PUSH2 0x100 EXP SWAP1 DIV PUSH1 0xFF AND DUP2 JUMP JUMPDEST PUSH0 PUSH0 SWAP1 SLOAD SWAP1 PUSH2 0x100 EXP SWAP1 DIV PUSH20 0xFFFFFFFFFFFFFFFFFFFFFFFFFFFFFFFFFFFFFFFF AND PUSH20 0xFFFFFFFFFFFFFFFFFFFFFFFFFFFFFFFFFFFFFFFF AND CALLER PUSH20 0xFFFFFFFFFFFFFFFFFFFFFFFFFFFFFFFFFFFFFFFF AND EQ PUSH2 0xB68 JUMPI PUSH1 0x40 MLOAD PUSH32 0x8C379A000000000000000000000000000000000000000000000000000000000 DUP2 MSTORE PUSH1 0x4 ADD PUSH2 0xB5F SWAP1 PUSH2 0x1F6C JUMP JUMPDEST PUSH1 0x40 MLOAD DUP1 SWAP2 SUB SWAP1 REVERT JUMPDEST PUSH1 0x1 PUSH1 0x4 PUSH0 DUP4 PUSH20 0xFFFFFFFFFFFFFFFFFFFFFFFFFFFFFFFFFFFFFFFF AND PUSH20 0xFFFFFFFFFFFFFFFFFFFFFFFFFFFFFFFFFFFFFFFF AND DUP2 MSTORE PUSH1 0x20 ADD SWAP1 DUP2 MSTORE PUSH1 0x20 ADD PUSH0 KECCAK256 PUSH0 PUSH2 0x100 EXP DUP2 SLOAD DUP2 PUSH1 0xFF MUL NOT AND SWAP1 DUP4 ISZERO ISZERO MUL OR SWAP1 SSTORE POP POP JUMP JUMPDEST PUSH1 0x6 PUSH1 0x20 MSTORE DUP2 PUSH0 MSTORE PUSH1 0x40 PUSH0 KECCAK256 DUP2 DUP2 SLOAD DUP2 LT PUSH2 0xBD9 JUMPI PUSH0 DUP1 REVERT JUMPDEST SWAP1 PUSH0 MSTORE PUSH1 0x20 PUSH0 KECCAK256 SWAP1 PUSH1 0x4 MUL ADD PUSH0 SWAP2 POP SWAP2 POP POP DUP1 PUSH0 ADD SLOAD SWAP1 DUP1 PUSH1 0x1 ADD SLOAD SWAP1 DUP1 PUSH1 0x2 ADD DUP1 SLOAD PUSH2 0xC05 SWAP1 PUSH2 0x20EF JUMP JUMPDEST DUP1 PUSH1 0x1F ADD PUSH1 0x20 DUP1 SWAP2 DIV MUL PUSH1 0x20 ADD PUSH1 0x40 MLOAD SWAP1 DUP2 ADD PUSH1 0x40 MSTORE DUP1 SWAP3 SWAP2 SWAP1 DUP2 DUP2 MSTORE PUSH1 0x20 ADD DUP3 DUP1 SLOAD PUSH2 0xC31 SWAP1 PUSH2 0x20EF JUMP JUMPDEST DUP1 ISZERO PUSH2 0xC7C JUMPI DUP1 PUSH1 0x1F LT PUSH2 0xC53 JUMPI PUSH2 0x100 DUP1 DUP4 SLOAD DIV MUL DUP4 MSTORE SWAP2 PUSH1 0x20 ADD SWAP2 PUSH2 0xC7C JUMP JUMPDEST DUP3 ADD SWAP2 SWAP1 PUSH0 MSTORE PUSH1 0x20 PUSH0 KECCAK256 SWAP1 JUMPDEST DUP2 SLOAD DUP2 MSTORE SWAP1 PUSH1 0x1 ADD SWAP1 PUSH1 0x20 ADD DUP1 DUP4 GT PUSH2 0xC5F JUMPI DUP3 SWAP1 SUB PUSH1 0x1F AND DUP3 ADD SWAP2 JUMPDEST POP POP POP POP POP SWAP1 DUP1 PUSH1 0x3 ADD SLOAD SWAP1 POP DUP5 JUMP JUMPDEST PUSH1 0x5 PUSH1 0x20 MSTORE DUP1 PUSH0 MSTORE PUSH1 0x40 PUSH0 KECCAK256 PUSH0 SWAP2 POP SWAP1 POP DUP1 PUSH0 ADD SLOAD SWAP1 DUP1 PUSH1 0x1 ADD DUP1 SLOAD PUSH2 0xCB1 SWAP1 PUSH2 0x20EF JUMP JUMPDEST DUP1 PUSH1 0x1F ADD PUSH1 0x20 DUP1 SWAP2 DIV MUL PUSH1 0x20 ADD PUSH1 0x40 MLOAD SWAP1 DUP2 ADD PUSH1 0x40 MSTORE DUP1 SWAP3 SWAP2 SWAP1 DUP2 DUP2 MSTORE PUSH1 0x20 ADD DUP3 DUP1 SLOAD PUSH2 0xCDD SWAP1 PUSH2 0x20EF JUMP JUMPDEST DUP1 ISZERO PUSH2 0xD28 JUMPI DUP1 PUSH1 0x1F LT PUSH2 0xCFF JUMPI PUSH2 0x100 DUP1 DUP4 SLOAD DIV MUL DUP4 MSTORE SWAP2 PUSH1 0x20 ADD SWAP2 PUSH2 0xD28 JUMP JUMPDEST DUP3 ADD SWAP2 SWAP1 PUSH0 MSTORE PUSH1 0x20 PUSH0 KECCAK256 SWAP1 JUMPDEST DUP2 SLOAD DUP2 MSTORE SWAP1 PUSH1 0x1 ADD SWAP1 PUSH1 0x20 ADD DUP1 DUP4 GT PUSH2 0xD0B JUMPI DUP3 SWAP1 SUB PUSH1 0x1F AND DUP3 ADD SWAP2 JUMPDEST POP POP POP POP POP SWAP1 DUP1 PUSH1 0x2 ADD SLOAD SWAP1 DUP1 PUSH1 0x3 ADD PUSH0 SWAP1 SLOAD SWAP1 PUSH2 0x100 EXP SWAP1 DIV PUSH20 0xFFFFFFFFFFFFFFFFFFFFFFFFFFFFFFFFFFFFFFFF AND SWAP1 DUP1 PUSH1 0x3 ADD PUSH1 0x14 SWAP1 SLOAD SWAP1 PUSH2 0x100 EXP SWAP1 DIV PUSH1 0xFF AND SWAP1 DUP1 PUSH1 0x3 ADD PUSH1 0x15 SWAP1 SLOAD SWAP1 PUSH2 0x100 EXP SWAP1 DIV PUSH1 0xFF AND SWAP1 POP DUP7 JUMP JUMPDEST PUSH2 0xD8B PUSH2 0x1513 JUMP JUMPDEST PUSH1 0x60 DUP1 PUSH1 0x5 PUSH0 DUP6 DUP2 MSTORE PUSH1 0x20 ADD SWAP1 DUP2 MSTORE PUSH1 0x20 ADD PUSH0 KECCAK256 PUSH1 0x6 PUSH0 DUP7 DUP2 MSTORE PUSH1 0x20 ADD SWAP1 DUP2 MSTORE PUSH1 0x20 ADD PUSH0 KECCAK256 PUSH1 0x7 PUSH0 DUP8 DUP2 MSTORE PUSH1 0x20 ADD SWAP1 DUP2 MSTORE PUSH1 0x20 ADD PUSH0 KECCAK256 DUP3 PUSH1 0x40 MLOAD DUP1 PUSH1 0xC0 ADD PUSH1 0x40 MSTORE SWAP1 DUP2 PUSH0 DUP3 ADD SLOAD DUP2 MSTORE PUSH1 0x20 ADD PUSH1 0x1 DUP3 ADD DUP1 SLOAD PUSH2 0xDE6 SWAP1 PUSH2 0x20EF JUMP JUMPDEST DUP1 PUSH1 0x1F ADD PUSH1 0x20 DUP1 SWAP2 DIV MUL PUSH1 0x20 ADD PUSH1 0x40 MLOAD SWAP1 DUP2 ADD PUSH1 0x40 MSTORE DUP1 SWAP3 SWAP2 SWAP1 DUP2 DUP2 MSTORE PUSH1 0x20 ADD DUP3 DUP1 SLOAD PUSH2 0xE12 SWAP1 PUSH2 0x20EF JUMP JUMPDEST DUP1 ISZERO PUSH2 0xE5D JUMPI DUP1 PUSH1 0x1F LT PUSH2 0xE34 JUMPI PUSH2 0x100 DUP1 DUP4 SLOAD DIV MUL DUP4 MSTORE SWAP2 PUSH1 0x20 ADD SWAP2 PUSH2 0xE5D JUMP JUMPDEST DUP3 ADD SWAP2 SWAP1 PUSH0 MSTORE PUSH1 0x20 PUSH0 KECCAK256 SWAP1 JUMPDEST DUP2 SLOAD DUP2 MSTORE SWAP1 PUSH1 0x1 ADD SWAP1 PUSH1 0x20 ADD DUP1 DUP4 GT PUSH2 0xE40 JUMPI DUP3 SWAP1 SUB PUSH1 0x1F AND DUP3 ADD SWAP2 JUMPDEST POP POP POP POP POP DUP2 MSTORE PUSH1 0x20 ADD PUSH1 0x2 DUP3 ADD SLOAD DUP2 MSTORE PUSH1 0x20 ADD PUSH1 0x3 DUP3 ADD PUSH0 SWAP1 SLOAD SWAP1 PUSH2 0x100 EXP SWAP1 DIV PUSH20 0xFFFFFFFFFFFFFFFFFFFFFFFFFFFFFFFFFFFFFFFF AND PUSH20 0xFFFFFFFFFFFFFFFFFFFFFFFFFFFFFFFFFFFFFFFF AND PUSH20 0xFFFFFFFFFFFFFFFFFFFFFFFFFFFFFFFFFFFFFFFF AND DUP2 MSTORE PUSH1 0x20 ADD PUSH1 0x3 DUP3 ADD PUSH1 0x14 SWAP1 SLOAD SWAP1 PUSH2 0x100 EXP SWAP1 DIV PUSH1 0xFF AND ISZERO ISZERO ISZERO ISZERO DUP2 MSTORE PUSH1 0x20 ADD PUSH1 0x3 DUP3 ADD PUSH1 0x15 SWAP1 SLOAD SWAP1 PUSH2 0x100 EXP SWAP1 DIV PUSH1 0xFF AND ISZERO ISZERO ISZERO ISZERO DUP2 MSTORE POP POP SWAP3 POP DUP2 DUP1 SLOAD DUP1 PUSH1 0x20 MUL PUSH1 0x20 ADD PUSH1 0x40 MLOAD SWAP1 DUP2 ADD PUSH1 0x40 MSTORE DUP1 SWAP3 SWAP2 SWAP1 DUP2 DUP2 MSTORE PUSH1 0x20 ADD PUSH0 SWAP1 JUMPDEST DUP3 DUP3 LT ISZERO PUSH2 0xFFA JUMPI DUP4 DUP3 SWAP1 PUSH0 MSTORE PUSH1 0x20 PUSH0 KECCAK256 SWAP1 PUSH1 0x4 MUL ADD PUSH1 0x40 MLOAD DUP1 PUSH1 0x80 ADD PUSH1 0x40 MSTORE SWAP1 DUP2 PUSH0 DUP3 ADD SLOAD DUP2 MSTORE PUSH1 0x20 ADD PUSH1 0x1 DUP3 ADD SLOAD DUP2 MSTORE PUSH1 0x20 ADD PUSH1 0x2 DUP3 ADD DUP1 SLOAD PUSH2 0xF61 SWAP1 PUSH2 0x20EF JUMP JUMPDEST DUP1 PUSH1 0x1F ADD PUSH1 0x20 DUP1 SWAP2 DIV MUL PUSH1 0x20 ADD PUSH1 0x40 MLOAD SWAP1 DUP2 ADD PUSH1 0x40 MSTORE DUP1 SWAP3 SWAP2 SWAP1 DUP2 DUP2 MSTORE PUSH1 0x20 ADD DUP3 DUP1 SLOAD PUSH2 0xF8D SWAP1 PUSH2 0x20EF JUMP JUMPDEST DUP1 ISZERO PUSH2 0xFD8 JUMPI DUP1 PUSH1 0x1F LT PUSH2 0xFAF JUMPI PUSH2 0x100 DUP1 DUP4 SLOAD DIV MUL DUP4 MSTORE SWAP2 PUSH1 0x20 ADD SWAP2 PUSH2 0xFD8 JUMP JUMPDEST DUP3 ADD SWAP2 SWAP1 PUSH0 MSTORE PUSH1 0x20 PUSH0 KECCAK256 SWAP1 JUMPDEST DUP2 SLOAD DUP2 MSTORE SWAP1 PUSH1 0x1 ADD SWAP1 PUSH1 0x20 ADD DUP1 DUP4 GT PUSH2 0xFBB JUMPI DUP3 SWAP1 SUB PUSH1 0x1F AND DUP3 ADD SWAP2 JUMPDEST POP POP POP POP POP DUP2 MSTORE PUSH1 0x20 ADD PUSH1 0x3 DUP3 ADD SLOAD DUP2 MSTORE POP POP DUP2 MSTORE PUSH1 0x20 ADD SWAP1 PUSH1 0x1 ADD SWAP1 PUSH2 0xF1D JUMP JUMPDEST POP POP POP POP SWAP2 POP DUP1 DUP1 SLOAD DUP1 PUSH1 0x20 MUL PUSH1 0x20 ADD PUSH1 0x40 MLOAD SWAP1 DUP2 ADD PUSH1 0x40 MSTORE DUP1 SWAP3 SWAP2 SWAP1 DUP2 DUP2 MSTORE PUSH1 0x20 ADD PUSH0 SWAP1 JUMPDEST DUP3 DUP3 LT ISZERO PUSH2 0x10AE JUMPI DUP4 DUP3 SWAP1 PUSH0 MSTORE PUSH1 0x20 PUSH0 KECCAK256 SWAP1 PUSH1 0x2 MUL ADD PUSH1 0x40 MLOAD DUP1 PUSH1 0x40 ADD PUSH1 0x40 MSTORE SWAP1 DUP2 PUSH0 DUP3 ADD PUSH0 SWAP1 SLOAD SWAP1 PUSH2 0x100 EXP SWAP1 DIV PUSH20 0xFFFFFFFFFFFFFFFFFFFFFFFFFFFFFFFFFFFFFFFF AND PUSH20 0xFFFFFFFFFFFFFFFFFFFFFFFFFFFFFFFFFFFFFFFF AND PUSH20 0xFFFFFFFFFFFFFFFFFFFFFFFFFFFFFFFFFFFFFFFF AND DUP2 MSTORE PUSH1 0x20 ADD PUSH1 0x1 DUP3 ADD SLOAD DUP2 MSTORE POP POP DUP2 MSTORE PUSH1 0x20 ADD SWAP1 PUSH1 0x1 ADD SWAP1 PUSH2 0x1020 JUMP JUMPDEST POP POP POP POP SWAP1 POP SWAP3 POP SWAP3 POP SWAP3 POP SWAP2 SWAP4 SWAP1 SWAP3 POP JUMP JUMPDEST PUSH1 0x7 PUSH1 0x20 MSTORE DUP2 PUSH0 MSTORE PUSH1 0x40 PUSH0 KECCAK256 DUP2 DUP2 SLOAD DUP2 LT PUSH2 0x10DA JUMPI PUSH0 DUP1 REVERT JUMPDEST SWAP1 PUSH0 MSTORE PUSH1 0x20 PUSH0 KECCAK256 SWAP1 PUSH1 0x2 MUL ADD PUSH0 SWAP2 POP SWAP2 POP POP DUP1 PUSH0 ADD PUSH0 SWAP1 SLOAD SWAP1 PUSH2 0x100 EXP SWAP1 DIV PUSH20 0xFFFFFFFFFFFFFFFFFFFFFFFFFFFFFFFFFFFFFFFF AND SWAP1 DUP1 PUSH1 0x1 ADD SLOAD SWAP1 POP DUP3 JUMP JUMPDEST PUSH1 0x3 PUSH1 0x20 MSTORE DUP1 PUSH0 MSTORE PUSH1 0x40 PUSH0 KECCAK256 PUSH0 SWAP2 POP SLOAD SWAP1 PUSH2 0x100 EXP SWAP1 DIV PUSH1 0xFF AND DUP2 JUMP JUMPDEST PUSH1 0x2 PUSH1 0x20 MSTORE DUP1 PUSH0 MSTORE PUSH1 0x40 PUSH0 KECCAK256 PUSH0 SWAP2 POP SLOAD SWAP1 PUSH2 0x100 EXP SWAP1 DIV PUSH1 0xFF AND DUP2 JUMP JUMPDEST PUSH1 0x1 PUSH0 CALLER PUSH20 0xFFFFFFFFFFFFFFFFFFFFFFFFFFFFFFFFFFFFFFFF AND PUSH20 0xFFFFFFFFFFFFFFFFFFFFFFFFFFFFFFFFFFFFFFFF AND DUP2 MSTORE PUSH1 0x20 ADD SWAP1 DUP2 MSTORE PUSH1 0x20 ADD PUSH0 KECCAK256 PUSH0 SWAP1 SLOAD SWAP1 PUSH2 0x100 EXP SWAP1 DIV PUSH1 0xFF AND PUSH2 0x11DD JUMPI PUSH1 0x40 MLOAD PUSH32 0x8C379A000000000000000000000000000000000000000000000000000000000 DUP2 MSTORE PUSH1 0x4 ADD PUSH2 0x11D4 SWAP1 PUSH2 0x24B1 JUMP JUMPDEST PUSH1 0x40 MLOAD DUP1 SWAP2 SUB SWAP1 REVERT JUMPDEST PUSH0 PUSH1 0x5 PUSH0 DUP6 DUP2 MSTORE PUSH1 0x20 ADD SWAP1 DUP2 MSTORE PUSH1 0x20 ADD PUSH0 KECCAK256 PUSH0 ADD SLOAD EQ PUSH2 0x1232 JUMPI PUSH1 0x40 MLOAD PUSH32 0x8C379A000000000000000000000000000000000000000000000000000000000 DUP2 MSTORE PUSH1 0x4 ADD PUSH2 0x1229 SWAP1 PUSH2 0x2519 JUMP JUMPDEST PUSH1 0x40 MLOAD DUP1 SWAP2 SUB SWAP1 REVERT JUMPDEST PUSH1 0x40 MLOAD DUP1 PUSH1 0xC0 ADD PUSH1 0x40 MSTORE DUP1 DUP5 DUP2 MSTORE PUSH1 0x20 ADD DUP4 DUP2 MSTORE PUSH1 0x20 ADD DUP3 DUP2 MSTORE PUSH1 0x20 ADD CALLER PUSH20 0xFFFFFFFFFFFFFFFFFFFFFFFFFFFFFFFFFFFFFFFF AND DUP2 MSTORE PUSH1 0x20 ADD PUSH0 ISZERO ISZERO DUP2 MSTORE PUSH1 0x20 ADD PUSH0 ISZERO ISZERO DUP2 MSTORE POP PUSH1 0x5 PUSH0 DUP6 DUP2 MSTORE PUSH1 0x20 ADD SWAP1 DUP2 MSTORE PUSH1 0x20 ADD PUSH0 KECCAK256 PUSH0 DUP3 ADD MLOAD DUP2 PUSH0 ADD SSTORE PUSH1 0x20 DUP3 ADD MLOAD DUP2 PUSH1 0x1 ADD SWAP1 DUP2 PUSH2 0x12A7 SWAP2 SWAP1 PUSH2 0x22BF JUMP JUMPDEST POP PUSH1 0x40 DUP3 ADD MLOAD DUP2 PUSH1 0x2 ADD SSTORE PUSH1 0x60 DUP3 ADD MLOAD DUP2 PUSH1 0x3 ADD PUSH0 PUSH2 0x100 EXP DUP2 SLOAD DUP2 PUSH20 0xFFFFFFFFFFFFFFFFFFFFFFFFFFFFFFFFFFFFFFFF MUL NOT AND SWAP1 DUP4 PUSH20 0xFFFFFFFFFFFFFFFFFFFFFFFFFFFFFFFFFFFFFFFF AND MUL OR SWAP1 SSTORE POP PUSH1 0x80 DUP3 ADD MLOAD DUP2 PUSH1 0x3 ADD PUSH1 0x14 PUSH2 0x100 EXP DUP2 SLOAD DUP2 PUSH1 0xFF MUL NOT AND SWAP1 DUP4 ISZERO ISZERO MUL OR SWAP1 SSTORE POP PUSH1 0xA0 DUP3 ADD MLOAD DUP2 PUSH1 0x3 ADD PUSH1 0x15 PUSH2 0x100 EXP DUP2 SLOAD DUP2 PUSH1 0xFF MUL NOT AND SWAP1 DUP4 ISZERO ISZERO MUL OR SWAP1 SSTORE POP SWAP1 POP POP PUSH1 0x7 PUSH0 DUP5 DUP2 MSTORE PUSH1 0x20 ADD SWAP1 DUP2 MSTORE PUSH1 0x20 ADD PUSH0 KECCAK256 PUSH1 0x40 MLOAD DUP1 PUSH1 0x40 ADD PUSH1 0x40 MSTORE DUP1 CALLER PUSH20 0xFFFFFFFFFFFFFFFFFFFFFFFFFFFFFFFFFFFFFFFF AND DUP2 MSTORE PUSH1 0x20 ADD TIMESTAMP DUP2 MSTORE POP SWAP1 DUP1 PUSH1 0x1 DUP2 SLOAD ADD DUP1 DUP3 SSTORE DUP1 SWAP2 POP POP PUSH1 0x1 SWAP1 SUB SWAP1 PUSH0 MSTORE PUSH1 0x20 PUSH0 KECCAK256 SWAP1 PUSH1 0x2 MUL ADD PUSH0 SWAP1 SWAP2 SWAP1 SWAP2 SWAP1 SWAP2 POP PUSH0 DUP3 ADD MLOAD DUP2 PUSH0 ADD PUSH0 PUSH2 0x100 EXP DUP2 SLOAD DUP2 PUSH20 0xFFFFFFFFFFFFFFFFFFFFFFFFFFFFFFFFFFFFFFFF MUL NOT AND SWAP1 DUP4 PUSH20 0xFFFFFFFFFFFFFFFFFFFFFFFFFFFFFFFFFFFFFFFF AND MUL OR SWAP1 SSTORE POP PUSH1 0x20 DUP3 ADD MLOAD DUP2 PUSH1 0x1 ADD SSTORE POP POP PUSH32 0x58C168780DE5FC719A1E7A85C7ECA394E664C0E74B7C9EBC621F0B093112D04B DUP4 DUP4 DUP4 PUSH1 0x40 MLOAD PUSH2 0x1420 SWAP4 SWAP3 SWAP2 SWAP1 PUSH2 0x2537 JUMP JUMPDEST PUSH1 0x40 MLOAD DUP1 SWAP2 SUB SWAP1 LOG1 POP POP POP JUMP JUMPDEST PUSH0 PUSH0 SWAP1 SLOAD SWAP1 PUSH2 0x100 EXP SWAP1 DIV PUSH20 0xFFFFFFFFFFFFFFFFFFFFFFFFFFFFFFFFFFFFFFFF AND PUSH20 0xFFFFFFFFFFFFFFFFFFFFFFFFFFFFFFFFFFFFFFFF AND CALLER PUSH20 0xFFFFFFFFFFFFFFFFFFFFFFFFFFFFFFFFFFFFFFFF AND EQ PUSH2 0x14BB JUMPI PUSH1 0x40 MLOAD PUSH32 0x8C379A000000000000000000000000000000000000000000000000000000000 DUP2 MSTORE PUSH1 0x4 ADD PUSH2 0x14B2 SWAP1 PUSH2 0x1F6C JUMP JUMPDEST PUSH1 0x40 MLOAD DUP1 SWAP2 SUB SWAP1 REVERT JUMPDEST PUSH1 0x1 PUSH1 0x2 PUSH0 DUP4 PUSH20 0xFFFFFFFFFFFFFFFFFFFFFFFFFFFFFFFFFFFFFFFF AND PUSH20 0xFFFFFFFFFFFFFFFFFFFFFFFFFFFFFFFFFFFFFFFF AND DUP2 MSTORE PUSH1 0x20 ADD SWAP1 DUP2 MSTORE PUSH1 0x20 ADD PUSH0 KECCAK256 PUSH0 PUSH2 0x100 EXP DUP2 SLOAD DUP2 PUSH1 0xFF MUL NOT AND SWAP1 DUP4 ISZERO ISZERO MUL OR SWAP1 SSTORE POP POP JUMP JUMPDEST PUSH1 0x40 MLOAD DUP1 PUSH1 0xC0 ADD PUSH1 0x40 MSTORE DUP1 PUSH0 DUP2 MSTORE PUSH1 0x20 ADD PUSH1 0x60 DUP2 MSTORE PUSH1 0x20 ADD PUSH0 DUP2 MSTORE PUSH1 0x20 ADD PUSH0 PUSH20 0xFFFFFFFFFFFFFFFFFFFFFFFFFFFFFFFFFFFFFFFF AND DUP2 MSTORE PUSH1 0x20 ADD PUSH0 ISZERO ISZERO DUP2 MSTORE PUSH1 0x20 ADD PUSH0 ISZERO ISZERO DUP2 MSTORE POP SWAP1 JUMP JUMPDEST PUSH0 PUSH1 0x40 MLOAD SWAP1 POP SWAP1 JUMP JUMPDEST PUSH0 PUSH0 REVERT JUMPDEST PUSH0 PUSH0 REVERT JUMPDEST PUSH0 PUSH20 0xFFFFFFFFFFFFFFFFFFFFFFFFFFFFFFFFFFFFFFFF DUP3 AND SWAP1 POP SWAP2 SWAP1 POP JUMP JUMPDEST PUSH0 PUSH2 0x1598 DUP3 PUSH2 0x156F JUMP JUMPDEST SWAP1 POP SWAP2 SWAP1 POP JUMP JUMPDEST PUSH2 0x15A8 DUP2 PUSH2 0x158E JUMP JUMPDEST DUP2 EQ PUSH2 0x15B2 JUMPI PUSH0 PUSH0 REVERT JUMPDEST POP JUMP JUMPDEST PUSH0 DUP2 CALLDATALOAD SWAP1 POP PUSH2 0x15C3 DUP2 PUSH2 0x159F JUMP JUMPDEST SWAP3 SWAP2 POP POP JUMP JUMPDEST PUSH0 PUSH1 0x20 DUP3 DUP5 SUB SLT ISZERO PUSH2 0x15DE JUMPI PUSH2 0x15DD PUSH2 0x1567 JUMP JUMPDEST JUMPDEST PUSH0 PUSH2 0x15EB DUP5 DUP3 DUP6 ADD PUSH2 0x15B5 JUMP JUMPDEST SWAP2 POP POP SWAP3 SWAP2 POP POP JUMP JUMPDEST PUSH0 DUP2 ISZERO ISZERO SWAP1 POP SWAP2 SWAP1 POP JUMP JUMPDEST PUSH2 0x1608 DUP2 PUSH2 0x15F4 JUMP JUMPDEST DUP3 MSTORE POP POP JUMP JUMPDEST PUSH0 PUSH1 0x20 DUP3 ADD SWAP1 POP PUSH2 0x1621 PUSH0 DUP4 ADD DUP5 PUSH2 0x15FF JUMP JUMPDEST SWAP3 SWAP2 POP POP JUMP JUMPDEST PUSH0 DUP2 SWAP1 POP SWAP2 SWAP1 POP JUMP JUMPDEST PUSH2 0x1639 DUP2 PUSH2 0x1627 JUMP JUMPDEST DUP2 EQ PUSH2 0x1643 JUMPI PUSH0 PUSH0 REVERT JUMPDEST POP JUMP JUMPDEST PUSH0 DUP2 CALLDATALOAD SWAP1 POP PUSH2 0x1654 DUP2 PUSH2 0x1630 JUMP JUMPDEST SWAP3 SWAP2 POP POP JUMP JUMPDEST PUSH0 PUSH0 PUSH1 0x40 DUP4 DUP6 SUB SLT ISZERO PUSH2 0x1670 JUMPI PUSH2 0x166F PUSH2 0x1567 JUMP JUMPDEST JUMPDEST PUSH0 PUSH2 0x167D DUP6 DUP3 DUP7 ADD PUSH2 0x1646 JUMP JUMPDEST SWAP3 POP POP PUSH1 0x20 PUSH2 0x168E DUP6 DUP3 DUP7 ADD PUSH2 0x15B5 JUMP JUMPDEST SWAP2 POP POP SWAP3 POP SWAP3 SWAP1 POP JUMP JUMPDEST PUSH0 DUP2 SWAP1 POP SWAP2 SWAP1 POP JUMP JUMPDEST PUSH2 0x16AA DUP2 PUSH2 0x1698 JUMP JUMPDEST DUP2 EQ PUSH2 0x16B4 JUMPI PUSH0 PUSH0 REVERT JUMPDEST POP JUMP JUMPDEST PUSH0 DUP2 CALLDATALOAD SWAP1 POP PUSH2 0x16C5 DUP2 PUSH2 0x16A1 JUMP JUMPDEST SWAP3 SWAP2 POP POP JUMP JUMPDEST PUSH0 PUSH0 REVERT JUMPDEST PUSH0 PUSH0 REVERT JUMPDEST PUSH0 PUSH1 0x1F NOT PUSH1 0x1F DUP4 ADD AND SWAP1 POP SWAP2 SWAP1 POP JUMP JUMPDEST PUSH32 0x4E487B7100000000000000000000000000000000000000000000000000000000 PUSH0 MSTORE PUSH1 0x41 PUSH1 0x4 MSTORE PUSH1 0x24 PUSH0 REVERT JUMPDEST PUSH2 0x1719 DUP3 PUSH2 0x16D3 JUMP JUMPDEST DUP2 ADD DUP2 DUP2 LT PUSH8 0xFFFFFFFFFFFFFFFF DUP3 GT OR ISZERO PUSH2 0x1738 JUMPI PUSH2 0x1737 PUSH2 0x16E3 JUMP JUMPDEST JUMPDEST DUP1 PUSH1 0x40 MSTORE POP POP POP JUMP JUMPDEST PUSH0 PUSH2 0x174A PUSH2 0x155E JUMP JUMPDEST SWAP1 POP PUSH2 0x1756 DUP3 DUP3 PUSH2 0x1710 JUMP JUMPDEST SWAP2 SWAP1 POP JUMP JUMPDEST PUSH0 PUSH8 0xFFFFFFFFFFFFFFFF DUP3 GT ISZERO PUSH2 0x1775 JUMPI PUSH2 0x1774 PUSH2 0x16E3 JUMP JUMPDEST JUMPDEST PUSH2 0x177E DUP3 PUSH2 0x16D3 JUMP JUMPDEST SWAP1 POP PUSH1 0x20 DUP2 ADD SWAP1 POP SWAP2 SWAP1 POP JUMP JUMPDEST DUP3 DUP2 DUP4 CALLDATACOPY PUSH0 DUP4 DUP4 ADD MSTORE POP POP POP JUMP JUMPDEST PUSH0 PUSH2 0x17AB PUSH2 0x17A6 DUP5 PUSH2 0x175B JUMP JUMPDEST PUSH2 0x1741 JUMP JUMPDEST SWAP1 POP DUP3 DUP2 MSTORE PUSH1 0x20 DUP2 ADD DUP5 DUP5 DUP5 ADD GT ISZERO PUSH2 0x17C7 JUMPI PUSH2 0x17C6 PUSH2 0x16CF JUMP JUMPDEST JUMPDEST PUSH2 0x17D2 DUP5 DUP3 DUP6 PUSH2 0x178B JUMP JUMPDEST POP SWAP4 SWAP3 POP POP POP JUMP JUMPDEST PUSH0 DUP3 PUSH1 0x1F DUP4 ADD SLT PUSH2 0x17EE JUMPI PUSH2 0x17ED PUSH2 0x16CB JUMP JUMPDEST JUMPDEST DUP2 CALLDATALOAD PUSH2 0x17FE DUP5 DUP3 PUSH1 0x20 DUP7 ADD PUSH2 0x1799 JUMP JUMPDEST SWAP2 POP POP SWAP3 SWAP2 POP POP JUMP JUMPDEST PUSH0 PUSH0 PUSH0 PUSH0 PUSH1 0x80 DUP6 DUP8 SUB SLT ISZERO PUSH2 0x181F JUMPI PUSH2 0x181E PUSH2 0x1567 JUMP JUMPDEST JUMPDEST PUSH0 PUSH2 0x182C DUP8 DUP3 DUP9 ADD PUSH2 0x1646 JUMP JUMPDEST SWAP5 POP POP PUSH1 0x20 PUSH2 0x183D DUP8 DUP3 DUP9 ADD PUSH2 0x16B7 JUMP JUMPDEST SWAP4 POP POP PUSH1 0x40 PUSH2 0x184E DUP8 DUP3 DUP9 ADD PUSH2 0x16B7 JUMP JUMPDEST SWAP3 POP POP PUSH1 0x60 DUP6 ADD CALLDATALOAD PUSH8 0xFFFFFFFFFFFFFFFF DUP2 GT ISZERO PUSH2 0x186F JUMPI PUSH2 0x186E PUSH2 0x156B JUMP JUMPDEST JUMPDEST PUSH2 0x187B DUP8 DUP3 DUP9 ADD PUSH2 0x17DA JUMP JUMPDEST SWAP2 POP POP SWAP3 SWAP6 SWAP2 SWAP5 POP SWAP3 POP JUMP JUMPDEST PUSH2 0x1890 DUP2 PUSH2 0x15F4 JUMP JUMPDEST DUP2 EQ PUSH2 0x189A JUMPI PUSH0 PUSH0 REVERT JUMPDEST POP JUMP JUMPDEST PUSH0 DUP2 CALLDATALOAD SWAP1 POP PUSH2 0x18AB DUP2 PUSH2 0x1887 JUMP JUMPDEST SWAP3 SWAP2 POP POP JUMP JUMPDEST PUSH0 PUSH0 PUSH1 0x40 DUP4 DUP6 SUB SLT ISZERO PUSH2 0x18C7 JUMPI PUSH2 0x18C6 PUSH2 0x1567 JUMP JUMPDEST JUMPDEST PUSH0 PUSH2 0x18D4 DUP6 DUP3 DUP7 ADD PUSH2 0x1646 JUMP JUMPDEST SWAP3 POP POP PUSH1 0x20 PUSH2 0x18E5 DUP6 DUP3 DUP7 ADD PUSH2 0x189D JUMP JUMPDEST SWAP2 POP POP SWAP3 POP SWAP3 SWAP1 POP JUMP JUMPDEST PUSH2 0x18F8 DUP2 PUSH2 0x158E JUMP JUMPDEST DUP3 MSTORE POP POP JUMP JUMPDEST PUSH0 PUSH1 0x20 DUP3 ADD SWAP1 POP PUSH2 0x1911 PUSH0 DUP4 ADD DUP5 PUSH2 0x18EF JUMP JUMPDEST SWAP3 SWAP2 POP POP JUMP JUMPDEST PUSH0 PUSH0 PUSH1 0x40 DUP4 DUP6 SUB SLT ISZERO PUSH2 0x192D JUMPI PUSH2 0x192C PUSH2 0x1567 JUMP JUMPDEST JUMPDEST PUSH0 PUSH2 0x193A DUP6 DUP3 DUP7 ADD PUSH2 0x1646 JUMP JUMPDEST SWAP3 POP POP PUSH1 0x20 PUSH2 0x194B DUP6 DUP3 DUP7 ADD PUSH2 0x1646 JUMP JUMPDEST SWAP2 POP POP SWAP3 POP SWAP3 SWAP1 POP JUMP JUMPDEST PUSH2 0x195E DUP2 PUSH2 0x1698 JUMP JUMPDEST DUP3 MSTORE POP POP JUMP JUMPDEST PUSH0 DUP2 MLOAD SWAP1 POP SWAP2 SWAP1 POP JUMP JUMPDEST PUSH0 DUP3 DUP3 MSTORE PUSH1 0x20 DUP3 ADD SWAP1 POP SWAP3 SWAP2 POP POP JUMP JUMPDEST DUP3 DUP2 DUP4 MCOPY PUSH0 DUP4 DUP4 ADD MSTORE POP POP POP JUMP JUMPDEST PUSH0 PUSH2 0x1996 DUP3 PUSH2 0x1964 JUMP JUMPDEST PUSH2 0x19A0 DUP2 DUP6 PUSH2 0x196E JUMP JUMPDEST SWAP4 POP PUSH2 0x19B0 DUP2 DUP6 PUSH1 0x20 DUP7 ADD PUSH2 0x197E JUMP JUMPDEST PUSH2 0x19B9 DUP2 PUSH2 0x16D3 JUMP JUMPDEST DUP5 ADD SWAP2 POP POP SWAP3 SWAP2 POP POP JUMP JUMPDEST PUSH2 0x19CD DUP2 PUSH2 0x1627 JUMP JUMPDEST DUP3 MSTORE POP POP JUMP JUMPDEST PUSH0 PUSH1 0x80 DUP3 ADD SWAP1 POP PUSH2 0x19E6 PUSH0 DUP4 ADD DUP8 PUSH2 0x1955 JUMP JUMPDEST PUSH2 0x19F3 PUSH1 0x20 DUP4 ADD DUP7 PUSH2 0x1955 JUMP JUMPDEST DUP2 DUP2 SUB PUSH1 0x40 DUP4 ADD MSTORE PUSH2 0x1A05 DUP2 DUP6 PUSH2 0x198C JUMP JUMPDEST SWAP1 POP PUSH2 0x1A14 PUSH1 0x60 DUP4 ADD DUP5 PUSH2 0x19C4 JUMP JUMPDEST SWAP6 SWAP5 POP POP POP POP POP JUMP JUMPDEST PUSH0 PUSH1 0x20 DUP3 DUP5 SUB SLT ISZERO PUSH2 0x1A32 JUMPI PUSH2 0x1A31 PUSH2 0x1567 JUMP JUMPDEST JUMPDEST PUSH0 PUSH2 0x1A3F DUP5 DUP3 DUP6 ADD PUSH2 0x1646 JUMP JUMPDEST SWAP2 POP POP SWAP3 SWAP2 POP POP JUMP JUMPDEST PUSH0 PUSH1 0xC0 DUP3 ADD SWAP1 POP PUSH2 0x1A5B PUSH0 DUP4 ADD DUP10 PUSH2 0x19C4 JUMP JUMPDEST DUP2 DUP2 SUB PUSH1 0x20 DUP4 ADD MSTORE PUSH2 0x1A6D DUP2 DUP9 PUSH2 0x198C JUMP JUMPDEST SWAP1 POP PUSH2 0x1A7C PUSH1 0x40 DUP4 ADD DUP8 PUSH2 0x19C4 JUMP JUMPDEST PUSH2 0x1A89 PUSH1 0x60 DUP4 ADD DUP7 PUSH2 0x18EF JUMP JUMPDEST PUSH2 0x1A96 PUSH1 0x80 DUP4 ADD DUP6 PUSH2 0x15FF JUMP JUMPDEST PUSH2 0x1AA3 PUSH1 0xA0 DUP4 ADD DUP5 PUSH2 0x15FF JUMP JUMPDEST SWAP8 SWAP7 POP POP POP POP POP POP POP JUMP JUMPDEST PUSH2 0x1AB7 DUP2 PUSH2 0x1627 JUMP JUMPDEST DUP3 MSTORE POP POP JUMP JUMPDEST PUSH0 DUP3 DUP3 MSTORE PUSH1 0x20 DUP3 ADD SWAP1 POP SWAP3 SWAP2 POP POP JUMP JUMPDEST PUSH0 PUSH2 0x1AD7 DUP3 PUSH2 0x1964 JUMP JUMPDEST PUSH2 0x1AE1 DUP2 DUP6 PUSH2 0x1ABD JUMP JUMPDEST SWAP4 POP PUSH2 0x1AF1 DUP2 DUP6 PUSH1 0x20 DUP7 ADD PUSH2 0x197E JUMP JUMPDEST PUSH2 0x1AFA DUP2 PUSH2 0x16D3 JUMP JUMPDEST DUP5 ADD SWAP2 POP POP SWAP3 SWAP2 POP POP JUMP JUMPDEST PUSH2 0x1B0E DUP2 PUSH2 0x158E JUMP JUMPDEST DUP3 MSTORE POP POP JUMP JUMPDEST PUSH2 0x1B1D DUP2 PUSH2 0x15F4 JUMP JUMPDEST DUP3 MSTORE POP POP JUMP JUMPDEST PUSH0 PUSH1 0xC0 DUP4 ADD PUSH0 DUP4 ADD MLOAD PUSH2 0x1B38 PUSH0 DUP7 ADD DUP3 PUSH2 0x1AAE JUMP JUMPDEST POP PUSH1 0x20 DUP4 ADD MLOAD DUP5 DUP3 SUB PUSH1 0x20 DUP7 ADD MSTORE PUSH2 0x1B50 DUP3 DUP3 PUSH2 0x1ACD JUMP JUMPDEST SWAP2 POP POP PUSH1 0x40 DUP4 ADD MLOAD PUSH2 0x1B65 PUSH1 0x40 DUP7 ADD DUP3 PUSH2 0x1AAE JUMP JUMPDEST POP PUSH1 0x60 DUP4 ADD MLOAD PUSH2 0x1B78 PUSH1 0x60 DUP7 ADD DUP3 PUSH2 0x1B05 JUMP JUMPDEST POP PUSH1 0x80 DUP4 ADD MLOAD PUSH2 0x1B8B PUSH1 0x80 DUP7 ADD DUP3 PUSH2 0x1B14 JUMP JUMPDEST POP PUSH1 0xA0 DUP4 ADD MLOAD PUSH2 0x1B9E PUSH1 0xA0 DUP7 ADD DUP3 PUSH2 0x1B14 JUMP JUMPDEST POP DUP1 SWAP2 POP POP SWAP3 SWAP2 POP POP JUMP JUMPDEST PUSH0 DUP2 MLOAD SWAP1 POP SWAP2 SWAP1 POP JUMP JUMPDEST PUSH0 DUP3 DUP3 MSTORE PUSH1 0x20 DUP3 ADD SWAP1 POP SWAP3 SWAP2 POP POP JUMP JUMPDEST PUSH0 DUP2 SWAP1 POP PUSH1 0x20 DUP3 ADD SWAP1 POP SWAP2 SWAP1 POP JUMP JUMPDEST PUSH2 0x1BDB DUP2 PUSH2 0x1698 JUMP JUMPDEST DUP3 MSTORE POP POP JUMP JUMPDEST PUSH0 PUSH1 0x80 DUP4 ADD PUSH0 DUP4 ADD MLOAD PUSH2 0x1BF6 PUSH0 DUP7 ADD DUP3 PUSH2 0x1BD2 JUMP JUMPDEST POP PUSH1 0x20 DUP4 ADD MLOAD PUSH2 0x1C09 PUSH1 0x20 DUP7 ADD DUP3 PUSH2 0x1BD2 JUMP JUMPDEST POP PUSH1 0x40 DUP4 ADD MLOAD DUP5 DUP3 SUB PUSH1 0x40 DUP7 ADD MSTORE PUSH2 0x1C21 DUP3 DUP3 PUSH2 0x1ACD JUMP JUMPDEST SWAP2 POP POP PUSH1 0x60 DUP4 ADD MLOAD PUSH2 0x1C36 PUSH1 0x60 DUP7 ADD DUP3 PUSH2 0x1AAE JUMP JUMPDEST POP DUP1 SWAP2 POP POP SWAP3 SWAP2 POP POP JUMP JUMPDEST PUSH0 PUSH2 0x1C4C DUP4 DUP4 PUSH2 0x1BE1 JUMP JUMPDEST SWAP1 POP SWAP3 SWAP2 POP POP JUMP JUMPDEST PUSH0 PUSH1 0x20 DUP3 ADD SWAP1 POP SWAP2 SWAP1 POP JUMP JUMPDEST PUSH0 PUSH2 0x1C6A DUP3 PUSH2 0x1BA9 JUMP JUMPDEST PUSH2 0x1C74 DUP2 DUP6 PUSH2 0x1BB3 JUMP JUMPDEST SWAP4 POP DUP4 PUSH1 0x20 DUP3 MUL DUP6 ADD PUSH2 0x1C86 DUP6 PUSH2 0x1BC3 JUMP JUMPDEST DUP1 PUSH0 JUMPDEST DUP6 DUP2 LT ISZERO PUSH2 0x1CC1 JUMPI DUP5 DUP5 SUB DUP10 MSTORE DUP2 MLOAD PUSH2 0x1CA2 DUP6 DUP3 PUSH2 0x1C41 JUMP JUMPDEST SWAP5 POP PUSH2 0x1CAD DUP4 PUSH2 0x1C54 JUMP JUMPDEST SWAP3 POP PUSH1 0x20 DUP11 ADD SWAP10 POP POP PUSH1 0x1 DUP2 ADD SWAP1 POP PUSH2 0x1C89 JUMP JUMPDEST POP DUP3 SWAP8 POP DUP8 SWAP6 POP POP POP POP POP POP SWAP3 SWAP2 POP POP JUMP JUMPDEST PUSH0 DUP2 MLOAD SWAP1 POP SWAP2 SWAP1 POP JUMP JUMPDEST PUSH0 DUP3 DUP3 MSTORE PUSH1 0x20 DUP3 ADD SWAP1 POP SWAP3 SWAP2 POP POP JUMP JUMPDEST PUSH0 DUP2 SWAP1 POP PUSH1 0x20 DUP3 ADD SWAP1 POP SWAP2 SWAP1 POP JUMP JUMPDEST PUSH1 0x40 DUP3 ADD PUSH0 DUP3 ADD MLOAD PUSH2 0x1D10 PUSH0 DUP6 ADD DUP3 PUSH2 0x1B05 JUMP JUMPDEST POP PUSH1 0x20 DUP3 ADD MLOAD PUSH2 0x1D23 PUSH1 0x20 DUP6 ADD DUP3 PUSH2 0x1AAE JUMP JUMPDEST POP POP POP POP JUMP JUMPDEST PUSH0 PUSH2 0x1D34 DUP4 DUP4 PUSH2 0x1CFC JUMP JUMPDEST PUSH1 0x40 DUP4 ADD SWAP1 POP SWAP3 SWAP2 POP POP JUMP JUMPDEST PUSH0 PUSH1 0x20 DUP3 ADD SWAP1 POP SWAP2 SWAP1 POP JUMP JUMPDEST PUSH0 PUSH2 0x1D56 DUP3 PUSH2 0x1CD3 JUMP JUMPDEST PUSH2 0x1D60 DUP2 DUP6 PUSH2 0x1CDD JUMP JUMPDEST SWAP4 POP PUSH2 0x1D6B DUP4 PUSH2 0x1CED JUMP JUMPDEST DUP1 PUSH0 JUMPDEST DUP4 DUP2 LT ISZERO PUSH2 0x1D9B JUMPI DUP2 MLOAD PUSH2 0x1D82 DUP9 DUP3 PUSH2 0x1D29 JUMP JUMPDEST SWAP8 POP PUSH2 0x1D8D DUP4 PUSH2 0x1D40 JUMP JUMPDEST SWAP3 POP POP PUSH1 0x1 DUP2 ADD SWAP1 POP PUSH2 0x1D6E JUMP JUMPDEST POP DUP6 SWAP4 POP POP POP POP SWAP3 SWAP2 POP POP JUMP JUMPDEST PUSH0 PUSH1 0x60 DUP3 ADD SWAP1 POP DUP2 DUP2 SUB PUSH0 DUP4 ADD MSTORE PUSH2 0x1DC0 DUP2 DUP7 PUSH2 0x1B23 JUMP JUMPDEST SWAP1 POP DUP2 DUP2 SUB PUSH1 0x20 DUP4 ADD MSTORE PUSH2 0x1DD4 DUP2 DUP6 PUSH2 0x1C60 JUMP JUMPDEST SWAP1 POP DUP2 DUP2 SUB PUSH1 0x40 DUP4 ADD MSTORE PUSH2 0x1DE8 DUP2 DUP5 PUSH2 0x1D4C JUMP JUMPDEST SWAP1 POP SWAP5 SWAP4 POP POP POP POP JUMP JUMPDEST PUSH0 PUSH1 0x40 DUP3 ADD SWAP1 POP PUSH2 0x1E05 PUSH0 DUP4 ADD DUP6 PUSH2 0x18EF JUMP JUMPDEST PUSH2 0x1E12 PUSH1 0x20 DUP4 ADD DUP5 PUSH2 0x19C4 JUMP JUMPDEST SWAP4 SWAP3 POP POP POP JUMP JUMPDEST PUSH0 PUSH0 PUSH0 PUSH1 0x60 DUP5 DUP7 SUB SLT ISZERO PUSH2 0x1E30 JUMPI PUSH2 0x1E2F PUSH2 0x1567 JUMP JUMPDEST JUMPDEST PUSH0 PUSH2 0x1E3D DUP7 DUP3 DUP8 ADD PUSH2 0x1646 JUMP JUMPDEST SWAP4 POP POP PUSH1 0x20 DUP5 ADD CALLDATALOAD PUSH8 0xFFFFFFFFFFFFFFFF DUP2 GT ISZERO PUSH2 0x1E5E JUMPI PUSH2 0x1E5D PUSH2 0x156B JUMP JUMPDEST JUMPDEST PUSH2 0x1E6A DUP7 DUP3 DUP8 ADD PUSH2 0x17DA JUMP JUMPDEST SWAP3 POP POP PUSH1 0x40 PUSH2 0x1E7B DUP7 DUP3 DUP8 ADD PUSH2 0x1646 JUMP JUMPDEST SWAP2 POP POP SWAP3 POP SWAP3 POP SWAP3 JUMP JUMPDEST PUSH32 0x4E6F74206F776E65720000000000000000000000000000000000000000000000 PUSH0 DUP3 ADD MSTORE POP JUMP JUMPDEST PUSH0 PUSH2 0x1EB9 PUSH1 0x9 DUP4 PUSH2 0x196E JUMP JUMPDEST SWAP2 POP PUSH2 0x1EC4 DUP3 PUSH2 0x1E85 JUMP JUMPDEST PUSH1 0x20 DUP3 ADD SWAP1 POP SWAP2 SWAP1 POP JUMP JUMPDEST PUSH0 PUSH1 0x20 DUP3 ADD SWAP1 POP DUP2 DUP2 SUB PUSH0 DUP4 ADD MSTORE PUSH2 0x1EE6 DUP2 PUSH2 0x1EAD JUMP JUMPDEST SWAP1 POP SWAP2 SWAP1 POP JUMP JUMPDEST PUSH0 PUSH1 0x60 DUP3 ADD SWAP1 POP PUSH2 0x1F00 PUSH0 DUP4 ADD DUP7 PUSH2 0x19C4 JUMP JUMPDEST PUSH2 0x1F0D PUSH1 0x20 DUP4 ADD DUP6 PUSH2 0x18EF JUMP JUMPDEST PUSH2 0x1F1A PUSH1 0x40 DUP4 ADD DUP5 PUSH2 0x18EF JUMP JUMPDEST SWAP5 SWAP4 POP POP POP POP JUMP JUMPDEST PUSH32 0x4E6F742061646D696E0000000000000000000000000000000000000000000000 PUSH0 DUP3 ADD MSTORE POP JUMP JUMPDEST PUSH0 PUSH2 0x1F56 PUSH1 0x9 DUP4 PUSH2 0x196E JUMP JUMPDEST SWAP2 POP PUSH2 0x1F61 DUP3 PUSH2 0x1F22 JUMP JUMPDEST PUSH1 0x20 DUP3 ADD SWAP1 POP SWAP2 SWAP1 POP JUMP JUMPDEST PUSH0 PUSH1 0x20 DUP3 ADD SWAP1 POP DUP2 DUP2 SUB PUSH0 DUP4 ADD MSTORE PUSH2 0x1F83 DUP2 PUSH2 0x1F4A JUMP JUMPDEST SWAP1 POP SWAP2 SWAP1 POP JUMP JUMPDEST PUSH32 0x4E6F74207472616E73706F727465720000000000000000000000000000000000 PUSH0 DUP3 ADD MSTORE POP JUMP JUMPDEST PUSH0 PUSH2 0x1FBE PUSH1 0xF DUP4 PUSH2 0x196E JUMP JUMPDEST SWAP2 POP PUSH2 0x1FC9 DUP3 PUSH2 0x1F8A JUMP JUMPDEST PUSH1 0x20 DUP3 ADD SWAP1 POP SWAP2 SWAP1 POP JUMP JUMPDEST PUSH0 PUSH1 0x20 DUP3 ADD SWAP1 POP DUP2 DUP2 SUB PUSH0 DUP4 ADD MSTORE PUSH2 0x1FEB DUP2 PUSH2 0x1FB2 JUMP JUMPDEST SWAP1 POP SWAP2 SWAP1 POP JUMP JUMPDEST PUSH32 0x54656D70206F7574206F662072616E6765000000000000000000000000000000 PUSH0 DUP3 ADD MSTORE POP JUMP JUMPDEST PUSH0 PUSH2 0x2026 PUSH1 0x11 DUP4 PUSH2 0x196E JUMP JUMPDEST SWAP2 POP PUSH2 0x2031 DUP3 PUSH2 0x1FF2 JUMP JUMPDEST PUSH1 0x20 DUP3 ADD SWAP1 POP SWAP2 SWAP1 POP JUMP JUMPDEST PUSH0 PUSH1 0x20 DUP3 ADD SWAP1 POP DUP2 DUP2 SUB PUSH0 DUP4 ADD MSTORE PUSH2 0x2053 DUP2 PUSH2 0x201A JUMP JUMPDEST SWAP1 POP SWAP2 SWAP1 POP JUMP JUMPDEST PUSH32 0x48756D6964697479206F7574206F662072616E67650000000000000000000000 PUSH0 DUP3 ADD MSTORE POP JUMP JUMPDEST PUSH0 PUSH2 0x208E PUSH1 0x15 DUP4 PUSH2 0x196E JUMP JUMPDEST SWAP2 POP PUSH2 0x2099 DUP3 PUSH2 0x205A JUMP JUMPDEST PUSH1 0x20 DUP3 ADD SWAP1 POP SWAP2 SWAP1 POP JUMP JUMPDEST PUSH0 PUSH1 0x20 DUP3 ADD SWAP1 POP DUP2 DUP2 SUB PUSH0 DUP4 ADD MSTORE PUSH2 0x20BB DUP2 PUSH2 0x2082 JUMP JUMPDEST SWAP1 POP SWAP2 SWAP1 POP JUMP JUMPDEST PUSH32 0x4E487B7100000000000000000000000000000000000000000000000000000000 PUSH0 MSTORE PUSH1 0x22 PUSH1 0x4 MSTORE PUSH1 0x24 PUSH0 REVERT JUMPDEST PUSH0 PUSH1 0x2 DUP3 DIV SWAP1 POP PUSH1 0x1 DUP3 AND DUP1 PUSH2 0x2106 JUMPI PUSH1 0x7F DUP3 AND SWAP2 POP JUMPDEST PUSH1 0x20 DUP3 LT DUP2 SUB PUSH2 0x2119 JUMPI PUSH2 0x2118 PUSH2 0x20C2 JUMP JUMPDEST JUMPDEST POP SWAP2 SWAP1 POP JUMP JUMPDEST PUSH0 DUP2 SWAP1 POP DUP2 PUSH0 MSTORE PUSH1 0x20 PUSH0 KECCAK256 SWAP1 POP SWAP2 SWAP1 POP JUMP JUMPDEST PUSH0 PUSH1 0x20 PUSH1 0x1F DUP4 ADD DIV SWAP1 POP SWAP2 SWAP1 POP JUMP JUMPDEST PUSH0 DUP3 DUP3 SHL SWAP1 POP SWAP3 SWAP2 POP POP JUMP JUMPDEST PUSH0 PUSH1 0x8 DUP4 MUL PUSH2 0x217B PUSH32 0xFFFFFFFFFFFFFFFFFFFFFFFFFFFFFFFFFFFFFFFFFFFFFFFFFFFFFFFFFFFFFFFF DUP3 PUSH2 0x2140 JUMP JUMPDEST PUSH2 0x2185 DUP7 DUP4 PUSH2 0x2140 JUMP JUMPDEST SWAP6 POP DUP1 NOT DUP5 AND SWAP4 POP DUP1 DUP7 AND DUP5 OR SWAP3 POP POP POP SWAP4 SWAP3 POP POP POP JUMP JUMPDEST PUSH0 DUP2 SWAP1 POP SWAP2 SWAP1 POP JUMP JUMPDEST PUSH0 PUSH2 0x21C0 PUSH2 0x21BB PUSH2 0x21B6 DUP5 PUSH2 0x1627 JUMP JUMPDEST PUSH2 0x219D JUMP JUMPDEST PUSH2 0x1627 JUMP JUMPDEST SWAP1 POP SWAP2 SWAP1 POP JUMP JUMPDEST PUSH0 DUP2 SWAP1 POP SWAP2 SWAP1 POP JUMP JUMPDEST PUSH2 0x21D9 DUP4 PUSH2 0x21A6 JUMP JUMPDEST PUSH2 0x21ED PUSH2 0x21E5 DUP3 PUSH2 0x21C7 JUMP JUMPDEST DUP5 DUP5 SLOAD PUSH2 0x214C JUMP JUMPDEST DUP3 SSTORE POP POP POP POP JUMP JUMPDEST PUSH0 PUSH0 SWAP1 POP SWAP1 JUMP JUMPDEST PUSH2 0x2204 PUSH2 0x21F5 JUMP JUMPDEST PUSH2 0x220F DUP2 DUP5 DUP5 PUSH2 0x21D0 JUMP JUMPDEST POP POP POP JUMP JUMPDEST JUMPDEST DUP2 DUP2 LT ISZERO PUSH2 0x2232 JUMPI PUSH2 0x2227 PUSH0 DUP3 PUSH2 0x21FC JUMP JUMPDEST PUSH1 0x1 DUP2 ADD SWAP1 POP PUSH2 0x2215 JUMP JUMPDEST POP POP JUMP JUMPDEST PUSH1 0x1F DUP3 GT ISZERO PUSH2 0x2277 JUMPI PUSH2 0x2248 DUP2 PUSH2 0x211F JUMP JUMPDEST PUSH2 0x2251 DUP5 PUSH2 0x2131 JUMP JUMPDEST DUP2 ADD PUSH1 0x20 DUP6 LT ISZERO PUSH2 0x2260 JUMPI DUP2 SWAP1 POP JUMPDEST PUSH2 0x2274 PUSH2 0x226C DUP6 PUSH2 0x2131 JUMP JUMPDEST DUP4 ADD DUP3 PUSH2 0x2214 JUMP JUMPDEST POP POP JUMPDEST POP POP POP JUMP JUMPDEST PUSH0 DUP3 DUP3 SHR SWAP1 POP SWAP3 SWAP2 POP POP JUMP JUMPDEST PUSH0 PUSH2 0x2297 PUSH0 NOT DUP5 PUSH1 0x8 MUL PUSH2 0x227C JUMP JUMPDEST NOT DUP1 DUP4 AND SWAP2 POP POP SWAP3 SWAP2 POP POP JUMP JUMPDEST PUSH0 PUSH2 0x22AF DUP4 DUP4 PUSH2 0x2288 JUMP JUMPDEST SWAP2 POP DUP3 PUSH1 0x2 MUL DUP3 OR SWAP1 POP SWAP3 SWAP2 POP POP JUMP JUMPDEST PUSH2 0x22C8 DUP3 PUSH2 0x1964 JUMP JUMPDEST PUSH8 0xFFFFFFFFFFFFFFFF DUP2 GT ISZERO PUSH2 0x22E1 JUMPI PUSH2 0x22E0 PUSH2 0x16E3 JUMP JUMPDEST JUMPDEST PUSH2 0x22EB DUP3 SLOAD PUSH2 0x20EF JUMP JUMPDEST PUSH2 0x22F6 DUP3 DUP3 DUP6 PUSH2 0x2236 JUMP JUMPDEST PUSH0 PUSH1 0x20 SWAP1 POP PUSH1 0x1F DUP4 GT PUSH1 0x1 DUP2 EQ PUSH2 0x2327 JUMPI PUSH0 DUP5 ISZERO PUSH2 0x2315 JUMPI DUP3 DUP8 ADD MLOAD SWAP1 POP JUMPDEST PUSH2 0x231F DUP6 DUP3 PUSH2 0x22A4 JUMP JUMPDEST DUP7 SSTORE POP PUSH2 0x2386 JUMP JUMPDEST PUSH1 0x1F NOT DUP5 AND PUSH2 0x2335 DUP7 PUSH2 0x211F JUMP JUMPDEST PUSH0 JUMPDEST DUP3 DUP2 LT ISZERO PUSH2 0x235C JUMPI DUP5 DUP10 ADD MLOAD DUP3 SSTORE PUSH1 0x1 DUP3 ADD SWAP2 POP PUSH1 0x20 DUP6 ADD SWAP5 POP PUSH1 0x20 DUP2 ADD SWAP1 POP PUSH2 0x2337 JUMP JUMPDEST DUP7 DUP4 LT ISZERO PUSH2 0x2379 JUMPI DUP5 DUP10 ADD MLOAD PUSH2 0x2375 PUSH1 0x1F DUP10 AND DUP3 PUSH2 0x2288 JUMP JUMPDEST DUP4 SSTORE POP JUMPDEST PUSH1 0x1 PUSH1 0x2 DUP9 MUL ADD DUP9 SSTORE POP POP POP JUMPDEST POP POP POP POP POP POP JUMP JUMPDEST PUSH0 PUSH1 0x80 DUP3 ADD SWAP1 POP PUSH2 0x23A1 PUSH0 DUP4 ADD DUP8 PUSH2 0x19C4 JUMP JUMPDEST PUSH2 0x23AE PUSH1 0x20 DUP4 ADD DUP7 PUSH2 0x1955 JUMP JUMPDEST PUSH2 0x23BB PUSH1 0x40 DUP4 ADD DUP6 PUSH2 0x1955 JUMP JUMPDEST DUP2 DUP2 SUB PUSH1 0x60 DUP4 ADD MSTORE PUSH2 0x23CD DUP2 DUP5 PUSH2 0x198C JUMP JUMPDEST SWAP1 POP SWAP6 SWAP5 POP POP POP POP POP JUMP JUMPDEST PUSH32 0x4E6F742072657461696C65720000000000000000000000000000000000000000 PUSH0 DUP3 ADD MSTORE POP JUMP JUMPDEST PUSH0 PUSH2 0x240C PUSH1 0xC DUP4 PUSH2 0x196E JUMP JUMPDEST SWAP2 POP PUSH2 0x2417 DUP3 PUSH2 0x23D8 JUMP JUMPDEST PUSH1 0x20 DUP3 ADD SWAP1 POP SWAP2 SWAP1 POP JUMP JUMPDEST PUSH0 PUSH1 0x20 DUP3 ADD SWAP1 POP DUP2 DUP2 SUB PUSH0 DUP4 ADD MSTORE PUSH2 0x2439 DUP2 PUSH2 0x2400 JUMP JUMPDEST SWAP1 POP SWAP2 SWAP1 POP JUMP JUMPDEST PUSH0 PUSH1 0x40 DUP3 ADD SWAP1 POP PUSH2 0x2453 PUSH0 DUP4 ADD DUP6 PUSH2 0x19C4 JUMP JUMPDEST PUSH2 0x2460 PUSH1 0x20 DUP4 ADD DUP5 PUSH2 0x15FF JUMP JUMPDEST SWAP4 SWAP3 POP POP POP JUMP JUMPDEST PUSH32 0x4E6F742070726F64756365720000000000000000000000000000000000000000 PUSH0 DUP3 ADD MSTORE POP JUMP JUMPDEST PUSH0 PUSH2 0x249B PUSH1 0xC DUP4 PUSH2 0x196E JUMP JUMPDEST SWAP2 POP PUSH2 0x24A6 DUP3 PUSH2 0x2467 JUMP JUMPDEST PUSH1 0x20 DUP3 ADD SWAP1 POP SWAP2 SWAP1 POP JUMP JUMPDEST PUSH0 PUSH1 0x20 DUP3 ADD SWAP1 POP DUP2 DUP2 SUB PUSH0 DUP4 ADD MSTORE PUSH2 0x24C8 DUP2 PUSH2 0x248F JUMP JUMPDEST SWAP1 POP SWAP2 SWAP1 POP JUMP JUMPDEST PUSH32 0x4261746368206578697374730000000000000000000000000000000000000000 PUSH0 DUP3 ADD MSTORE POP JUMP JUMPDEST PUSH0 PUSH2 0x2503 PUSH1 0xC DUP4 PUSH2 0x196E JUMP JUMPDEST SWAP2 POP PUSH2 0x250E DUP3 PUSH2 0x24CF JUMP JUMPDEST PUSH1 0x20 DUP3 ADD SWAP1 POP SWAP2 SWAP1 POP JUMP JUMPDEST PUSH0 PUSH1 0x20 DUP3 ADD SWAP1 POP DUP2 DUP2 SUB PUSH0 DUP4 ADD MSTORE PUSH2 0x2530 DUP2 PUSH2 0x24F7 JUMP JUMPDEST SWAP1 POP SWAP2 SWAP1 POP JUMP JUMPDEST PUSH0 PUSH1 0x60 DUP3 ADD SWAP1 POP PUSH2 0x254A PUSH0 DUP4 ADD DUP7 PUSH2 0x19C4 JUMP JUMPDEST DUP2 DUP2 SUB PUSH1 0x20 DUP4 ADD MSTORE PUSH2 0x255C DUP2 DUP6 PUSH2 0x198C JUMP JUMPDEST SWAP1 POP PUSH2 0x256B PUSH1 0x40 DUP4 ADD DUP5 PUSH2 0x19C4 JUMP JUMPDEST SWAP5 SWAP4 POP POP POP POP JUMP INVALID LOG2 PUSH5 0x6970667358 0x22 SLT KECCAK256 CREATE2 DUP3 0xB6 SWAP16 0xA7 DUP15 LT 0xB9 SWAP16 0xA9 DIV 0xAA 0xA7 NOT 0xC0 CALLVALUE SHR SWAP12 0x4D RETURNCONTRACT 0x58 PREVRANDAO 0xC8 PUSH13 0x13C8F7FF84176F2F64736F6C63 NUMBER STOP ADDMOD 0x1E STOP CALLER "
				},
				"gasEstimates": {
					"creation": {
						"codeDepositCost": "1928200",
						"executionCost": "26303",
						"totalCost": "1954503"
					},
					"external": {
						"addSensorData(uint256,int256,int256,string)": "infinite",
						"batches(uint256)": "infinite",
						"createBatch(uint256,string,uint256)": "infinite",
						"distributors(address)": "2877",
						"getBatchHistory(uint256)": "infinite",
						"markAsArrived(uint256,bool)": "infinite",
						"owner()": "2574",
						"ownershipHistory(uint256,uint256)": "infinite",
						"producers(address)": "2857",
						"registerDistributor(address)": "27039",
						"registerProducer(address)": "26994",
						"registerRetailer(address)": "26994",
						"registerTransporter(address)": "27081",
						"retailers(address)": "2922",
						"sensorLogs(uint256,uint256)": "infinite",
						"transferOwnership(uint256,address)": "infinite",
						"transporters(address)": "2899"
					}
				},
				"methodIdentifiers": {
					"addSensorData(uint256,int256,int256,string)": "386e6ad0",
					"batches(uint256)": "b32c4d8d",
					"createBatch(uint256,string,uint256)": "f33c7bcc",
					"distributors(address)": "cc642784",
					"getBatchHistory(uint256)": "c7a8ccb1",
					"markAsArrived(uint256,bool)": "554bb5d4",
					"owner()": "8da5cb5b",
					"ownershipHistory(uint256,uint256)": "c9cf2adc",
					"producers(address)": "26324eff",
					"registerDistributor(address)": "31ab0518",
					"registerProducer(address)": "3c530ace",
					"registerRetailer(address)": "a83006da",
					"registerTransporter(address)": "fa6d8c5f",
					"retailers(address)": "9a268f35",
					"sensorLogs(uint256,uint256)": "ac98d969",
					"transferOwnership(uint256,address)": "29507f73",
					"transporters(address)": "e25bd158"
				}
			},
			"storageLayout": {
				"storage": [
					{
						"astId": 3,
						"contract": "FreshChain.sol:FreshChain",
						"label": "owner",
						"offset": 0,
						"slot": "0",
						"type": "t_address"
					},
					{
						"astId": 76,
						"contract": "FreshChain.sol:FreshChain",
						"label": "producers",
						"offset": 0,
						"slot": "1",
						"type": "t_mapping(t_address,t_bool)"
					},
					{
						"astId": 80,
						"contract": "FreshChain.sol:FreshChain",
						"label": "transporters",
						"offset": 0,
						"slot": "2",
						"type": "t_mapping(t_address,t_bool)"
					},
					{
						"astId": 84,
						"contract": "FreshChain.sol:FreshChain",
						"label": "distributors",
						"offset": 0,
						"slot": "3",
						"type": "t_mapping(t_address,t_bool)"
					},
					{
						"astId": 88,
						"contract": "FreshChain.sol:FreshChain",
						"label": "retailers",
						"offset": 0,
						"slot": "4",
						"type": "t_mapping(t_address,t_bool)"
					},
					{
						"astId": 176,
						"contract": "FreshChain.sol:FreshChain",
						"label": "batches",
						"offset": 0,
						"slot": "5",
						"type": "t_mapping(t_uint256,t_struct(Batch)171_storage)"
					},
					{
						"astId": 182,
						"contract": "FreshChain.sol:FreshChain",
						"label": "sensorLogs",
						"offset": 0,
						"slot": "6",
						"type": "t_mapping(t_uint256,t_array(t_struct(SensorData)153_storage)dyn_storage)"
					},
					{
						"astId": 188,
						"contract": "FreshChain.sol:FreshChain",
						"label": "ownershipHistory",
						"offset": 0,
						"slot": "7",
						"type": "t_mapping(t_uint256,t_array(t_struct(Ownership)158_storage)dyn_storage)"
					}
				],
				"types": {
					"t_address": {
						"encoding": "inplace",
						"label": "address",
						"numberOfBytes": "20"
					},
					"t_array(t_struct(Ownership)158_storage)dyn_storage": {
						"base": "t_struct(Ownership)158_storage",
						"encoding": "dynamic_array",
						"label": "struct FreshChain.Ownership[]",
						"numberOfBytes": "32"
					},
					"t_array(t_struct(SensorData)153_storage)dyn_storage": {
						"base": "t_struct(SensorData)153_storage",
						"encoding": "dynamic_array",
						"label": "struct FreshChain.SensorData[]",
						"numberOfBytes": "32"
					},
					"t_bool": {
						"encoding": "inplace",
						"label": "bool",
						"numberOfBytes": "1"
					},
					"t_int256": {
						"encoding": "inplace",
						"label": "int256",
						"numberOfBytes": "32"
					},
					"t_mapping(t_address,t_bool)": {
						"encoding": "mapping",
						"key": "t_address",
						"label": "mapping(address => bool)",
						"numberOfBytes": "32",
						"value": "t_bool"
					},
					"t_mapping(t_uint256,t_array(t_struct(Ownership)158_storage)dyn_storage)": {
						"encoding": "mapping",
						"key": "t_uint256",
						"label": "mapping(uint256 => struct FreshChain.Ownership[])",
						"numberOfBytes": "32",
						"value": "t_array(t_struct(Ownership)158_storage)dyn_storage"
					},
					"t_mapping(t_uint256,t_array(t_struct(SensorData)153_storage)dyn_storage)": {
						"encoding": "mapping",
						"key": "t_uint256",
						"label": "mapping(uint256 => struct FreshChain.SensorData[])",
						"numberOfBytes": "32",
						"value": "t_array(t_struct(SensorData)153_storage)dyn_storage"
					},
					"t_mapping(t_uint256,t_struct(Batch)171_storage)": {
						"encoding": "mapping",
						"key": "t_uint256",
						"label": "mapping(uint256 => struct FreshChain.Batch)",
						"numberOfBytes": "32",
						"value": "t_struct(Batch)171_storage"
					},
					"t_string_storage": {
						"encoding": "bytes",
						"label": "string",
						"numberOfBytes": "32"
					},
					"t_struct(Batch)171_storage": {
						"encoding": "inplace",
						"label": "struct FreshChain.Batch",
						"members": [
							{
								"astId": 160,
								"contract": "FreshChain.sol:FreshChain",
								"label": "batchId",
								"offset": 0,
								"slot": "0",
								"type": "t_uint256"
							},
							{
								"astId": 162,
								"contract": "FreshChain.sol:FreshChain",
								"label": "productName",
								"offset": 0,
								"slot": "1",
								"type": "t_string_storage"
							},
							{
								"astId": 164,
								"contract": "FreshChain.sol:FreshChain",
								"label": "quantity",
								"offset": 0,
								"slot": "2",
								"type": "t_uint256"
							},
							{
								"astId": 166,
								"contract": "FreshChain.sol:FreshChain",
								"label": "currentOwner",
								"offset": 0,
								"slot": "3",
								"type": "t_address"
							},
							{
								"astId": 168,
								"contract": "FreshChain.sol:FreshChain",
								"label": "arrived",
								"offset": 20,
								"slot": "3",
								"type": "t_bool"
							},
							{
								"astId": 170,
								"contract": "FreshChain.sol:FreshChain",
								"label": "passedInspection",
								"offset": 21,
								"slot": "3",
								"type": "t_bool"
							}
						],
						"numberOfBytes": "128"
					},
					"t_struct(Ownership)158_storage": {
						"encoding": "inplace",
						"label": "struct FreshChain.Ownership",
						"members": [
							{
								"astId": 155,
								"contract": "FreshChain.sol:FreshChain",
								"label": "owner",
								"offset": 0,
								"slot": "0",
								"type": "t_address"
							},
							{
								"astId": 157,
								"contract": "FreshChain.sol:FreshChain",
								"label": "timestamp",
								"offset": 0,
								"slot": "1",
								"type": "t_uint256"
							}
						],
						"numberOfBytes": "64"
					},
					"t_struct(SensorData)153_storage": {
						"encoding": "inplace",
						"label": "struct FreshChain.SensorData",
						"members": [
							{
								"astId": 146,
								"contract": "FreshChain.sol:FreshChain",
								"label": "temperature",
								"offset": 0,
								"slot": "0",
								"type": "t_int256"
							},
							{
								"astId": 148,
								"contract": "FreshChain.sol:FreshChain",
								"label": "humidity",
								"offset": 0,
								"slot": "1",
								"type": "t_int256"
							},
							{
								"astId": 150,
								"contract": "FreshChain.sol:FreshChain",
								"label": "location",
								"offset": 0,
								"slot": "2",
								"type": "t_string_storage"
							},
							{
								"astId": 152,
								"contract": "FreshChain.sol:FreshChain",
								"label": "timestamp",
								"offset": 0,
								"slot": "3",
								"type": "t_uint256"
							}
						],
						"numberOfBytes": "128"
					},
					"t_uint256": {
						"encoding": "inplace",
						"label": "uint256",
						"numberOfBytes": "32"
					}
				}
			},
			"userdoc": {
				"kind": "user",
				"methods": {},
				"version": 1
			}
		}
	}
}